:020000040800F2
:100000000000082439260008C11F0008C31F00088B
:10001000C51F0008C71F0008C91F00080000000016
:10002000000000000000000000000000CB1F0008DE
:10003000CD1F000800000000CF1F0008D11F0008DE
:1000400089260008892600088926000889260008D4
:1000500089260008892600088926000889260008C4
:1000600089260008892600088926000889260008B4
:1000700089260008892600088926000889260008A4
:100080008926000889260008892600088926000894
:100090008926000889260008892600088926000884
:1000A0008926000889260008892600088926000874
:1000B0008926000889260008892600088926000864
:1000C0008926000889260008892600088926000854
:1000D00089260008D91F00088926000889260008FB
:1000E00089260008892600080000000089260008EB
:1000F0008926000889260008892600088926000824
:100100008926000889260008892600088926000813
:100110008926000889260008892600088926000803
:1001200089260008892600088926000889260008F3
:1001300089260008892600088926000889260008E3
:1001400000000000000000000000000000000000AF
:1001500089260008892600088926000889260008C3
:1001600089260008892600088926000889260008B3
:1001700089260008892600088926000889260008A3
:100180008926000889260008892600088926000893
:100190008926000889260008892600088926000883
:1001A0008926000889260008892600088926000873
:1001B0008926000889260008892600088926000863
:1001C0008926000889260008892600088926000853
:1001D0008926000889260008892600088926000843
:1001E0008926000889260008892600088926000833
:1001F0008926000889260008892600088926000823
:100200008926000889260008892600088926000812
:100210008926000889260008892600088926000802
:1002200089260008892600088926000800000000A9
:100230008926000889260008000000008926000899
:1002400089260008892600088926000889260008D2
:1002500089260008892600088926000889260008C2
:1002600089260008892600088926000889260008B2
:100270008926000889260008892600080000000059
:100280008926000889260008892600080000000049
:080290000000000089260008AF
:1002C00010B5054C237833B9044B13B10448AFF390
:1002D00000800123237010BDC0090024000000002D
:1002E00098D6000808B5034B1BB103490348AFF388
:1002F000008008BD00000000C409002498D6000852
:1003000080F0004002E000BF81F0004142001FBFCA
:100310005FEA410392EA030F7FEA226C7FEA236CD3
:100320006AD04FEA1262D2EB1363C1BFD2184140C8
:1003300048404140B8BF5B42192B88BF704710F05E
:10034000004F40F4000020F07F4018BF404211F001
:10035000004F41F4000121F07F4118BF494292EA69
:10036000030F3FD0A2F1010241FA03FC10EB0C0095
:10037000C3F1200301FA03F100F0004302D5494222
:1003800060EB4000B0F5000F13D3B0F1807F06D3CF
:1003900040084FEA310102F10102FE2A51D2B1F1C7
:1003A000004F40EBC25008BF20F0010040EA0300BC
:1003B0007047490040EB0000013A28BFB0F5000F3C
:1003C000EDD2B0FA80FCACF1080CB2EB0C0200FAF2
:1003D0000CF0AABF00EBC25052421843BCBFD04041
:1003E0001843704792F0000F81F4000106BF80F4BB
:1003F00000000132013BB5E74FEA41037FEA226C7E
:1004000018BF7FEA236C21D092EA030F04D092F048
:10041000000F08BF0846704790EA010F1CBF00207C
:10042000704712F07F4F04D1400028BF40F00040D9
:10043000704712F100723CBF00F50000704700F0F9
:10044000004343F0FE4040F4000070477FEA226220
:1004500016BF08467FEA23630146420206BF5FEAF1
:10046000412390EA010F40F4800070474FF00003F1
:1004700004E000BF10F0004348BF40425FEA000CB8
:1004800008BF704743F0964301464FF000001CE060
:1004900050EA010208BF70474FF000030AE000BFB6
:1004A00050EA010208BF704711F0004302D54042F4
:1004B00061EB41015FEA010C02BF84460146002066
:1004C00043F0B64308BFA3F18053A3F50003BCFA81
:1004D0008CF2083AA3EBC25310DB01FA02FC63442E
:1004E00000FA02FCC2F12002BCF1004F20FA02F235
:1004F00043EB020008BF20F00100704702F1200228
:1005000001FA02FCC2F1200250EA4C0021FA02F288
:1005100043EB020008BF20EADC7070474FF0FF0C8D
:100520001CEAD0521EBF1CEAD15392EA0C0F93EA88
:100530000C0F6FD01A4480EA010C400218BF5FEA2A
:1005400041211ED04FF0006343EA501043EA51119D
:10055000A0FB01310CF00040B1F5000F3EBF490097
:1005600041EAD3715B0040EA010062F17F02FD2A9B
:100570001DD8B3F1004F40EBC25008BF20F001007E
:10058000704790F0000F0CF0004C08BF49024CEA95
:10059000502040EA51207F3AC2BFD2F1FF0340EA27
:1005A000C250704740F400004FF00003013A5DDC98
:1005B00012F1190FDCBF00F000407047C2F10002D9
:1005C000410021FA02F1C2F1200200FA02FC5FEAC6
:1005D000310040F1000053EA4C0308BF20EADC7010
:1005E000704792F0000F00F0004C02BF400010F482
:1005F000000F013AF9D040EA0C0093F0000F01F02F
:10060000004C02BF490011F4000F013BF9D041EA50
:100610000C018FE70CEAD15392EA0C0F18BF93EA52
:100620000C0F0AD030F0004C18BF31F0004CD8D17C
:1006300080EA010000F00040704790F0000F17BF03
:1006400090F0004F084691F0000F91F0004F14D049
:1006500092EA0C0F01D142020FD193EA0C0F03D1A1
:100660004B0218BF084608D180EA010000F00040A4
:1006700040F0FE4040F40000704740F0FE4040F47F
:10068000400070474FF0FF0C1CEAD0521EBF1CEA1E
:10069000D15392EA0C0F93EA0C0F69D0A2EB03023C
:1006A00080EA010C49024FEA402037D04FF08053D6
:1006B00043EA111143EA10130CF000408B4238BF9B
:1006C0005B0042F17D024FF4000C8B4224BF5B1AA9
:1006D00040EA0C00B3EB510F24BFA3EB510340EAF7
:1006E0005C00B3EB910F24BFA3EB910340EA9C00A5
:1006F000B3EBD10F24BFA3EBD10340EADC001B0115
:1007000018BF5FEA1C1CE0D1FD2A3FF650AF8B42B8
:1007100040EBC25008BF20F0010070470CF0004CC5
:100720004CEA50207F32C2BFD2F1FF0340EAC250F0
:10073000704740F400004FF00003013A37E792F0B1
:10074000000F00F0004C02BF400010F4000F013A0F
:10075000F9D040EA0C0093F0000F01F0004C02BF0A
:10076000490011F4000F013BF9D041EA0C0195E773
:100770000CEAD15392EA0C0F08D142027FF47DAF0C
:1007800093EA0C0F7FF470AF084676E793EA0C0FFC
:1007900004D14B023FF44CAF08466EE730F0004CFA
:1007A00018BF31F0004CCAD130F000427FF45CAF8A
:1007B00031F000437FF43CAF5FE700BF42000ED250
:1007C000B2F1FE4F0BD34FF09E03B3EB126209D48C
:1007D0004FEA002343F0004323FA02F070474FF042
:1007E0000000704712F1610F01D1420202D14FF0B7
:1007F000FF3070474FF00000704700BF53B94AB94F
:10080000002908BF00281CBF4FF0FF314FF0FF3018
:1008100000F074B9ADF1080C6DE904CE00F006F8F3
:10082000DDF804E0DDE9022304B070472DE9F0476C
:10083000089E0D4604468846002B4DD18A429446B8
:1008400068D9B2FA82F252B101FA02F3C2F1200180
:1008500020FA01F10CFA02FC41EA030894404FEA45
:100860001C45210CB8FBF5FE1FFA8CF705FB1E8317
:1008700041EA03430EFB07F199420BD91CEB03033A
:100880000EF1FF3080F01E81994240F21B81AEF1E3
:10089000020E63445B1AA4B2B3FBF5F005FB103300
:1008A00044EA034400FB07F7A7420AD91CEB0404FF
:1008B00000F1FF3380F00881A74240F205816444D3
:1008C0000238E41B40EA0E4000211EB1D440002350
:1008D000C6E90043BDE8F0878B4208D9002E00F03E
:1008E000EE800021C6E900050846BDE8F087B3FAAE
:1008F00083F100294AD1AB4202D3824200F2F9804F
:10090000841A65EB030301209846002EE2D0C6E965
:100910000048DFE702B9FFDEB2FA82F2002A40F0B7
:100920009180A1EB0C054FEA1C471FFA8CFE0121B8
:10093000B5FBF7F307FB1350250C45EA00450EFB0A
:1009400003F0A84208D91CEB050503F1FF3802D2D9
:10095000A84200F2CB8043462D1AA4B2B5FBF7F0B3
:1009600007FB105544EA05440EFB00FEA64508D9D6
:100970001CEB040400F1FF3502D2A64500F2BB8057
:100980002846A4EB0E0440EA03409EE7C1F120078D
:100990008B4022FA07FC4CEA030C20FA07F405FA14
:1009A00001F31C43FD404FEA1C4900FA01F3B5FB7B
:1009B000F9F8200C1FFA8CFE09FB185540EA054592
:1009C00008FB0EF0A84202FA01F20BD91CEB050558
:1009D00008F1FF3A80F08880A84240F28580A8F1B3
:1009E000020865442D1AA4B2B5FBF9F009FB1055B5
:1009F00044EA054500FB0EFEAE4508D91CEB050593
:100A000000F1FF346CD2AE456AD90238654440EA41
:100A10000840A0FB0294A5EB0E05A542C846A646D9
:100A200056D353D05EB1B3EB080265EB0E0505FA61
:100A300007F722FA01F3CD401F43C6E900750021F4
:100A4000BDE8F087C2F1200320FA03F10CFA02FCA2
:100A500025FA03F395400D434FEA1C471FFA8CFE1D
:100A6000B3FBF7F107FB11302B0C43EA004301FB0A
:100A70000EF0984204FA02F408D91CEB030301F1CA
:100A8000FF382FD298422DD9023963441B1AADB2D8
:100A9000B3FBF7F007FB103345EA034500FB0EF309
:100AA000AB4208D91CEB050500F1FF3816D2AB426A
:100AB00014D902386544ED1A40EA014138E731465D
:100AC000304607E78646E5E61846FAE64B45A9D2E2
:100AD000B9EB020864EB0C0E0138A3E74046EAE7E5
:100AE000204694E74146D1E7D0467BE7023B654488
:100AF00032E7084609E76444023842E7704700BF1E
:100B000090F800F06DE9024520F007016FF0000C4D
:100B100010F0070491F820F040F049804FF00004F5
:100B20006FF00700D1E9002391F840F000F10800D0
:100B300082FA4CF2A4FA8CF283FA4CF3A2FA8CF308
:100B40004BBBD1E9022382FA4CF200F10800A4FA6F
:100B50008CF283FA4CF3A2FA8CF3E3B9D1E90423C3
:100B600082FA4CF200F10800A4FA8CF283FA4CF3FA
:100B7000A2FA8CF37BB9D1E9062301F1200182FAB4
:100B80004CF200F10800A4FA8CF283FA4CF3A2FABA
:100B90008CF3002BC6D0002A04BF04301A4612BAC8
:100BA000B2FA82F2FDE8024500EBD2007047D1E9CB
:100BB000002304F00305C4F100004FEAC50514F05A
:100BC000040F91F840F00CFA05F562EA05021CBF2B
:100BD00063EA050362464FF00004A9E70000000045
:100BE00001F0FF01102A2BDB10F0070F08D010F8DE
:100BF000013B013A8B422DD010F0070F42B3F6D1E2
:100C0000F0B441EA012141EA014122F007047FF0FA
:100C100000070023F0E80256083C85EA010586EA51
:100C2000010685FA47F5A3FA87F586FA47F6A5FA8D
:100C300087F68EB9EED1F0BC01F0FF0102F0070299
:100C400032B110F8013B013A83EA010313B1F8D144
:100C50000020704701387047002D06BF3546033825
:100C6000073815F0010F07D1013015F4807F02BF5E
:100C7000013015F4C03F0130F0BC0138704700BFAF
:100C8000844641EA000313F003036DD1403A41D397
:100C900051F8043B40F8043B51F8043B40F8043B56
:100CA00051F8043B40F8043B51F8043B40F8043B46
:100CB00051F8043B40F8043B51F8043B40F8043B36
:100CC00051F8043B40F8043B51F8043B40F8043B26
:100CD00051F8043B40F8043B51F8043B40F8043B16
:100CE00051F8043B40F8043B51F8043B40F8043B06
:100CF00051F8043B40F8043B51F8043B40F8043BF6
:100D000051F8043B40F8043B51F8043B40F8043BE5
:100D1000403ABDD2303211D351F8043B40F8043B85
:100D200051F8043B40F8043B51F8043B40F8043BC5
:100D300051F8043B40F8043B103AEDD20C3205D395
:100D400051F8043B40F8043B043AF9D2043208D08D
:100D5000D2071CBF11F8013B00F8013B01D30B88FF
:100D600003806046704700BF082A13D38B078DD0DD
:100D700010F003038AD0C3F10403D21ADB071CBFAF
:100D800011F8013B00F8013B80D331F8023B20F819
:100D9000023B7BE7043AD9D3013A11F8013B00F852
:100DA000013BF9D20B7803704B7843708B788370DA
:100DB0006046704781F0004102E000BF83F00043CD
:100DC00030B54FEA41044FEA430594EA050F08BFE6
:100DD00090EA020F1FBF54EA000C55EA020C7FEAAA
:100DE000645C7FEA655C00F0E2804FEA5454D4EB27
:100DF0005555B8BF6D420CDD2C4480EA020281EAF1
:100E0000030382EA000083EA010180EA020281EA28
:100E10000303362D88BF30BD11F0004F4FEA01317A
:100E20004FF4801C4CEA113102D0404261EB410189
:100E300013F0004F4FEA03334CEA133302D052420F
:100E400063EB430394EA050F00F0A780A4F10104CB
:100E5000D5F1200E0DDB02FA0EFC22FA05F2801805
:100E600041F1000103FA0EF2801843FA05F35941EB
:100E70000EE0A5F120050EF1200E012A03FA0EFC6A
:100E800028BF4CF0020C43FA05F3C01851EBE37194
:100E900001F0004507D54FF0000EDCF1000C7EEBB1
:100EA00000006EEB0101B1F5801F1BD3B1F5001FEF
:100EB0000CD349085FEA30004FEA3C0C04F101040E
:100EC0004FEA445212F5800F80F09A80BCF1004F37
:100ED00008BF5FEA500C50F1000041EB045141EAB9
:100EE000050130BD5FEA4C0C404141EB0101013C82
:100EF00028BFB1F5801FE9D291F0000F04BF014671
:100F00000020B1FA81F308BF2033A3F10B03B3F142
:100F100020020CDA0C3208DD02F1140CC2F10C02D2
:100F200001FA0CF021FA02F10CE002F11402D8BF30
:100F3000C2F1200C01FA02F120FA0CFCDCBF41EAFC
:100F40000C019040E41AA2BF01EB0451294330BDCB
:100F50006FEA04041F3C1CDA0C340EDC04F11404A8
:100F6000C4F1200220FA04F001FA02F340EA03007F
:100F700021FA04F345EA030130BDC4F10C04C4F1C5
:100F8000200220FA02F001FA04F340EA03002946A5
:100F900030BD21FA04F0294630BD94F0000F83F4EF
:100FA000801306BF81F480110134013D4EE77FEAD2
:100FB000645C18BF7FEA655C29D094EA050F08BF1E
:100FC00090EA020F05D054EA000C04BF19461046FF
:100FD00030BD91EA030F1EBF0021002030BD5FEA43
:100FE000545C05D14000494128BF41F0004130BD6B
:100FF00014F580043CBF01F5801130BD01F00045BF
:1010000045F0FE4141F470014FF0000030BD7FEA31
:10101000645C1ABF194610467FEA655C1CBF0B462C
:10102000024650EA013406BF52EA033591EA030F43
:1010300041F4002130BD00BF90F0000F04BF00213B
:10104000704730B54FF4806404F132044FF000056E
:101050004FF0000150E700BF90F0000F04BF0021E7
:10106000704730B54FF4806404F1320410F000454D
:1010700048BF40424FF000013EE700BF42004FEA48
:10108000E2014FEA31014FEA02701FBF12F07F43C5
:1010900093F07F4F81F06051704732F07F4208BF7C
:1010A000704793F07F4F04BF41F40021704730B583
:1010B0004FF4607401F0004521F000411CE700BFCF
:1010C00050EA010208BF704730B54FF000050AE052
:1010D00050EA010208BF704730B511F0004502D553
:1010E000404261EB41014FF4806404F132045FEA55
:1010F000915C3FF4D8AE4FF003025FEADC0C18BFFE
:1011000003325FEADC0C18BF033202EBDC02C2F1EF
:10111000200300FA03FC20FA02F001FA03FE40EA81
:101120000E0021FA02F11444BDE600BF70B54FF085
:10113000FF0C4CF4E06C1CEA11541DBF1CEA135563
:1011400094EA0C0F95EA0C0F00F0DEF82C4481EACB
:10115000030621EA4C5123EA4C5350EA013518BFEB
:1011600052EA033541F4801143F4801338D0A0FBD8
:1011700002CE4FF00005E1FB02E506F00042E0FB85
:1011800003E54FF00006E1FB03569CF0000F18BF8B
:101190004EF0010EA4F1FF04B6F5007F64F5407433
:1011A00004D25FEA4E0E6D4146EB060642EAC621C6
:1011B00041EA55514FEAC52040EA5E504FEACE2E33
:1011C000B4F1FD0C88BFBCF5E06F1ED8BEF1004F36
:1011D00008BF5FEA500E50F1000041EB045170BDB2
:1011E00006F0004646EA010140EA020081EA0301F6
:1011F000B4EB5C04C2BFD4EB0C0541EA045170BDF2
:1012000041F480114FF0000E013C00F3AB8014F16B
:10121000360FDEBF002001F0004170BDC4F10004B4
:10122000203C35DA0C341BDC04F11404C4F1200535
:1012300000FA05F320FA04F001FA05F240EA020090
:1012400001F0004221F0004110EBD37021FA04F6C6
:1012500042EB06015EEA430E08BF20EAD37070BD80
:10126000C4F10C04C4F1200500FA04F320FA05F0DF
:1012700001FA04F240EA020001F0004110EBD370E1
:1012800041F100015EEA430E08BF20EAD37070BD51
:10129000C4F1200500FA05F24EEA020E20FA04F32A
:1012A00001FA05F243EA020321FA04F001F00041D9
:1012B00021FA04F220EA020000EBD3705EEA430E4A
:1012C00008BF20EAD37070BD94F0000F0FD101F079
:1012D0000046400041EB010111F4801F08BF013CB2
:1012E000F7D041EA060195F0000F18BF704703F0F0
:1012F0000046520043EB030313F4801F08BF013D77
:10130000F7D043EA0603704794EA0C0F0CEA135532
:1013100018BF95EA0C0F0CD050EA410618BF52EAEC
:101320004306D1D181EA030101F000414FF00000F2
:1013300070BD50EA410606BF1046194652EA430600
:1013400019D094EA0C0F02D150EA013613D195EA74
:101350000C0F05D152EA03361CBF104619460AD1BC
:1013600081EA030101F0004141F0FE4141F47001C6
:101370004FF0000070BD41F0FE4141F4780170BDB6
:1013800070B54FF0FF0C4CF4E06C1CEA11541DBF1B
:101390001CEA135594EA0C0F95EA0C0F00F0A7F81D
:1013A000A4EB050481EA030E52EA03354FEA01314A
:1013B00000F088804FEA03334FF0805545EA13135D
:1013C00043EA12634FEA022245EA111545EA106525
:1013D0004FEA00260EF000419D4208BF964244F1BC
:1013E000FD0404F5407402D25B084FEA3202B61ADB
:1013F00065EB03055B084FEA32024FF480104FF4AF
:10140000002CB6EB020E75EB030E22BFB61A754622
:1014100040EA0C005B084FEA3202B6EB020E75EBB5
:10142000030E22BFB61A754640EA5C005B084FEA1D
:101430003202B6EB020E75EB030E22BFB61A7546EA
:1014400040EA9C005B084FEA3202B6EB020E75EBF5
:10145000030E22BFB61A754640EADC0055EA060EB6
:1014600018D04FEA051545EA16754FEA06164FEAF9
:10147000C30343EA52734FEAC2025FEA1C1CC0D1A5
:1014800011F4801F0BD141EA00014FF000004FF032
:10149000004CB6E711F4801F04BF01430020B4F1F3
:1014A000FD0C88BFBCF5E06F3FF6AFAEB5EB030CAB
:1014B00004BFB6EB020C5FEA500C50F1000041EBA8
:1014C000045170BD0EF0004E4EEA113114EB5C0475
:1014D000C2BFD4EB0C0541EA045170BD41F4801148
:1014E0004FF0000E013C90E645EA060E8DE60CEA50
:1014F000135594EA0C0F08BF95EA0C0F3FF43BAF6D
:1015000094EA0C0F0AD150EA01347FF434AF95EA23
:101510000C0F7FF425AF104619462CE795EA0C0F07
:1015200006D152EA03353FF4FDAE1046194622E7D4
:1015300050EA410618BF52EA43067FF4C5AE50EAAE
:1015400041047FF40DAF52EA43057FF4EBAE12E79E
:101550004FF0FF3C06E000BF4FF0010C02E000BF7F
:101560004FF0010C4DF804CD4FEA410C7FEA6C5C62
:101570004FEA430C18BF7FEA6C5C1BD001B050EA05
:10158000410C0CBF52EA430C91EA030F02BF90EAF0
:10159000020F0020704710F1000F91EA030F58BFAF
:1015A000994208BF90422CBFD8176FEAE37040F011
:1015B000010070474FEA410C7FEA6C5C02D150EAAF
:1015C000013C07D14FEA430C7FEA6C5CD6D152EA6A
:1015D000033CD3D05DF8040B704700BF844610462F
:1015E00062468C461946634600E000BF01B5FFF72E
:1015F000B7FF002848BF10F1000F01BD4DF808EDFE
:10160000FFF7F4FF0CBF012000205DF808FB00BFCE
:101610004DF808EDFFF7EAFF34BF012000205DF828
:1016200008FB00BF4DF808EDFFF7E0FF94BF012075
:1016300000205DF808FB00BF4DF808EDFFF7CEFF76
:1016400094BF012000205DF808FB00BF4DF808EDB5
:10165000FFF7C4FF34BF012000205DF808FB00BF86
:101660004FEA410C7FEA6C5C02D150EA013C0AD19E
:101670004FEA430C7FEA6C5C02D152EA033C02D190
:101680004FF0000070474FF0010070474FEA4102F1
:1016900012F5001215D211D56FF47873B3EB6252C4
:1016A00012D94FEAC12343F0004343EA505311F0EB
:1016B000004F23FA02F018BF404270474FF000007D
:1016C000704750EA013005D111F0004008BF6FF0BB
:1016D000004070474FF00000704700BF70B50446EF
:1016E0000E461546002210210E4801F0A7FC0E4AB6
:1016F00000231370547006E0981C16F803C00A4CBF
:1017000004F800C001339D42F6DC6423AA1C06499C
:10171000064803F0ABFC01221021024801F08EFCC8
:10172000002070BD00000258EC090024F40A0024D7
:1017300010B483B0019018E04FF461744FF0E023CF
:101740009A69A4EB04135901891816D44FF0E023C9
:101750009B699A42D4BF002001209942C8BF002053
:101760000028F3D1019B1B1B0193019BABB1019B93
:10177000B3F5617FE0D8019CE0E7094808444FF0E9
:10178000E02399698842ACBF002301238A42A8BFA5
:1017900043F00103002BF2D1E4E703B010BC704723
:1017A0000053070038B505460C46002210211E489C
:1017B00001F044FC1420FFF7BBFF1C4980230B7091
:1017C0004D70642302221A4803F050FC88B9642348
:1017D00001222146164803F0ABFD05461420FFF711
:1017E000A7FF01221021104801F028FCBDB90025F7
:1017F0000EE0012210210C4801F020FC0D4805F0FC
:1018000051FF01200AE0615D0B4805F0E9FE01355A
:10181000002DF8D0094805F045FF207838BD08486C
:1018200005F040FFF9E700BF00000258EC09002472
:10183000F40A0024B0D60008C8D60008D0D60008A4
:10184000D4D60008F8B504460D4616460B4F0022C4
:101850001021384601F0F2FB1420FFF769FF3246F1
:1018600029462046FFF73AFF1420FFF761FF0122C7
:101870001021384601F0E2FBF8BD00BF000002581D
:1018800010B592B018238DF80430012201A9002070
:10189000FFF7D8FF00248DF80840012202A9142088
:1018A000FFF7D0FF8DF80C40012203A91420FFF7A9
:1018B000C9FF10238DF8103001220DEB03013020F9
:1018C000FFF7C0FF8DF81440012205A90D20FFF796
:1018D000B9FF80238DF81830012206A90820FFF7F0
:1018E000B1FF02238DF81C30012207A90520FFF764
:1018F000A9FF1C238DF82030012208A91720FFF72B
:10190000A1FF01228DF8242009A9FF20FFF79AFFEB
:101910000AE018238DF8283001220AA90020FFF7D9
:1019200091FF322000F01AFF47490020FFF73AFFED
:101930001828EED102E0322000F010FF42490120C9
:10194000FFF730FF3228F6D10AE000238DF82C3063
:1019500001220BA91420FFF775FF322000F0FEFED4
:1019600039491420FFF71EFF0028EED10AE01023AA
:101970008DF8303001220CA93020FFF763FF3220B0
:1019800000F0ECFE30493020FFF70CFF1028EED1BC
:101990000AE000238DF8343001220DA90D20FFF755
:1019A00051FF322000F0DAFE27490D20FFF7FAFE42
:1019B0000028EED10AE080238DF8383001220EA9EC
:1019C0000820FFF73FFF322000F0C8FE1E49082024
:1019D000FFF7E8FE8028EED10AE002238DF83C30C4
:1019E00001220FA90520FFF72DFF322000F0B6FEDF
:1019F00015490520FFF7D6FE0228EED10AE01C2388
:101A00008DF84030012210A91720FFF71BFF32206C
:101A100000F0A4FE0C491720FFF7C4FE1C28EED1ED
:101A200009E001228DF8442011A9FF20FFF70AFFE9
:101A3000322000F093FE0449FF20FFF7B3FE002898
:101A4000EFD112B010BD00BFDC09002408B5054B72
:101A50001860054B1868002302221946806805F0BB
:101A600029FE08BDEC0A002410000024022801D839
:101A70000120704708B505F037FD092303600020F9
:101A800008BD000010B5013801280AD814464FF0EF
:101A9000FF3392B20748006805F008FB40B92046C2
:101AA00010BD05F021FD092303604FF0FF30F7E77B
:101AB0000520F5E7EC0A0024022801D80020704731
:101AC00008B505F011FD092303604FF0FF3008BD94
:101AD00008B505F009FD092303604FF0FF3008BD8C
:101AE00008B548B94FF0FF3301220848006805F0F7
:101AF00045FB40B9012008BD05F0F6FC0923036051
:101B00004FF0FF30F7E70520F5E700BFEC0A0024AF
:101B100008B5022804D84FF400534B60002008BDDC
:101B200005F0E2FC09230360F8E7000070B58CB013
:101B300000240794089409940A940B94374BD3F823
:101B4000E02042F08002C3F8E020D3F8E02002F069
:101B500080020192019AD3F8E02042F00102C3F81A
:101B6000E020D3F8E02002F001020292029AD3F8BA
:101B7000E02042F01002C3F8E020D3F8E02002F0A9
:101B800010020392039AD3F8E02042F00802C3F84F
:101B9000E020D3F8E02002F008020492049AD3F87F
:101BA000E02042F00402C3F8E020D3F8E02002F085
:101BB00004020592059AD3F8E02042F00202C3F82D
:101BC000E020D3F8E03003F002030693069B144DA7
:101BD00022461421284601F031FA042307930126F6
:101BE0000896099402230A9307A9284601F012F9DE
:101BF000102307930896099403230A9307A92846FC
:101C000001F008F94FF6FF7307930894099407A9A8
:101C1000044801F0FFF80CB070BD00BF004402584A
:101C200000000258000C025872B6FEE700B59FB0E3
:101C30004C2200210BA805F081FC2022002103A8E2
:101C400005F07CFC022001F0FFF9002300933A4BE1
:101C5000DA6A22F00102DA62DB6A03F00103009320
:101C6000364B9A6942F440429A619B6903F44043BF
:101C70000093009B314B9B6913F4005FFAD0304B0B
:101C8000D3F8F42042F00202C3F8F420D3F8F43081
:101C900003F002030193019B00230293274B9A69EF
:101CA00042F440429A619B6903F440430293224B01
:101CB000DA6A42F00102DA62DB6A03F0010302939E
:101CC000029B1E4B9B6913F4005FFAD003230B9316
:101CD0004FF480330C9301230E9340230F93022380
:101CE000149315931693F0221792189319931A933D
:101CF00008231B9300231C931D930BA801F0CEF91E
:101D0000B0B93F23039303230493002305930823CF
:101D100006934023079308934FF4806209920A9335
:101D2000042103A801F020FE20B91FB05DF804FBD8
:101D3000FFF77AFFFFF778FF0004005800480258C9
:101D40000044025800B5B1B0C0220021684605F039
:101D5000F5FB4FF000420023CDE90023684602F076
:101D60009FF810B931B05DF804FBFFF75DFF00008C
:101D700008B5384B5B6913F4003F13D1BFF34F8FA5
:101D8000BFF36F8F334B0022C3F85022BFF34F8F46
:101D9000BFF36F8F5A6942F400325A61BFF34F8F1D
:101DA000BFF36F8F2B4B5B6913F4803F27D1294B17
:101DB0000022C3F88420BFF34F8FD3F88040C4F3D0
:101DC0004E3000E01846C4F3C90243F6E07303EA5C
:101DD000401343EA82731F49C1F860321346013A47
:101DE000002BF2D1431E0028ECD1BFF34F8F4B697B
:101DF00043F480334B61BFF34F8FBFF36F8F00F01D
:101E00006DFCFFF713FFFFF79DFFFFF78FFE00F05C
:101E10002FF800F07BF900F005FB00F0D3F900F09B
:101E200041FB00F081FB0C48FFF710FE00210B483E
:101E300004F084F900210A4804F080F9FFF720FD3E
:101E4000084B196989B2084B1980084805F0C8FB8E
:101E5000F6E700BF00ED00E0B00C0024CC0B00243E
:101E6000640C0024000C0258F00A0024E8D6000894
:101E700008B51448144B03604FF4800343604FF4DB
:101E8000C02383600723C3600023036143614FF0D5
:101E900080628261C361036243628362C3624FF006
:101EA000804242638363C363036443648364C364A3
:101EB00003654365836503F011F800B908BDFFF7BA
:101EC000B3FEFBE7F40A00240030014070B5BAB05D
:101ED0000446002135913691379138913991C022CD
:101EE00004A805F02BFB2268284B9A4201D03AB097
:101EF00070BD4FF480520023CDE904234FF480439A
:101F00001C9304A801F0CCFF00283CD1204BD3F84F
:101F1000F02042F48052C3F8F020D3F8F02002F40D
:101F200080520192019AD3F8E02042F00102C3F8F6
:101F3000E020D3F8E02002F001020292029AD3F8E6
:101F4000E02042F00202C3F8E020D3F8E03003F0D2
:101F500002030393039B80233593022636960024C5
:101F6000379438940525399535A90A4800F052FF71
:101F700008233593369637943894399535A9064811
:101F800000F048FFB3E7FFF74FFEBFE70030014026
:101F900000440258000002580004025882B0074B67
:101FA000D3F8F42042F00202C3F8F420D3F8F4305E
:101FB00003F002030193019B02B0704700440258F2
:101FC000FEE7FEE7FEE7FEE7FEE770477047704773
:101FD00008B500F0B1FB08BD08B5024804F0D6FA18
:101FE00008BD00BFB00C00240120704708B505F003
:101FF0007BFA162303604FF0FF3008BD08B54FF0A1
:10200000FF31FFF7F3FFFEE710B503460C4A0D4919
:102010000D48006840B10C4800680344521A9342CE
:1020200006D8094A136010BD0748084C0460F2E75F
:1020300005F05AFA0C2303604FF0FF30F3E700BFBE
:1020400000000824000400007C0B0024900D0024F4
:10205000244B1B6803F00F03062B06D8214A136894
:1020600023F00F0343F0070313601F4B1A6842F07D
:1020700001021A6000221A6119681C4A0A401A609B
:10208000184B1B6813F0080F06D0164A136823F08C
:102090000F0343F007031360134B00229A61DA61C8
:1020A0001A62134999621349D962134919635A6331
:1020B0009963DA6319645A64196821F480211960FC
:1020C0001A660E4B1A680E4B1340B3F1005F03D231
:1020D0000C4B0122C3F808210B4B43F2D2021A60C9
:1020E000704700BF00200052004402587FEDF6EA1E
:1020F000000202020000FF01800201010010005CEA
:102100000000FFFF008000510040005200B58DB07C
:1021100000230793089309930A930B930493059361
:10212000069300930193029303932448244A026088
:102130001722426083604FF6FF72C2600361436101
:10214000836103F0EBFC50BB1C4803F047FD48BB28
:102150000423079350230893002309930B9307A9A3
:10216000164803F0B3FF00BB0023049305930693C6
:1021700004A9124804F06EF9D0B90022009201239C
:1021800001930292039269460C4803F089FE90B9CC
:1021900000210A4804F086F80DB05DF804FBFFF753
:1021A00043FDD1E7FFF740FDD2E7FFF73DFDDBE759
:1021B000FFF73AFDE1E7FFF737FDE9E7800B002481
:1021C0000000014000B58DB00023079308930993E8
:1021D0000A930B9304930593069300930193029340
:1021E00003932348234A02600922426083604FF62A
:1021F000FF72C2600361836103F090FC48BB1C481E
:1022000003F0ECFC40BB0423079350230893002306
:1022100009930B9307A9164803F058FFF8B9002358
:102220000493069304A9124804F014F9D0B90022CB
:102230000092012301930292039269460C4803F035
:102240002FFE90B900210A4804F02CF80DB05DF87B
:1022500004FBFFF7E9FCD2E7FFF7E6FCD3E7FFF763
:10226000E3FCDCE7FFF7E0FCE1E7FFF7DDFCE9E793
:10227000180C00240004004000B58BB00023059327
:1022800006930793089309930368284A934205D05D
:10229000274A934227D00BB05DF804FB254BD3F8B7
:1022A000F02042F00102C3F8F020D3F8F02002F051
:1022B00001020192019AD3F8E02042F01002C3F823
:1022C000E020D3F8E03003F010030293029B4FF4B8
:1022D00000730593022306930123099305A9164869
:1022E00000F098FDD7E7134BD3F8E82042F0020244
:1022F000C3F8E820D3F8E82002F002020392039A20
:10230000D3F8E02042F00402C3F8E020D3F8E03034
:1023100003F004030493049B4023059302230693D4
:10232000099305A9054800F075FDB4E700000140D8
:1023300000040040004402580010025800080258EF
:1023400082B00368B3F1804F04D0104A93420FD09B
:1023500002B070470E4BD3F8E82042F00102C3F8F8
:10236000E820D3F8E83003F001030093009BEFE787
:10237000074BD3F8E82042F00402C3F8E820D3F872
:10238000E83003F004030193019BE1E700080040FB
:102390000044025800B589B00023039304930593C9
:1023A000069307930368B3F1804F05D0194A93420F
:1023B00019D009B05DF804FB174BD3F8E02042F0C8
:1023C0000102C3F8E020D3F8E03003F001030193E9
:1023D000019B0123039302220492079303A90F4850
:1023E00000F018FDE5E70C4BD3F8E02042F00202C4
:1023F000C3F8E020D3F8E03003F002030293029B1D
:102400004023039302230493079303A9044800F095
:1024100001FDCEE7000800400044025800000258C9
:102420000004025800B58BB000230793089309936A
:102430000093019302930393049305930693184822
:102440004FF0804202600922426083606322C260D2
:102450000361836103F092FBC8B9002307930993DA
:1024600007A90F4803F0F6FFA0B9602300933223B9
:1024700001930022029204926946094803F028FC65
:1024800058B90748FFF786FF0BB05DF804FBFFF76C
:10249000CBFBE2E7FFF7C8FBE7E7FFF7C5FBF0E799
:1024A000CC0B002400B58BB000230793089309934D
:1024B00000930193029303930493059306931848A2
:1024C000184A02600222426083600122C2600361F6
:1024D000836103F053FBC8B900230793099307A94D
:1024E0000F4803F0B7FFA0B96023009301230193C5
:1024F0000022029204926946094803F0E9FB58B9A8
:102500000748FFF747FF0BB05DF804FBFFF78CFBB4
:10251000E2E7FFF789FBE7E7FFF786FBF0E700BF9D
:10252000640C00240008004008B51748174B0360EE
:102530004FF4E133436000238360C36003610C22E6
:1025400042618361C36103624362836204F006FFF8
:1025500070B900210C4804F07DFF60B900210A48E1
:1025600004F09DFF50B9084804F055FF48B908BD74
:10257000FFF75AFBEDE7FFF757FBEFE7FFF754FBD9
:10258000F1E7FFF751FBF2E7B00C00240010014027
:1025900010B5B8B00446002133913491359136918D
:1025A0003791C02202A804F0C9FF22681F4B9A424B
:1025B00001D038B010BD01220023CDE9022302A8CA
:1025C00001F06EFC78BB1A4BD3F8F02042F01002F9
:1025D000C3F8F020D3F8F02002F010020092009A25
:1025E000D3F8E02042F00102C3F8E020D3F8E03055
:1025F00003F001030193019B4FF4C0633393022363
:1026000034930024359436940723379333A909482B
:1026100000F000FC22462146252000F0CBF82520C2
:1026200000F0FEF8C5E7FFF7FFFACCE70010014025
:102630000044025800000258DFF834D0FFF708FDCC
:102640000C480D490D4A002302E0D458C45004330D
:10265000C4188C42F9D30A4A0A4C002301E01360E3
:102660000432A242FBD304F045FFFFF781FB704721
:102670000000082400000024C00900243CDB0008FE
:10268000C0090024900D0024FEE70000104B1B78C9
:102690000BB90120704710B504464FF47A70B0FBB7
:1026A000F3F30C4A1068B0FBF3F000F0C7F868B918
:1026B0000F2C01D901200AE0002221464FF0FF3003
:1026C00000F078F8044B1C60002000E0012010BDF1
:1026D00008000024000000240C00002410B5032092
:1026E00000F056F801F034F80F498B69C3F3032367
:1026F0000E4AD35C03F01F03D8408B6903F00F032D
:10270000D35C03F01F0320FA03F3094A1360094B5B
:1027100018600F20FFF7BAFF10B10124204610BD4A
:102720000446FFF73BFCF9E700440258F0D60008E6
:102730000400002400000024034B1B78034A1168A6
:102740000B441360704700BF08000024440D0024B0
:10275000014B1868704700BF440D002438B504468B
:10276000FFF7F6FF0546B4F1FF3F02D0044B1B789C
:102770001C44FFF7EDFF401BA042FAD338BD00BF59
:1027800008000024014B1868000C70470010005C22
:102790000649CB6823F4E0631B041B0C000200F421
:1027A000E0600343024A1A43CA60704700ED00E04C
:1027B0000000FA0500B5174BDB68C3F30223C3F131
:1027C000070CBCF1040F28BF4FF0040C03F1040EFA
:1027D000BEF1060F14D9033B4FF0FF3E0EFA0CFC7E
:1027E00021EA0C0199400EFA03F322EA030319438C
:1027F000002807DB0901C9B2074B19545DF804FB37
:102800000023E9E700F00F000901C9B2034B195496
:10281000F4E700BF00ED00E000E400E014ED00E0AC
:10282000002807DB00F01F02400901239340024A01
:1028300042F82030704700BF00E100E00138B0F1FD
:10284000807F0BD24FF0E0235861054AF02182F8D7
:1028500023100020986107221A61704701207047F9
:1028600000ED00E070B50446FFF772FF002C00F0A9
:102870009181054694F83530DBB2022B06D08023D7
:102880006365002384F83430012070BD23688C49CF
:102890008C4A934218BF8B4230D0183293422DD0CD
:1028A000183293422AD01832934227D018329342DA
:1028B00024D01832934221D0183293421ED002F510
:1028C000567293421AD01832934217D0183293425C
:1028D00014D01832934211D0183293420ED01832CD
:1028E00093420BD01832934208D01832934205D04D
:1028F0001A6822F00E021A60266809E01A6822F0AF
:102900001E021A602268536923F08003536126680F
:1029100023686B496B4A934218BF8B4242D01832EE
:1029200093423FD0183293423CD01832934239D070
:102930001832934236D01832934233D01832934231
:1029400030D002F5567293422CD01832934229D0DF
:102950001832934226D01832934223D01832934231
:1029600020D0183293421DD0183293421AD0183218
:10297000934217D0544A934214D01432934211D048
:10298000143293420ED0143293420BD0143293423D
:1029900008D01432934205D01432934202D014323C
:1029A000934204D1226E136823F48073136023686A
:1029B0004349444A934218BF8B422FD01832934266
:1029C0002CD01832934229D01832934226D0183294
:1029D000934223D01832934220D0183293421DD014
:1029E00002F55672934219D01832934216D018321B
:1029F000934213D01832934210D0183293420DD024
:102A0000183293420AD01832934207D018329342B8
:102A100004D01A6822F001021A6003E01A6822F05A
:102A200001021A60336813F0010F0ED0FFF790FE19
:102A3000431B052BF6D920236365032384F8353027
:102A4000002384F8343001201FE723681C491D4A05
:102A5000934218BF8B4239D01832934236D0183285
:102A6000934233D01832934230D0183293422DD053
:102A7000183293422AD01832934227D002F5567268
:102A8000934223D01832934220D0183293421DD063
:102A9000183293421AD01832934217D01832934208
:102AA00014D01832934211D0183293420ED0A16D37
:102AB000E36D03F01F02012393404B600DE000BF64
:102AC000100002402800024008540258A16DE36D36
:102AD00003F01F023F2393408B6023682E492F4A47
:102AE000934218BF8B4242D0183293423FD01832E3
:102AF00093423CD01832934239D01832934236D0A8
:102B00001832934233D01832934230D002F55672C5
:102B100093422CD01832934229D01832934226D0B7
:102B20001832934223D01832934220D01832934265
:102B30001DD0183293421AD01832934217D0184A37
:102B4000934214D01432934211D0143293420ED0D7
:102B5000143293420BD01432934208D01432934271
:102B600005D01432934202D0143293420BD1636EDB
:102B7000A26E5A60E36E33B11A6822F480721A6052
:102B8000236F626F5A60012384F83530002084F887
:102B900034007AE6012078E6100002402800024066
:102BA00008540258002800F0298108B5024690F820
:102BB0003530DBB2022B03D080234365012008BDF2
:102BC0000368904890498B4218BF83420CBF012193
:102BD000002166D03030834263D01830834260D009
:102BE000183083425DD0183083425AD01830834267
:102BF00057D01830834254D000F55670834250D0DD
:102C0000183083424DD0183083424AD01830834266
:102C100047D01830834244D01830834241D0183016
:102C200083423ED0183083423BD0196821F00E0118
:102C300019601368A0F5956073498B4218BF8342F1
:102C40006AD072498B4267D018318B4264D01831F8
:102C50008B4261D018318B425ED018318B425BD0F1
:102C600018318B4258D001F556718B4254D018312F
:102C70008B4251D018318B424ED018318B424BD001
:102C800018318B4248D018318B4245D018318B42D5
:102C900042D018318B423FD0196821F001011960F0
:102CA0003EE0042082F8350081BB584A93422DD083
:102CB000183293422AD01832934227D018329342C6
:102CC00024D01832934221D0183293421ED002F5FC
:102CD000567293421AD01832934217D01832934248
:102CE00014D01832934211D0183293420ED01832B9
:102CF00093420BD01832934208D01832934205D039
:102D00001A6822F001021A60002058E71A6822F0BF
:102D100001021A60002052E7196821F001011960D0
:102D20001368384838498B4218BF834242D0183163
:102D30008B423FD018318B423CD018318B4239D076
:102D400018318B4236D018318B4233D018318B4238
:102D500030D001F556718B422CD018318B4229D0DE
:102D600018318B4226D018318B4223D018318B4238
:102D700020D018318B421DD018318B421AD0183117
:102D80008B4217D022498B4214D014318B4211D080
:102D900014318B420ED014318B420BD014318B4244
:102DA00008D014318B4205D014318B4202D014313B
:102DB0008B4217D1116E0B6823F480730B60906DFA
:102DC000D36D03F01F0101238B404360536E916E5E
:102DD0005960D36E33B1196821F480711960136F93
:102DE000516F5960012382F83530002382F8343066
:102DF000136D2BB1104698470020E0E60120704784
:102E00000020DCE6100002402800024040000240A2
:102E10000854025870B582B000236EE085685E00E9
:102E20000324B44025EA0405CC68B4402C438460F4
:102E3000446824EA0C0C4C68C4F300149C4044EA37
:102E40000C0444606CE0DD08083550F8256003F0A0
:102E500007044FEA840C0F2404FA0CF426EA040E4B
:102E60000C6904FA0CF444EA0E0440F825406FE0C3
:102E7000092400E0002404FA0EF42C430CF1020CA7
:102E80006B4D45F82C404FF0B0442568D44325EAFB
:102E90000206D1F804C01CF4801F01D042EA0506E6
:102EA0004FF0B0452E606D6804EA0506D1F804C005
:102EB0001CF4001F01D042EA05064FF0B0456E60D9
:102EC000D5F8845004EA0506D1F804C01CF4003F8C
:102ED00001D042EA05064FF0B045C5F88460D5F848
:102EE00080502C404E6816F4803F01D042EA050421
:102EF0004FF0B042C2F8804001330A6832FA03F45E
:102F000000F093804FF0010C0CFA03FC1CEA020263
:102F1000F2D04C6804F00304013C012C7FF67EAF34
:102F20004C6804F00304032C0CD0C4685D004FF01F
:102F3000030C0CFA05FC24EA0C0C8C68AC4044EA47
:102F40000C04C4604C6804F00304022C3FF47BAF13
:102F500004684FEA430E4FF0030C0CFA0EFC24EA0F
:102F60000C0C4C6804F0030404FA0EF444EA0C045C
:102F700004604C6814F4403FBED02E4CD4F8F4509A
:102F800045F00205C4F8F450D4F8F44004F002040B
:102F90000194019C4FEA930C0CF10205244C54F867
:102FA000255003F003044FEA840E0F2404FA0EF4B4
:102FB00025EA0405204CA0423FF45CAF04F5806490
:102FC000A04222D004F58064A04220D004F58064A1
:102FD000A0421ED004F58064A0421CD004F5806499
:102FE000A0421AD004F58064A04218D004F5806491
:102FF000A04216D004F58064A04214D004F5806489
:10300000A0423FF435AF0A2435E7012433E7022418
:1030100031E703242FE704242DE705242BE70624BA
:1030200029E7072427E7082425E702B070BD00BF81
:103030000004005800440258000002580AB181619F
:103040007047090481617047134BDB6813F0040F6C
:1030500007D1114BDB6803F0070383421AD001202C
:10306000704710B50C4AD36823F007031843D060AB
:10307000FFF76EFB0446084B5B6813F4005F07D153
:10308000FFF766FB001BB0F57A7FF4D9012000E062
:10309000002010BD0020704700480258002800F0B2
:1030A000398338B50446036813F0010F25D0944ADC
:1030B000136903F03803926A102B15D0182B0FD028
:1030C0006368B3F5803F3FD0002B53D18C4B1A6817
:1030D00022F480321A601A6822F480221A6038E0E2
:1030E00002F00302022AEBD1854B1B6813F4003F68
:1030F00003D06368002B00F00F83236813F0020FE6
:1031000000F0A1807E4A1369926A13F038035AD006
:10311000182B55D0E368002B00F0DE8078490A6850
:1031200022F0190213430B60FFF712FB0546744BA4
:103130001B6813F0040F40F0AD80FFF709FB401B44
:103140000228F4D90320EEE26D4A136843F4803379
:10315000136063682BB3FFF7FBFA0546684B1B68E7
:1031600013F4003FC9D1FFF7F3FA401B6428F5D9E7
:103170000320D8E2B3F5A02F09D0614B1A6822F4DE
:1031800080321A601A6822F480221A60E1E75C4BF0
:103190001A6842F480221A601A6842F480321A6077
:1031A000D7E7FFF7D5FA0546554B1B6813F4003FE8
:1031B000A3D0FFF7CDFA401B6428F5D90320B2E273
:1031C00012F0030FA6D14E4B1B6813F0040F03D06F
:1031D000E368002B00F0A282494A136823F0190328
:1031E000E1680B431360FFF7B3FA0546444B1B68D5
:1031F00013F0040F06D1FFF7ABFA401B0228F5D9F4
:10320000032090E2FFF7BEFA41F20303984212D87E
:103210002269402A07D03A494B6823F47C3343EAB9
:1032200002334B600FE0364A536823F47C3343F497
:103230000033536007E0324A536823F0FE432169AC
:1032400043EA01635360236813F0100F00F0888095
:103250002B4A136903F03803926A082B56D0182BB7
:1032600050D0E369002B00F0B880254A136843F082
:1032700080031360FFF76CFA0546214B1B6813F4BB
:10328000807F40F08880FFF763FA401B0228F4D962
:10329000032048E2FFF776FA41F20303984212D87E
:1032A0002269402A07D016494B6823F47C3343EA4D
:1032B00002334B60C7E7124A536823F47C3343F46C
:1032C00000335360BFE70E4A536823F0FE43216981
:1032D00043EA01635360B6E7094A136823F0010328
:1032E0001360FFF735FA0546054B1B6813F0040F12
:1032F000A9D0FFF72DFA401B0228F5D9032012E2CE
:103300000044025802F00302012AAAD1A14B1B6813
:1033100013F4807F03D0E369802B40F00182FFF734
:1033200031FA41F20303984212D8226A202A07D0C8
:1033300098494B6823F0F84343EA82634B600FE0FF
:10334000944A536823F0F84343F08043536007E006
:10335000904AD36823F07C53216A43EA0163D36027
:10336000236813F0080F60D06369002B49D0894AA5
:10337000536F43F001035367FFF7EAF90546854BA6
:103380005B6F13F0020F50D1FFF7E2F9401B0228E8
:10339000F5D90320C7E1FFF7F5F941F2030398429D
:1033A00012D8226A202A07D07A494B6823F0F843C2
:1033B00043EA82634B60D3E7764A536823F0F843CD
:1033C00043F080435360CBE7724AD36823F07C53C9
:1033D000216A43EA0163D360C2E76E4A136823F0AF
:1033E00080031360FFF7B4F905466A4B1B6813F4BA
:1033F000807FB5D0FFF7ACF9401B0228F5D9032038
:1034000091E1644A536F23F001035367FFF7A0F97A
:103410000546604B5B6F13F0020F06D0FFF798F97B
:10342000401B0228F5D903207DE1236813F0200F0B
:1034300029D0A3699BB1574A136843F480531360A2
:10344000FFF786F90546534B1B6813F4005F1AD14A
:10345000FFF77EF9401B0228F5D9032063E14D4AAE
:10346000136823F480531360FFF772F90546494B44
:103470001B6813F4005F06D0FFF76AF9401B0228AF
:10348000F5D903204FE1236813F0040F21D1636ABB
:10349000002B00F047813F4A126902F03802182AD7
:1034A00000F0EE80022B79D03A4A136823F0807343
:1034B0001360FFF74DF90446364B1B6813F0007F8D
:1034C00000F0DC80FFF744F9001B0228F4D9032048
:1034D00029E1314A136843F480731360FFF738F928
:1034E00005462D4B1B6813F4807F06D1FFF730F99A
:1034F000401B6428F5D9032015E1A368012B0AD0ED
:103500000BBB244B1A6F22F001021A671A6F22F0CC
:1035100004021A6704E01F4A136F43F001031367A4
:10352000A36833B3FFF714F905461A4B1B6F13F06A
:10353000020FACD1FFF70CF9401B41F288339842DF
:10354000F3D90320EFE0052B09D0124B1A6F22F0BC
:1035500001021A671A6F22F004021A67E0E70D4BA6
:103560001A6F42F004021A671A6F42F001021A67DA
:10357000D6E7FFF7EDF80546064B1B6F13F0020F79
:1035800085D0FFF7E5F8401B41F288339842F3D924
:103590000320C8E00044025800480258694A1368F2
:1035A00023F080731360FFF7D3F80546654B1B6863
:1035B00013F0007F06D0FFF7CBF8401B0228F5D9A7
:1035C0000320B0E05F4B996A5F4A0A40A16AE06A53
:1035D00041EA00110A439A62226B013AC2F30802DF
:1035E000616B0139490289B20A43A16B01390904AF
:1035F00001F4FE010A43E16B0139090601F0FE41C5
:103600000A431A63DA6A22F00102DA62596B4F4AFE
:103610000A40A16C42EAC1025A63DA6A22F00C0243
:10362000216C0A43DA62DA6A22F00202616C0A4310
:10363000DA62DA6A42F48032DA62DA6A42F400323A
:10364000DA62DA6A42F48022DA62DA6A42F001026D
:10365000DA621A6842F080721A60FFF779F804465D
:10366000384B1B6813F0007F06D1FFF771F8001B81
:103670000228F5D9032056E0002054E0002052E053
:10368000304A916A106B012B4ED001F00303A26AFD
:1036900093424BD1C1F30511E36A994248D1C0F37B
:1036A0000802236B013B9A4244D1C0F34622636B6C
:1036B000013B9A4240D1C0F30642A36B013B9A42C0
:1036C0003CD1C0F30660E36B013B984238D11D4BFF
:1036D0005B6BC3F3CC03A26C9A4201D1002022E0C1
:1036E000184AD36A23F00103D362FFF731F8054685
:1036F000FFF72EF8A842FBD0124A516B134B0B4038
:10370000A16C43EAC1035363D36A43F00103D3625C
:10371000002008E001207047012004E0012002E0C1
:10372000012000E0002038BD0120FCE70120FAE77D
:103730000120F8E70120F6E70120F4E70120F2E795
:103740000120F0E7004402580CFCFFFF0700FFFFD8
:10375000F8B57E4B1B6903F03803102B00F0F280A4
:10376000182B10D013B17A4C2046F8BD774B1B684C
:1037700013F0200F00F0E880744B1868C0F3C1000C
:10378000744CC440F0E7714B9D6A05F003059C6AD8
:10379000C4F30514D86A00F001005B6BC3F3CC03DB
:1037A00003FB00F0FCF762FE0646002CDCD0012D86
:1037B00076D0022D00F0A4800DB32046FCF756FE13
:1037C00001466548FCF75EFF0446604B186BC0F38A
:1037D0000800FCF74BFE05464FF064513046FCF7FD
:1037E0009DFE01462846FCF791FD4FF07E51FCF707
:1037F0008DFD01462046FCF791FE044671E0534BD7
:103800001B6813F0200F29D0504F3B68C3F3C1034E
:103810005048D840FCF72AFE05462046FCF726FE15
:1038200001462846FCF72EFF0446386BC0F308001B
:10383000FCF71CFE05464FF064513046FCF76EFE67
:1038400001462846FCF762FD4FF07E51FCF75EFD15
:1038500001462046FCF762FE044642E02046FCF7A3
:1038600005FE01463D48FCF70DFF0446374B186B3B
:10387000C0F30800FCF7FAFD05464FF064513046EE
:10388000FCF74CFE01462846FCF740FD4FF07E5108
:10389000FCF73CFD01462046FCF740FE044620E0D4
:1038A0002046FCF7E3FD01462B48FCF7EBFE0446FF
:1038B000264B186BC0F30800FCF7D8FD05464FF007
:1038C00064513046FCF72AFE01462846FCF71EFDEF
:1038D0004FF07E51FCF71AFD01462046FCF71EFE14
:1038E00004461A4B1B6BC3F34623581CFCF7BEFD62
:1038F00001462046FCF7C6FEFCF760FF044633E7AE
:103900002046FCF7B3FD01461548FCF7BBFE044614
:103910000E4B186BC0F30800FCF7A8FD05464FF0EE
:1039200064513046FCF7FAFD01462846FCF7EEFCF0
:103930004FF07E51FCF7EAFC01462046FCF7EEFD15
:103940000446CEE7074C0FE7024C0DE7004402584F
:1039500000093D000090D0030024744A0024744CF8
:103960000024F44A00127A00002800F0328170B579
:103970000D4604469B4B1B6803F00F038B420BD292
:10398000984A136823F00F030B431360136803F086
:103990000F038B4240F01F81236813F0040F0CD0FB
:1039A0002269914B9B6903F070039A4205D98E49B5
:1039B0008B6923F070031A438A61236813F0080FA0
:1039C0000CD06269884BDB6903F070039A4205D919
:1039D0008549CB6923F070031A43CA61236813F049
:1039E000100F0CD0A269804BDB6903F4E0639A42AC
:1039F00005D97D49CB6923F4E0631A43CA61236882
:103A000013F0200F0CD0E269774B1B6A03F07003B0
:103A10009A4205D974490B6A23F070031A430A626B
:103A2000236813F0020F0CD0E2686F4B9B6903F020
:103A30000F039A4205D96C498B6923F00F031A438F
:103A40008A61236813F0010F41D0674A936923F418
:103A50007063A1680B4393616368022B0AD0032B48
:103A600027D0012B2CD0604A126812F0040F06D127
:103A70000120ADE0126812F4003F00F0AE805A4918
:103A80000A6922F0070213430B61FEF761FE064646
:103A9000554B1B6903F038036268B3EBC20F16D0B5
:103AA000FEF756FE801B41F288339842F0D903207E
:103AB0008EE04D4A126812F0007FE0D1012087E0CD
:103AC000494A126812F4807FD9D1012080E023682E
:103AD00013F0020F0CD0E268434B9B6903F00F0315
:103AE0009A4205D240498B6923F00F031A438A6139
:103AF0003C4B1B6803F00F03AB420AD9394A1368E9
:103B000023F00F032B431360136803F00F03AB4242
:103B100065D1236813F0040F0CD02269324B9B69E6
:103B200003F070039A4205D22F498B6923F070038A
:103B30001A438A61236813F0080F0CD062692A4B7C
:103B4000DB6903F070039A4205D22749CB6923F061
:103B500070031A43CA61236813F0100F0CD0A269D6
:103B6000214BDB6903F4E0639A4205D21E49CB691D
:103B700023F4E0631A43CA61236813F0200F0CD0CA
:103B8000E269194B1B6A03F070039A4205D2164989
:103B90000B6A23F070031A430A62FFF7D9FD12493A
:103BA0008B69C3F30323114AD35C03F01F03D8408E
:103BB0008B6903F00F03D35C03F01F0320FA03F3B8
:103BC0000B4A13600B4B18600B4B1868FEF75EFD39
:103BD00070BD012070470120FAE70120F8E70120BD
:103BE000F6E700BF0020005200440258F0D600085B
:103BF00004000024000000240C00002408B5FFF796
:103C0000A7FD0B4A9369C3F303230A49CB5C03F076
:103C10001F0320FA03F3926902F00F02885C00F0A0
:103C20001F0023FA00F0044A1060044A136008BD24
:103C300000440258F0D600080400002400000024CC
:103C400008B5FFF7DBFF054BDB69C3F30213044A3A
:103C5000D35C03F01F03D84008BD00BF00440258E6
:103C6000F0D6000808B5FFF7C9FF054BDB69C3F3C1
:103C70000223044AD35C03F01F03D84008BD00BFF1
:103C800000440258F0D60008404B9B6A03F003033F
:103C9000032B79D070B505460E463C4A136823F0D5
:103CA00080631360FEF754FD0446384B1B6813F025
:103CB000006F06D0FEF74CFD031B022BF5D9032045
:103CC00070BD324B9A6A22F47C32296842EA013292
:103CD0009A626A68013AC2F30802A9680139490286
:103CE00089B20A43E9680139090401F4FE010A4373
:103CF00029690139090601F0FE410A439A63DA6A2B
:103D000022F0C00269690A43DA62DA6A22F020020C
:103D1000A9690A43DA62DA6A22F01002DA62D96B20
:103D20001B4A0A40E96942EAC102DA63DA6A42F0F0
:103D30001002DA62C6B91A46DB6A43F40023D36282
:103D4000124A136843F080631360FEF701FD0446D6
:103D50000E4B1B6813F0006F14D1FEF7F9FC001B2B
:103D60000228F5D90320ABE7012E05D0074AD36A14
:103D700043F40013D362E3E7044AD36A43F48013A5
:103D8000D362DDE700209BE7012070470044025822
:103D90000700FFFF404B9B6A03F00303032B79D01E
:103DA00070B505460E463C4A136823F080531360F5
:103DB000FEF7CEFC0446384B1B6813F0005F06D0BC
:103DC000FEF7C6FC031B022BF5D9032070BD324B56
:103DD0009A6A22F07C72296842EA01529A626A6801
:103DE000013AC2F30802A9680139490289B20A43BB
:103DF000E9680139090401F4FE010A43296901391E
:103E0000090601F0FE410A431A64DA6A22F44062AC
:103E100069690A43DA62DA6A22F40072A9690A431C
:103E2000DA62DA6A22F48072DA62596C1B4A0A405A
:103E3000E96942EAC1025A64DA6A42F48072DA62DB
:103E4000C6B91A46DB6A43F48003D362124A136888
:103E500043F080531360FEF77BFC04460E4B1B6857
:103E600013F0005F14D1FEF773FC001B0228F5D994
:103E70000320ABE7012E05D0074AD36A43F08073D5
:103E8000D362E3E7044AD36A43F40003D362DDE775
:103E900000209BE701207047004402580700FFFF05
:103EA000F8B50446036813F0006F30D0836EB3F5A5
:103EB000001F26D00ED8EBB1B3F5801F07D1022129
:103EC0000830FFF7E1FE054645B12E4621E0012608
:103ED00035461EE0B3F5401F09D10025984A136D01
:103EE00023F44013A16E0B431365002611E0012655
:103EF00035460EE0924AD36A43F40033D36200257C
:103F0000ECE702212830FFF745FF0546DCE70026F5
:103F10003546236813F4807F14D0A36D042B32D868
:103F2000DFE803F003232A080800854AD36A43F434
:103F30000033D36255BB824A136D23F00703A16D92
:103F40000B431365236813F4007F31D0E36D802B9E
:103F50004CD020D8002B43D0402B19D1002104F1A4
:103F60000800FFF791FE05461AE0002104F1080061
:103F7000FFF78AFE0546DDE7002104F12800FFF780
:103F800009FF0546D6E701263546DBE72E46D9E789
:103F9000012635460CE0C02B02D0B3F5807F1CD142
:103FA0005DBB674A136D23F4E073E16D0B4313654A
:103FB000236813F4806F46D0D4F8A830B3F5800F8F
:103FC00039D01FD88BB3B3F5001F18D1002104F1ED
:103FD0000800FFF759FE05461AE001263546E7E7D7
:103FE000574AD36A43F40033D362D9E7002104F17E
:103FF0002800FFF7CFFE0546D2E72E46D8E7012678
:10400000354620E0B3F5C00F02D0B3F5000F09D15B
:10401000C5B94B4A936D23F46003D4F8A8100B4341
:10402000936510E0012635460DE0454AD36A43F416
:104030000033D362ECE7002104F12800FFF7AAFE69
:104040000546E5E72E46236813F4006F24D0D4F824
:10405000AC30B3F1007F42D00ED8002B39D0B3F191
:10406000807F06D1002104F10800FFF70DFE054610
:1040700008E0012635460FE0B3F1407F02D0B3F1EE
:10408000806F23D1002D31D12D4A936D23F0E06351
:10409000D4F8AC100B439365236813F0007F2ED047
:1040A000E36C202B40D026D833B1102B20D1244AEA
:1040B000D36A43F40033D362002D3CD1204AD36C41
:1040C00023F03003E16C0B43D36418E0012635463E
:1040D000E2E71B4AD36A43F40033D362D2E70021FC
:1040E00004F12800FFF756FE0546CBE72E46D3E73E
:1040F0000126354603E0302BDED001263546236805
:1041000013F4805F2DD0236EB3F5005F4FD019D824
:10411000002B46D0B3F5805F0FD1002104F10800D9
:10412000FFF7B2FD054613E0022104F10800FFF796
:10413000ABFD0546C0E72E46E1E70126354610E017
:1041400000440258B3F5405F02D0B3F5804F25D14B
:10415000002D33D1774A136D23F4E043216E0B43D6
:104160001365236813F4005F38D0636EB3F5003F26
:1041700053D028D843B1B3F5803F21D1012104F1B8
:104180000800FFF781FD0546002D4DD1694A136DEA
:1041900023F4E023616E0B4313651FE001263546CF
:1041A000DFE7644AD36A43F40033D362D0E70021E7
:1041B00004F12800FFF7EEFD0546C9E72E46D0E7DB
:1041C000012635460AE0B3F5802FDDD0B3F5A02FE8
:1041D000DAD0B3F5403FD7D001263546236813F433
:1041E000804F31D0D4F8B030B3F1005F45D020D843
:1041F00043B1B3F1805F19D1012104F10800FFF749
:1042000043FD0546002D3FD14A4A936D23F0E0431C
:10421000D4F8B0100B43936516E0012104F1280097
:10422000FFF7B8FD0546AFE72E46D7E7012635462E
:104230000AE0B3F1804FE5D0B3F1A04FE2D0B3F183
:10424000405FDFD001263546236813F4004F09D0C4
:10425000236FB3F1805F19D0B3F1005F24D0D3B1E5
:1042600001263546236813F0807F33D0A36C032BDF
:104270005BD8DFE803F027225327012104F128004F
:10428000FFF788FD0546BDE72E46DDE7294AD36ADC
:1042900043F40033D36275B9264A136D23F04053BB
:1042A000216F0B431365DDE7012104F10800FFF7DF
:1042B000EBFC0546EFE72E46D4E71E4AD36A43F4EB
:1042C0000033D362A5BB1B4AD36C23F00303A16C5C
:1042D0000B43D364236813F4800F2DD1236813F0AC
:1042E000010F00F0A580E36F282B00F29F80DFE82C
:1042F00003F08D9D9D9D9D9D9D9D879D9D9D9D9D5B
:104300009D9D969D9D9D9D9D9D9D8D9D9D9D9D9DF4
:104310009D9D8D9D9D9D9D9D9D9D8D00022104F1E6
:104320000800FFF7B1FC0546CCE701263546D1E78A
:104330002E46CFE700440258914A136843F4807335
:104340001360FEF705FA07468D4B1B6813F4807F58
:1043500005D1FEF7FDF9C01B6428F5D90325002D12
:104360004AD1884B1B6FD4F8B420534013F4407FDC
:104370000CD0844B1A6F22F44072196F41F48031D3
:104380001967196F21F4803119671A67D4F8B430AE
:10439000B3F5807F15D08DBBD4F8B43003F44072F0
:1043A000B2F5407F1ED0774A136923F47C53136122
:1043B00074490B6FD4F8B420C2F30B0213430B679C
:1043C0008CE7FEF7C5F907466E4B1B6F13F0020F23
:1043D000E1D1FEF7BDF9C01B41F288339842F3D911
:1043E0000325D8E76748026922F47C52664901EA4E
:1043F000131313430361DBE72E466FE72E466DE789
:10440000012104F10800FFF73FFC0546E5B95D4ACC
:10441000536D23F03803E16F0B43536508E001212E
:1044200004F12800FFF7B6FC0546EFE70126354604
:10443000236813F0020F17D0A36F052B28D8DFE8ED
:1044400003F00B05200B0B0B2E46F1E7012104F1C5
:104450000800FFF719FC0546EDB94A4A536D23F0F1
:104460000703A16F0B435365236813F0040F23D098
:10447000D4F89430052B45D8DFE803F0150F3D152F
:104480001515012104F12800FFF784FC0546E3E738
:1044900001263546E8E72E46E6E7012104F108004B
:1044A000FFF7F2FB054685BB364A936D23F0070301
:1044B000D4F894100B439365236813F0200F34D085
:1044C000D4F89030B3F1005F4ED023D843B1B3F1AC
:1044D000805F1CD1002104F10800FFF7D5FB0546E1
:1044E000002D48D1274A536D23F0E043D4F89010B3
:1044F0000B43536519E0012104F12800FFF74AFC42
:104500000546D0E701263546D6E72E46D4E70126F4
:1045100035460AE0B3F1804FE2D0B3F1A04FDFD0CF
:10452000B3F1405FDCD001263546236813F0400F1D
:1045300037D0D4F89C30B3F5006F53D026D843B1B0
:10454000B3F5806F19D1002104F10800FFF79CFB3F
:104550000546002D4DD10B4A936D23F4E053D4F85A
:104560009C100B4393651CE0022104F12800FFF727
:1045700011FC0546B4E72E46D7E70126354610E084
:104580000048025800440258CFFFFF00B3F5805F97
:10459000DFD0B3F5A05FDCD0B3F5406FD9D00126F2
:1045A0003546236813F0800F33D0D4F8A030B3F52C
:1045B000804F00F0A38021D843B1B3F5005F1AD13A
:1045C000002104F10800FFF75FFB0546002D40F0D5
:1045D0009C80814A936D23F46043D4F8A0100B4370
:1045E000936516E0022104F12800FFF7D3FB05468E
:1045F000AFE72E46D5E7012635460AE0B3F5004F72
:10460000E4D0B3F5204FE1D0B3F5C04FDED00126A2
:104610003546236813F0080F0CD0D4F88430B3F576
:10462000805F74D06C4A536D23F44053D4F88410E7
:104630000B435365236813F0100F0CD0D4F8983057
:10464000B3F5807F6CD0644A936D23F44073D4F843
:1046500098100B439365236813F4002F0BD0D4F804
:10466000A430B3F5803F74D0B3F5003F67D0002B82
:104670005FD001263546236813F4802F0CD0D4F880
:104680008830B3F5001F7CD0B3F5401F6FD0B3F571
:10469000801F67D001263546236813F4803F08D079
:1046A000236D002B76D0B3F5803F00F0818001268A
:1046B0003546236813F0005F40F08380236813F4CD
:1046C000003F00F08E80D4F88030B3F5807F00F09A
:1046D000EC8040F28380B3F5007F03D0B3F5407FD8
:1046E00040F0E180002D40F0E6803B4A536D23F41A
:1046F0004073D4F880100B43536572E0022104F13B
:104700002800FFF747FB054660E72E4681E70221B8
:1047100004F12800FFF73EFB002883D0012681E743
:10472000022104F12800FFF735FB00288BD0012679
:1047300089E7002104F10800FFF7A6FA05467DB9D4
:10474000254A936D23F44033D4F8A4100B439365AA
:1047500091E7022104F12800FFF71CFB0546EEE774
:104760002E4688E71C4AD36A43F40033D3627DB9EE
:10477000194A536D23F44013D4F888100B43536542
:104780008AE7012104F12800FFF704FB0546EEE764
:104790002E4681E7104AD36A43F40033D36275B9D9
:1047A0000D4AD36C23F48033216D0B43D36480E72F
:1047B000022104F10800FFF767FA0546EFE72E46ED
:1047C00077E7022104F12800FFF7E4FA00283FF41C
:1047D00075AF012672E700BF00440258002B81D05C
:1047E0000126236813F4801F06D04F4A136D23F06F
:1047F0000043616F0B431365236813F0805F07D09C
:10480000494A136923F48043D4F8B8100B43136169
:10481000236813F4001F06D0434A136D23F08073FE
:10482000E16E0B431365236813F0804F09D03E4BB4
:104830001A6922F400421A611A69D4F8BC100A43BA
:104840001A612368002B06DA374AD36C23F04053F1
:10485000616D0B43D364236813F4000F07D0324A11
:10486000536D23F44003D4F88C100B4353656368F5
:1048700013F0010F21D1636813F0020F26D1636892
:1048800013F0040F2BD1636813F0080F30D1636865
:1048900013F0100F35D1636813F0200F3AD106B131
:1048A00001263046F8BD01269BE71F4AD36A43F430
:1048B0000033D36216E72E4693E7002104F1080087
:1048C000FFF7E2F90028D6D00646D4E7012104F12B
:1048D0000800FFF7D9F90028D1D00646CFE702211A
:1048E00004F10800FFF7D0F90028CCD00646CAE74B
:1048F000002104F12800FFF74DFA0028C7D0064632
:10490000C5E7012104F12800FFF744FA0028C2D0CE
:104910000646C0E7022104F12800FFF73BFA002811
:10492000BDD00646BBE700BF0044025808B5FFF7FC
:1049300065F9054B1B6AC3F30213044AD35C03F009
:104940001F03D84008BD00BF00440258F0D600083D
:104950002DE9F0410446864B9D6A9E6AC6F30536F2
:10496000D86AC0F30010DB6BC3F3CC0303FB00F089
:10497000FBF77CFD002E00F0F58005F003050746EF
:10498000012D79D0022D00F0CB800DB33046FBF71E
:104990006DFD01467748FBF775FE0546744B986B35
:1049A000C0F30800FBF762FD06464FF0645138463D
:1049B000FBF7B4FD01463046FBF7A8FC4FF07E51F3
:1049C000FBF7A4FC01462846FBF7A8FD054674E06A
:1049D000674B1B6813F0200F2CD0DFF89481D8F8B8
:1049E0000030C3F3C1036448D840FBF73FFD0546E0
:1049F0003046FBF73BFD01462846FBF743FE0546E4
:104A0000D8F83800C0F30800FBF730FD06464FF039
:104A100064513846FBF782FD01463046FBF776FCD1
:104A20004FF07E51FBF772FC01462846FBF776FDFE
:104A3000054642E03046FBF719FD01464F48FBF7BB
:104A400021FE05464A4B986BC0F30800FBF70EFDAC
:104A500006464FF064513846FBF760FD014630468C
:104A6000FBF754FC4FF07E51FBF750FC0146284603
:104A7000FBF754FD054620E03046FBF7F7FC014606
:104A80003C48FBF7FFFD0546394B986BC0F3080027
:104A9000FBF7ECFC06464FF064513846FBF73EFD51
:104AA00001463046FBF732FC4FF07E51FBF72EFCFF
:104AB00001462846FBF732FD05462D4EB06BC0F38C
:104AC0004620FBF7D3FC4FF07E51FBF71FFC01465D
:104AD0002846FBF7D7FDFBF771FE2060B06BC0F3F3
:104AE0000640FBF7C3FC4FF07E51FBF70FFC01467D
:104AF0002846FBF7C7FDFBF761FE6060B06BC0F3B3
:104B00000660FBF7B3FC4FF07E51FBF7FFFB01465D
:104B10002846FBF7B7FDFBF751FEA060BDE8F0812A
:104B20003046FBF7A3FC01461548FBF7ABFD0546F5
:104B30000F4B986BC0F30800FBF798FC06464FF04C
:104B400064513846FBF7EAFC01463046FBF7DEFBD2
:104B50004FF07E51FBF7DAFB01462846FBF7DEFCFF
:104B60000546AAE7002323606360A360D6E700BF81
:104B7000004402580024744A0090D0030024744C6E
:104B80000024F44A2DE9F0410446864B9D6A9E6A52
:104B9000C6F30556D86AC0F300205B6CC3F3CC03A0
:104BA00003FB00F0FBF762FC002E00F0F58005F03F
:104BB00003050746012D79D0022D00F0CB800DB3FF
:104BC0003046FBF753FC01467748FBF75BFD054693
:104BD000744B186CC0F30800FBF748FC06464FF016
:104BE00064513846FBF79AFC01463046FBF78EFBD2
:104BF0004FF07E51FBF78AFB01462846FBF78EFCFF
:104C0000054674E0674B1B6813F0200F2CD0DFF8CB
:104C10009481D8F80030C3F3C1036448D840FBF74F
:104C200025FC05463046FBF721FC01462846FBF7EC
:104C300029FD0546D8F84000C0F30800FBF716FC34
:104C400006464FF064513846FBF768FC0146304693
:104C5000FBF75CFB4FF07E51FBF758FB0146284603
:104C6000FBF75CFC054642E03046FBF7FFFB0146E4
:104C70004F48FBF707FD05464A4B186CC0F3080088
:104C8000FBF7F4FB06464FF064513846FBF746FC51
:104C900001463046FBF73AFB4FF07E51FBF736FBFF
:104CA00001462846FBF73AFC054620E03046FBF774
:104CB000DDFB01463C48FBF7E5FC0546394B186C2B
:104CC000C0F30800FBF7D2FB06464FF064513846AC
:104CD000FBF724FC01463046FBF718FB4FF07E51F2
:104CE000FBF714FB01462846FBF718FC05462D4E42
:104CF000306CC0F34620FBF7B9FB4FF07E51FBF759
:104D000005FB01462846FBF7BDFCFBF757FD20607D
:104D1000306CC0F30640FBF7A9FB4FF07E51FBF768
:104D2000F5FA01462846FBF7ADFCFBF747FD60604E
:104D3000306CC0F30660FBF799FB4FF07E51FBF738
:104D4000E5FA01462846FBF79DFCFBF737FDA0601E
:104D5000BDE8F0813046FBF789FB01461548FBF7BB
:104D600091FC05460F4B186CC0F30800FBF77EFB67
:104D700006464FF064513846FBF7D0FB01463046FB
:104D8000FBF7C4FA4FF07E51FBF7C0FA0146284604
:104D9000FBF7C4FB0546AAE7002323606360A3601A
:104DA000D6E700BF004402580024744A0090D003A4
:104DB0000024744C0024F44A10B4026853699169C9
:104DC00041F00801916101688A6942F010028A612C
:104DD00001680A6822F001020A6001680C69284A29
:104DE00022400A6101688A6822F440428A6090F891
:104DF0008120D2B2042A0DD013F0200F0AD0D0F8AF
:104E0000842042F08002C0F8842001688A6942F060
:104E100020028A6190F88120D2B2032A0DD013F0CB
:104E2000400F0AD0D0F8842042F00402C0F8842059
:104E300001688A6942F040028A6113F4007F0AD057
:104E4000D0F8842042F00102C0F8842001688A6909
:104E500042F400728A6113F4807F0AD0D0F8843063
:104E600043F00803C0F884300268936943F4807308
:104E700093610023A0F86230A0F86A3010BC70473C
:104E800090FCFFFFC36B5B09C0680830C00803FBE0
:104E9000000070472DE9F04107460E4615461C46B6
:104EA000DDF8188000E0B4B13B685B6936EA0303C3
:104EB0000CBF01230023AB420AD1FDF749FCA0EB54
:104EC0000800A042EFD3B4F1FF3FECD0032000E094
:104ED0000020BDE8F0810320FBE70000002800F07F
:104EE000B78070B504460023836205685C4B5D4E55
:104EF0009D4218BFB54214BF0126002607D0A3F576
:104F000074439D4203D0C3680F2B00F2A380204658
:104F1000FFF7B8FF2EB1544B9D4202D0082800F293
:104F20009B804F4A4F4B9D4218BF954203D003F5DB
:104F300080639D4202D1102800F2908094F8813065
:104F4000F3B1022384F881302268136823F001034F
:104F5000136021688A6802F4F812A369B3F1806FC4
:104F600014D0636813F4800F23D0E368062B20D994
:104F700021680B6823F48073206D03430B601DE0F0
:104F800084F880302046FCF7A1FFDAE76368B3F5C8
:104F9000800F06D0002BE4D1A36BB3F1805FE0D18A
:104FA00002E0A06B0028F5D10B6843F480530B603E
:104FB000D7E721680B6823F480730B60E369A16A6B
:104FC0000B431343E26B1343E16822680B43936086
:104FD000636B626A1343A26B1343A2691343226992
:104FE000134362691343226A134362681343E26CFA
:104FF0001343A2681343A26C1343A16D22680B43B1
:10500000D36063686BB92268936823F4C05343F498
:10501000006393602268936823F4C06343F4806361
:1050200093602268136D23F001031365636813F422
:10503000800F06D02268D36823F00043616D0B43D4
:10504000D3600020C4F88400012384F8813070BD4F
:10505000012070470120FAE70120F8E70120F6E778
:105060000030014000380040003C00402DE9F0478E
:1050700082B004468A4691461D46D0F80080FDF76E
:1050800067FB94F88160F6B2012E40F04881074634
:10509000B9F1000F18BFBAF1000F00F0418194F888
:1050A0008030012B00F04081012384F880300323FD
:1050B00084F881300023C4F88430C4F85CA0A4F8DC
:1050C0006090A4F862906366A4F86830A4F86A302F
:1050D00063672367A368B3F5C02F1CD02268D36829
:1050E00023F4C02343F40033D360236859688F4A04
:1050F0000A4049EA02025A602268136843F0010339
:1051000013606368B3F5800F0BD0E3680F2B1BD8D7
:10511000072B4DD8ACE02268136843F4006313609A
:10512000E3E72268136843F400731360EDE7E26D70
:1051300012681A62E36D0433E365B4F8622092B238
:10514000013A92B2A4F86220B4F862309BB2002B0C
:1051500000F0C98023685A6912F0020FE7D1FDF709
:10516000F7FAC01BA84202D3B5F1FF3F01D1002DD1
:10517000EAD12046FFF720FED4F8843043F4807350
:10518000C4F88430012384F88130002384F880300F
:105190000326C5E0E36D1B88A8F82030E36D0233D9
:1051A000E365B4F862309BB2013B9BB2A4F8623075
:1051B000B4F862309BB2002B00F0958022685369EE
:1051C00013F0020F15D0B4F862309BB2012BE1D975
:1051D000E36B002BDED0E36D1B681362E36D0433D9
:1051E000E365B4F862309BB2023B9BB2A4F8623034
:1051F000DEE7FDF7ADFAC01BA84202D3B5F1FF3FD1
:1052000001D1002DD4D12046FFF7D6FDD4F884304B
:1052100043F48073C4F88430012384F88130002380
:1052200084F8803003267BE0B4F862309BB2012B17
:1052300010D9E36B73B1E36D1B88A8F82030E36DE0
:105240000233E365B4F862309BB2023B9BB2A4F830
:1052500062300DE0E36D1B7882F82030E36D01339E
:10526000E365B4F862309BB2013B9BB2A4F86230B4
:10527000B4F862309BB2002B35D02268536913F02A
:10528000020F15D0B4F862309BB2032BCCD9E36B7C
:10529000402BC9D9E36D1B681362E36D0433E365EA
:1052A000B4F862309BB2043B9BB2A4F86230DFE7F3
:1052B000FDF74EFAC01BA84202D3B5F1FF3F01D162
:1052C000002DD5D12046FFF777FDD4F8843043F484
:1052D0008073C4F88430012384F88130002384F87B
:1052E000803003261CE000972B4600220821204630
:1052F000FFF7D0FD28B1D4F8843043F02003C4F880
:1053000084302046FFF758FD012384F881300023C4
:1053100084F88030D4F8843013B9002600E00226E7
:10532000304602B0BDE8F0870226F9E70000FFFF33
:105330002DE9F84F04468B4692461E46C56BC5F3D1
:105340004F15D0F80090FDF703FA94F88170FFB282
:10535000012F40F08F810135ADB28046BAF1000FC8
:1053600018BFBBF1000F00F0868194F88030012B4C
:1053700000F08481012384F88030042384F8813094
:105380000023C4F88430C4F864B0A4F868A0A4F87A
:105390006AA0E365A4F86030A4F86230236763670D
:1053A000A368B3F5C02F1DD02268D36823F4C023AF
:1053B00043F48023D36023685968A64A0A404AEA26
:1053C00002025A602268136843F0010313606368A5
:1053D000B3F5800F0CD0E3680F2B2FD8072B00F20A
:1053E00096800DE12268136823F400631360E2E7FE
:1053F0002268136843F400731360ECE7B4F86A2082
:1054000092B2AA4210D211F4004F0DD0626E1B6B03
:105410001360636E04336366B4F86A309BB2013B79
:105420009BB2A4F86A3009E0FDF792F9A0EB0800FE
:10543000B04202D3B6F1FF3F1AD1CEB1B4F86A2020
:1054400092B2002A00F00881236859695A6912F063
:10545000010FD3D0626E1B6B1360636E04336366FF
:10546000B4F86A2092B2013A92B2A4F86A20E5E751
:105470002046FFF7A1FCD4F8843043F48073C4F8CD
:105480008430012384F88130002384F8803003279E
:10549000F1E0B4F86A309BB2AB4217D212F4004F7D
:1054A00014D0636EB9F830201A80636E9A1C62665D
:1054B000B9F830205A80636E02336366B4F86A30FC
:1054C0009BB2023B9BB2A4F86A3020E0B4F86A3089
:1054D0009BB2012B11D112F4005F0ED0636EB9F8AC
:1054E00030201A80636E02336366B4F86A309BB270
:1054F000013B9BB2A4F86A3009E0FDF729F9A0EB63
:105500000800B04202D3B6F1FF3F1BD1D6B1B4F8C8
:105510006A309BB2002B00F09F8023685A695B6958
:1055200013F0010FB5D0636EB9F830201A80636EA6
:1055300002336366B4F86A309BB2013B9BB2A4F8B5
:105540006A30E4E72046FFF737FCD4F8843043F4B0
:105550008073C4F88430012384F88130002384F8F8
:105560008030032787E0B4F86A2092B2AA4226D29C
:1055700011F4004F23D0626E93F830301370636ED5
:105580005A1C6266226892F830205A70636E5A1C68
:105590006266226892F830205A70636E5A1C626606
:1055A000226892F830205A70636E01336366B4F853
:1055B0006A309BB2043B9BB2A4F86A3020E0B4F896
:1055C0006A2092B2032A11D811F4C04F0ED0626E35
:1055D00093F830301370636E01336366B4F86A3049
:1055E0009BB2013B9BB2A4F86A3009E0FDF7B0F82A
:1055F000A0EB0800B04202D3B6F1FF3F19D1C6B10B
:10560000B4F86A309BB23BB3236859695A6912F007
:10561000010FA8D0626E93F830301370636E0133BF
:105620006366B4F86A309BB2013B9BB2A4F86A305F
:10563000E6E72046FFF7C0FBD4F8843043F48073DC
:10564000C4F88430012384F88130002384F880304A
:10565000032710E00000FFFF2046FFF7ADFB01230A
:1056600084F88130002384F88030D4F8843013B972
:10567000002700E002273846BDE8F88F0227FAE746
:10568000F0B4036A026A22F0010202624668846989
:105690001F4A22400D68154323F002038C68234300
:1056A0001C4A1D4CA04218BF90420CBF0122002290
:1056B0000CD004F58044A04214BF00240124174FED
:1056C000B84203D014B9164CA04205D123F0080308
:1056D000CC68234323F004035AB9124A904214BF02
:1056E000002201220D4CA04203D012B90C4A904274
:1056F00007D126F4407C4A6942EA0C0C8E6946EADE
:105700000C06466085614A6842630362F0BC7047DC
:105710008CFFFEFF000001400004014000400140FA
:10572000004801400044014070B4036A026A22F458
:10573000807202624568C4691A4A22400E681643A4
:1057400023F400738A6843EA0223174A174CA042E5
:1057500018BF90420CBF0122002206D123F400633F
:10576000CC6843EA042323F480635AB9104A904278
:1057700014BF002201220F4CA04203D012B90E4ADE
:10578000904207D125F4405C4A694CEA021C8D69BD
:105790004CEA05154560C6614A68C263036270BC85
:1057A000704700BF8CFFFEFF000001400004014075
:1057B00000440140004001400048014070B4036AC9
:1057C000026A22F4805202624468C569144A2A407F
:1057D0000D6842EA052223F400538D6843EA05333D
:1057E000104E114DA84218BFB0420DD005F58045AE
:1057F000A84214BF0025012506F58046B04203D01B
:1058000015B90A4DA84204D124F480444D6944EAF4
:1058100085144460C2614A680264036270BC7047C8
:10582000FF8CFFFE000001400004014000480140E1
:1058300070B4036A026A22F4803202624268456DE3
:10584000144C2C400D682C4323F400338D6843EA3C
:105850000543114E114DA84218BFB0420DD005F5B9
:105860008045A84214BF0025012506F58046B042B8
:1058700003D015B90A4DA84204D122F480324D69F3
:1058800042EA0522426044654A688265036270BC50
:10589000704700BF8FFFFEFF000001400004014081
:1058A0000048014070B4036A026A22F48012026266
:1058B0004468456D144A2A400D6842EA052223F4E3
:1058C00000138D6843EA0553104E114DA84218BFCE
:1058D000B0420DD005F58045A84214BF0025012532
:1058E00006F58046B04203D015B90A4DA84204D14E
:1058F00024F480244D6944EA8524446042654A6862
:10590000C265036270BC7047FF8FFFFE000001405C
:10591000000401400048014010B4036A046A24F006
:1059200001040462846924F0F00C4CEA021223F0B2
:105930000A030B438261036210BC704730B4056AEE
:10594000046A24F010040462846924F4407C4CEA64
:10595000022C2CF4704C1B039BB243EA0C0325F081
:10596000A005090101F0A00129438361016230BC57
:10597000704710B4036A046A24F010040462846956
:1059800024F4704C4CEA023223F0A00343EA0113E2
:105990008261036210BC704730B4056A046A24F463
:1059A00080740462C46924F0030C4CEA020C2CF0ED
:1059B000F00C1B01DBB243EA0C0325F4206509025D
:1059C00001F420612943C361016230BC704730B4E7
:1059D000056A046A24F480540462C46924F4407C97
:1059E0004CEA022C2CF4704C1B039BB243EA0C03D0
:1059F00025F42045090301F420412943C3610162D4
:105A000030BC70477047000030B503683D4A904293
:105A100014BF4FF0000E4FF0010EB0F1804F14BFD5
:105A200072464EF00102AAB9374CA04214BF0024BE
:105A30000124364DA8420DD064B904F1804404F528
:105A40008234A04214BF0024012405F50065A84259
:105A500000D01CB123F070034C68234312BB2A4AC8
:105A6000904214BF00220122284CA0421AD0CAB989
:105A700002F1804202F58232904214BF00220122DC
:105A800004F50064A0420DD062B9214A904214BFCF
:105A90000022012204F59A34A04203D012B91D4A13
:105AA000904204D123F4407CCB6843EA0C0323F0FA
:105AB00080034A69134303608A68C2620A6882628B
:105AC000154A904214BF73464EF0010363B9104B60
:105AD000984214BF0023012302F57052904203D074
:105AE00013B90C4B984201D10B6903630123436145
:105AF000036913F0010F03D0036923F0010303616D
