:020000040800F2
:10000000000008242D290008BD200008BF2000089A
:10001000C1200008C3200008C5200008000000001F
:10002000000000000000000000000000C7200008E1
:10003000C920000800000000CB200008CD200008E7
:100040007D2900087D2900087D2900087D290008F8
:100050007D2900087D2900087D2900087D290008E8
:100060007D2900087D2900087D290008D520000889
:100070007D2900087D2900087D2900087D290008C8
:100080007D2900087D2900087D2900087D290008B8
:100090007D2900087D2900087D2900087D290008A8
:1000A0007D2900087D290008E5200008F5200008CA
:1000B0007D290008052100087D2900087D29000808
:1000C0007D2900087D2900087D2900087D29000878
:1000D0007D290008152100087D2900087D290008D8
:1000E0007D2900087D290008000000007D29000806
:1000F0007D2900087D2900087D2900087D29000848
:100100007D2900087D2900087D2900087D29000837
:100110007D2900087D2900087D2900087D29000827
:100120007D2900087D2900087D2900087D29000817
:100130007D2900087D2900087D2900087D29000807
:1001400000000000000000000000000000000000AF
:100150007D2900087D2900087D2900087D290008E7
:100160007D2900087D2900087D2900087D290008D7
:100170007D2900087D2900087D2900087D290008C7
:100180007D2900087D2900087D2900087D290008B7
:100190007D2900087D2900087D2900087D290008A7
:1001A0007D2900087D2900087D2900087D29000897
:1001B0007D2900087D2900087D2900087D29000887
:1001C0007D2900087D2900087D2900087D29000877
:1001D0007D2900087D2900087D2900087D29000867
:1001E0007D2900087D2900087D2900087D29000857
:1001F0007D2900087D2900087D2900087D29000847
:100200007D2900087D2900087D2900087D29000836
:100210007D2900087D2900087D2900087D29000826
:100220007D2900087D2900087D29000800000000C4
:100230007D2900087D290008000000007D290008B4
:100240007D2900087D2900087D2900087D290008F6
:100250007D2900087D2900087D2900087D290008E6
:100260007D2900087D2900087D2900087D290008D6
:100270007D2900087D2900087D2900080000000074
:100280007D2900087D2900087D2900080000000064
:08029000000000007D290008B8
:1002C00010B5054C237833B9044B13B10448AFF390
:1002D00000800123237010BDC80900240000000025
:1002E000F8F4000808B5034B1BB103490348AFF30A
:1002F000008008BD00000000CC090024F8F40008CC
:1003000080F0004002E000BF81F0004142001FBFCA
:100310005FEA410392EA030F7FEA226C7FEA236CD3
:100320006AD04FEA1262D2EB1363C1BFD2184140C8
:1003300048404140B8BF5B42192B88BF704710F05E
:10034000004F40F4000020F07F4018BF404211F001
:10035000004F41F4000121F07F4118BF494292EA69
:10036000030F3FD0A2F1010241FA03FC10EB0C0095
:10037000C3F1200301FA03F100F0004302D5494222
:1003800060EB4000B0F5000F13D3B0F1807F06D3CF
:1003900040084FEA310102F10102FE2A51D2B1F1C7
:1003A000004F40EBC25008BF20F0010040EA0300BC
:1003B0007047490040EB0000013A28BFB0F5000F3C
:1003C000EDD2B0FA80FCACF1080CB2EB0C0200FAF2
:1003D0000CF0AABF00EBC25052421843BCBFD04041
:1003E0001843704792F0000F81F4000106BF80F4BB
:1003F00000000132013BB5E74FEA41037FEA226C7E
:1004000018BF7FEA236C21D092EA030F04D092F048
:10041000000F08BF0846704790EA010F1CBF00207C
:10042000704712F07F4F04D1400028BF40F00040D9
:10043000704712F100723CBF00F50000704700F0F9
:10044000004343F0FE4040F4000070477FEA226220
:1004500016BF08467FEA23630146420206BF5FEAF1
:10046000412390EA010F40F4800070474FF00003F1
:1004700004E000BF10F0004348BF40425FEA000CB8
:1004800008BF704743F0964301464FF000001CE060
:1004900050EA010208BF70474FF000030AE000BFB6
:1004A00050EA010208BF704711F0004302D54042F4
:1004B00061EB41015FEA010C02BF84460146002066
:1004C00043F0B64308BFA3F18053A3F50003BCFA81
:1004D0008CF2083AA3EBC25310DB01FA02FC63442E
:1004E00000FA02FCC2F12002BCF1004F20FA02F235
:1004F00043EB020008BF20F00100704702F1200228
:1005000001FA02FCC2F1200250EA4C0021FA02F288
:1005100043EB020008BF20EADC7070474FF0FF0C8D
:100520001CEAD0521EBF1CEAD15392EA0C0F93EA88
:100530000C0F6FD01A4480EA010C400218BF5FEA2A
:1005400041211ED04FF0006343EA501043EA51119D
:10055000A0FB01310CF00040B1F5000F3EBF490097
:1005600041EAD3715B0040EA010062F17F02FD2A9B
:100570001DD8B3F1004F40EBC25008BF20F001007E
:10058000704790F0000F0CF0004C08BF49024CEA95
:10059000502040EA51207F3AC2BFD2F1FF0340EA27
:1005A000C250704740F400004FF00003013A5DDC98
:1005B00012F1190FDCBF00F000407047C2F10002D9
:1005C000410021FA02F1C2F1200200FA02FC5FEAC6
:1005D000310040F1000053EA4C0308BF20EADC7010
:1005E000704792F0000F00F0004C02BF400010F482
:1005F000000F013AF9D040EA0C0093F0000F01F02F
:10060000004C02BF490011F4000F013BF9D041EA50
:100610000C018FE70CEAD15392EA0C0F18BF93EA52
:100620000C0F0AD030F0004C18BF31F0004CD8D17C
:1006300080EA010000F00040704790F0000F17BF03
:1006400090F0004F084691F0000F91F0004F14D049
:1006500092EA0C0F01D142020FD193EA0C0F03D1A1
:100660004B0218BF084608D180EA010000F00040A4
:1006700040F0FE4040F40000704740F0FE4040F47F
:10068000400070474FF0FF0C1CEAD0521EBF1CEA1E
:10069000D15392EA0C0F93EA0C0F69D0A2EB03023C
:1006A00080EA010C49024FEA402037D04FF08053D6
:1006B00043EA111143EA10130CF000408B4238BF9B
:1006C0005B0042F17D024FF4000C8B4224BF5B1AA9
:1006D00040EA0C00B3EB510F24BFA3EB510340EAF7
:1006E0005C00B3EB910F24BFA3EB910340EA9C00A5
:1006F000B3EBD10F24BFA3EBD10340EADC001B0115
:1007000018BF5FEA1C1CE0D1FD2A3FF650AF8B42B8
:1007100040EBC25008BF20F0010070470CF0004CC5
:100720004CEA50207F32C2BFD2F1FF0340EAC250F0
:10073000704740F400004FF00003013A37E792F0B1
:10074000000F00F0004C02BF400010F4000F013A0F
:10075000F9D040EA0C0093F0000F01F0004C02BF0A
:10076000490011F4000F013BF9D041EA0C0195E773
:100770000CEAD15392EA0C0F08D142027FF47DAF0C
:1007800093EA0C0F7FF470AF084676E793EA0C0FFC
:1007900004D14B023FF44CAF08466EE730F0004CFA
:1007A00018BF31F0004CCAD130F000427FF45CAF8A
:1007B00031F000437FF43CAF5FE700BF42000ED250
:1007C000B2F1FE4F0BD34FF09E03B3EB126209D48C
:1007D0004FEA002343F0004323FA02F070474FF042
:1007E0000000704712F1610F01D1420202D14FF0B7
:1007F000FF3070474FF00000704700BF53B94AB94F
:10080000002908BF00281CBF4FF0FF314FF0FF3018
:1008100000F074B9ADF1080C6DE904CE00F006F8F3
:10082000DDF804E0DDE9022304B070472DE9F0476C
:10083000089E0D4604468846002B4DD18A429446B8
:1008400068D9B2FA82F252B101FA02F3C2F1200180
:1008500020FA01F10CFA02FC41EA030894404FEA45
:100860001C45210CB8FBF5FE1FFA8CF705FB1E8317
:1008700041EA03430EFB07F199420BD91CEB03033A
:100880000EF1FF3080F01E81994240F21B81AEF1E3
:10089000020E63445B1AA4B2B3FBF5F005FB103300
:1008A00044EA034400FB07F7A7420AD91CEB0404FF
:1008B00000F1FF3380F00881A74240F205816444D3
:1008C0000238E41B40EA0E4000211EB1D440002350
:1008D000C6E90043BDE8F0878B4208D9002E00F03E
:1008E000EE800021C6E900050846BDE8F087B3FAAE
:1008F00083F100294AD1AB4202D3824200F2F9804F
:10090000841A65EB030301209846002EE2D0C6E965
:100910000048DFE702B9FFDEB2FA82F2002A40F0B7
:100920009180A1EB0C054FEA1C471FFA8CFE0121B8
:10093000B5FBF7F307FB1350250C45EA00450EFB0A
:1009400003F0A84208D91CEB050503F1FF3802D2D9
:10095000A84200F2CB8043462D1AA4B2B5FBF7F0B3
:1009600007FB105544EA05440EFB00FEA64508D9D6
:100970001CEB040400F1FF3502D2A64500F2BB8057
:100980002846A4EB0E0440EA03409EE7C1F120078D
:100990008B4022FA07FC4CEA030C20FA07F405FA14
:1009A00001F31C43FD404FEA1C4900FA01F3B5FB7B
:1009B000F9F8200C1FFA8CFE09FB185540EA054592
:1009C00008FB0EF0A84202FA01F20BD91CEB050558
:1009D00008F1FF3A80F08880A84240F28580A8F1B3
:1009E000020865442D1AA4B2B5FBF9F009FB1055B5
:1009F00044EA054500FB0EFEAE4508D91CEB050593
:100A000000F1FF346CD2AE456AD90238654440EA41
:100A10000840A0FB0294A5EB0E05A542C846A646D9
:100A200056D353D05EB1B3EB080265EB0E0505FA61
:100A300007F722FA01F3CD401F43C6E900750021F4
:100A4000BDE8F087C2F1200320FA03F10CFA02FCA2
:100A500025FA03F395400D434FEA1C471FFA8CFE1D
:100A6000B3FBF7F107FB11302B0C43EA004301FB0A
:100A70000EF0984204FA02F408D91CEB030301F1CA
:100A8000FF382FD298422DD9023963441B1AADB2D8
:100A9000B3FBF7F007FB103345EA034500FB0EF309
:100AA000AB4208D91CEB050500F1FF3816D2AB426A
:100AB00014D902386544ED1A40EA014138E731465D
:100AC000304607E78646E5E61846FAE64B45A9D2E2
:100AD000B9EB020864EB0C0E0138A3E74046EAE7E5
:100AE000204694E74146D1E7D0467BE7023B654488
:100AF00032E7084609E76444023842E7704700BF1E
:100B0000844641EA000313F003036DD1403A41D318
:100B100051F8043B40F8043B51F8043B40F8043BD7
:100B200051F8043B40F8043B51F8043B40F8043BC7
:100B300051F8043B40F8043B51F8043B40F8043BB7
:100B400051F8043B40F8043B51F8043B40F8043BA7
:100B500051F8043B40F8043B51F8043B40F8043B97
:100B600051F8043B40F8043B51F8043B40F8043B87
:100B700051F8043B40F8043B51F8043B40F8043B77
:100B800051F8043B40F8043B51F8043B40F8043B67
:100B9000403ABDD2303211D351F8043B40F8043B07
:100BA00051F8043B40F8043B51F8043B40F8043B47
:100BB00051F8043B40F8043B103AEDD20C3205D317
:100BC00051F8043B40F8043B043AF9D2043208D00F
:100BD000D2071CBF11F8013B00F8013B01D30B8881
:100BE00003806046704700BF082A13D38B078DD05F
:100BF00010F003038AD0C3F10403D21ADB071CBF31
:100C000011F8013B00F8013B80D331F8023B20F89A
:100C1000023B7BE7043AD9D3013A11F8013B00F8D3
:100C2000013BF9D20B7803704B7843708B7883705B
:100C30006046704700000000000000000000000057
:100C400090F800F06DE9024520F007016FF0000C0C
:100C500010F0070491F820F040F049804FF00004B4
:100C60006FF00700D1E9002391F840F000F108008F
:100C700082FA4CF2A4FA8CF283FA4CF3A2FA8CF3C7
:100C80004BBBD1E9022382FA4CF200F10800A4FA2E
:100C90008CF283FA4CF3A2FA8CF3E3B9D1E9042382
:100CA00082FA4CF200F10800A4FA8CF283FA4CF3B9
:100CB000A2FA8CF37BB9D1E9062301F1200182FA73
:100CC0004CF200F10800A4FA8CF283FA4CF3A2FA79
:100CD0008CF3002BC6D0002A04BF04301A4612BA87
:100CE000B2FA82F2FDE8024500EBD2007047D1E98A
:100CF000002304F00305C4F100004FEAC50514F019
:100D0000040F91F840F00CFA05F562EA05021CBFE9
:100D100063EA050362464FF00004A9E70000000003
:100D200001F0FF01102A2BDB10F0070F08D010F89C
:100D3000013B013A8B422DD010F0070F42B3F6D1A0
:100D4000F0B441EA012141EA014122F007047FF0B9
:100D500000070023F0E80256083C85EA010586EA10
:100D6000010685FA47F5A3FA87F586FA47F6A5FA4C
:100D700087F68EB9EED1F0BC01F0FF0102F0070258
:100D800032B110F8013B013A83EA010313B1F8D103
:100D90000020704701387047002D06BF35460338E4
:100DA000073815F0010F07D1013015F4807F02BF1D
:100DB000013015F4C03F0130F0BC0138704700BF6E
:100DC00081F0004102E000BF83F0004330B54FEAFC
:100DD00041044FEA430594EA050F08BF90EA020F69
:100DE0001FBF54EA000C55EA020C7FEA645C7FEAFC
:100DF000655C00F0E2804FEA5454D4EB5555B8BF1F
:100E00006D420CDD2C4480EA020281EA030382EA8F
:100E1000000083EA010180EA020281EA0303362D21
:100E200088BF30BD11F0004F4FEA01314FF4801CF4
:100E30004CEA113102D0404261EB410113F0004F06
:100E40004FEA03334CEA133302D0524263EB4303BD
:100E500094EA050F00F0A780A4F10104D5F1200E5B
:100E60000DDB02FA0EFC22FA05F2801841F10001B6
:100E700003FA0EF2801843FA05F359410EE0A5F18A
:100E800020050EF1200E012A03FA0EFC28BF4CF0BB
:100E9000020C43FA05F3C01851EBE37101F0004571
:100EA00007D54FF0000EDCF1000C7EEB00006EEB7E
:100EB0000101B1F5801F1BD3B1F5001F0CD3490808
:100EC0005FEA30004FEA3C0C04F101044FEA44525F
:100ED00012F5800F80F09A80BCF1004F08BF5FEAE6
:100EE000500C50F1000041EB045141EA050130BDC6
:100EF0005FEA4C0C404141EB0101013C28BFB1F5D8
:100F0000801FE9D291F0000F04BF01460020B1FA22
:100F100081F308BF2033A3F10B03B3F120020CDAF5
:100F20000C3208DD02F1140CC2F10C0201FA0CF0D3
:100F300021FA02F10CE002F11402D8BFC2F1200C38
:100F400001FA02F120FA0CFCDCBF41EA0C019040EE
:100F5000E41AA2BF01EB0451294330BD6FEA040437
:100F60001F3C1CDA0C340EDC04F11404C4F1200222
:100F700020FA04F001FA02F340EA030021FA04F334
:100F800045EA030130BDC4F10C04C4F1200220FA8B
:100F900002F001FA04F340EA0300294630BD21FAC9
:100FA00004F0294630BD94F0000F83F4801306BF8F
:100FB00081F480110134013D4EE77FEA645C18BF83
:100FC0007FEA655C29D094EA050F08BF90EA020F1A
:100FD00005D054EA000C04BF1946104630BD91EA12
:100FE000030F1EBF0021002030BD5FEA545C05D115
:100FF0004000494128BF41F0004130BD14F5800454
:101000003CBF01F5801130BD01F0004545F0FE41C7
:1010100041F470014FF0000030BD7FEA645C1ABFFC
:10102000194610467FEA655C1CBF0B46024650EA33
:10103000013406BF52EA033591EA030F41F400215F
:1010400030BD00BF90F0000F04BF0021704730B5E5
:101050004FF4806404F132044FF000054FF00001BA
:1010600050E700BF90F0000F04BF0021704730B57B
:101070004FF4806404F1320410F0004548BF404250
:101080004FF000013EE700BF42004FEAE2014FEAA5
:1010900031014FEA02701FBF12F07F4393F07F4F80
:1010A00081F06051704732F07F4208BF704793F083
:1010B0007F4F04BF41F40021704730B54FF4607496
:1010C00001F0004521F000411CE700BF50EA010299
:1010D00008BF704730B54FF000050AE050EA010242
:1010E00008BF704730B511F0004502D5404261EBB2
:1010F00041014FF4806404F132045FEA915C3FF4F3
:10110000D8AE4FF003025FEADC0C18BF03325FEA8F
:10111000DC0C18BF033202EBDC02C2F1200300FA40
:1011200003FC20FA02F001FA03FE40EA0E0021FA65
:1011300002F11444BDE600BF70B54FF0FF0C4CF453
:10114000E06C1CEA11541DBF1CEA135594EA0C0F05
:1011500095EA0C0F00F0DEF82C4481EA030621EA40
:101160004C5123EA4C5350EA013518BF52EA03357B
:1011700041F4801143F4801338D0A0FB02CE4FF02D
:101180000005E1FB02E506F00042E0FB03E54FF05D
:101190000006E1FB03569CF0000F18BF4EF0010E55
:1011A000A4F1FF04B6F5007F64F5407404D25FEA51
:1011B0004E0E6D4146EB060642EAC62141EA555104
:1011C0004FEAC52040EA5E504FEACE2EB4F1FD0C46
:1011D00088BFBCF5E06F1ED8BEF1004F08BF5FEAC4
:1011E000500E50F1000041EB045170BD06F0004676
:1011F00046EA010140EA020081EA0301B4EB5C0423
:10120000C2BFD4EB0C0541EA045170BD41F480111A
:101210004FF0000E013C00F3AB8014F1360FDEBF3F
:10122000002001F0004170BDC4F10004203C35DA1B
:101230000C341BDC04F11404C4F1200500FA05F39E
:1012400020FA04F001FA05F240EA020001F000423F
:1012500021F0004110EBD37021FA04F642EB0601B5
:101260005EEA430E08BF20EAD37070BDC4F10C04DF
:10127000C4F1200500FA04F320FA05F001FA04F2A3
:1012800040EA020001F0004110EBD37041F100018F
:101290005EEA430E08BF20EAD37070BDC4F120059A
:1012A00000FA05F24EEA020E20FA04F301FA05F202
:1012B00043EA020321FA04F001F0004121FA04F2AA
:1012C00020EA020000EBD3705EEA430E08BF20EA7A
:1012D000D37070BD94F0000F0FD101F000464000B4
:1012E00041EB010111F4801F08BF013CF7D041EA36
:1012F000060195F0000F18BF704703F0004652003A
:1013000043EB030313F4801F08BF013DF7D043EA0A
:101310000603704794EA0C0F0CEA135518BF95EAC0
:101320000C0F0CD050EA410618BF52EA4306D1D147
:1013300081EA030101F000414FF0000070BD50EA66
:10134000410606BF1046194652EA430619D094EAF0
:101350000C0F02D150EA013613D195EA0C0F05D1DA
:1013600052EA03361CBF104619460AD181EA03012E
:1013700001F0004141F0FE4141F470014FF00000E6
:1013800070BD41F0FE4141F4780170BD70B54FF081
:10139000FF0C4CF4E06C1CEA11541DBF1CEA135501
:1013A00094EA0C0F95EA0C0F00F0A7F8A4EB0504E3
:1013B00081EA030E52EA03354FEA013100F08880DA
:1013C0004FEA03334FF0805545EA131343EA1263A3
:1013D0004FEA022245EA111545EA10654FEA002658
:1013E0000EF000419D4208BF964244F1FD0404F511
:1013F000407402D25B084FEA3202B61A65EB03056D
:101400005B084FEA32024FF480104FF4002CB6EB29
:10141000020E75EB030E22BFB61A754640EA0C00A9
:101420005B084FEA3202B6EB020E75EB030E22BFE9
:10143000B61A754640EA5C005B084FEA3202B6EB2A
:10144000020E75EB030E22BFB61A754640EA9C00E9
:101450005B084FEA3202B6EB020E75EB030E22BFB9
:10146000B61A754640EADC0055EA060E18D04FEA77
:10147000051545EA16754FEA06164FEAC30343EA17
:1014800052734FEAC2025FEA1C1CC0D111F4801FE4
:101490000BD141EA00014FF000004FF0004CB6E7DD
:1014A00011F4801F04BF01430020B4F1FD0C88BF7C
:1014B000BCF5E06F3FF6AFAEB5EB030C04BFB6EB87
:1014C000020C5FEA500C50F1000041EB045170BD7A
:1014D0000EF0004E4EEA113114EB5C04C2BFD4EBA7
:1014E0000C0541EA045170BD41F480114FF0000E2B
:1014F000013C90E645EA060E8DE60CEA135594EAA7
:101500000C0F08BF95EA0C0F3FF43BAF94EA0C0FA9
:101510000AD150EA01347FF434AF95EA0C0F7FF41E
:1015200025AF104619462CE795EA0C0F06D152EA72
:1015300003353FF4FDAE1046194622E750EA410656
:1015400018BF52EA43067FF4C5AE50EA41047FF467
:101550000DAF52EA43057FF4EBAE12E74FF0FF3CCC
:1015600006E000BF4FF0010C02E000BF4FF0010C9D
:101570004DF804CD4FEA410C7FEA6C5C4FEA430C16
:1015800018BF7FEA6C5C1BD001B050EA410C0CBF65
:1015900052EA430C91EA030F02BF90EA020F0020C7
:1015A000704710F1000F91EA030F58BF994208BF2E
:1015B00090422CBFD8176FEAE37040F001007047EB
:1015C0004FEA410C7FEA6C5C02D150EA013C07D142
:1015D0004FEA430C7FEA6C5CD6D152EA033CD3D08D
:1015E0005DF8040B704700BF8446104662468C4687
:1015F0001946634600E000BF01B5FFF7B7FF0028BA
:1016000048BF10F1000F01BD4DF808EDFFF7F4FFE2
:101610000CBF012000205DF808FB00BF4DF808ED6D
:10162000FFF7EAFF34BF012000205DF808FB00BF90
:101630004DF808EDFFF7E0FF94BF012000205DF8B2
:1016400008FB00BF4DF808EDFFF7CEFF94BF012067
:1016500000205DF808FB00BF4DF808EDFFF7C4FF60
:1016600034BF012000205DF808FB00BF4FEA410CA9
:101670007FEA6C5C02D150EA013C0AD14FEA430C8C
:101680007FEA6C5C02D152EA033C02D14FF00000C9
:1016900070474FF0010070474FEA410212F5001207
:1016A00015D211D56FF47873B3EB625212D94FEAA9
:1016B000C12343F0004343EA505311F0004F23FA93
:1016C00002F018BF404270474FF00000704750EAE8
:1016D000013005D111F0004008BF6FF000407047A5
:1016E0004FF00000704700BF70B504460E46154627
:1016F000002210210E4802F0E9FE0E4A002313706A
:10170000547006E0981C16F803C00A4C04F800C098
:1017100001339D42F6DC6423AA1C0649064804F006
:10172000EDFE01221021024802F0D0FE002070BD23
:1017300000000258F40900241C1B002410B483B0DC
:10174000019018E04FF461744FF0E0239A69A4EB24
:1017500004135901891816D44FF0E0239B699A426B
:10176000D4BF002001209942C8BF00200028F3D137
:10177000019B1B1B0193019BABB1019BB3F5617FE7
:10178000E0D8019CE0E7094808444FF0E02399695C
:101790008842ACBF002301238A42A8BF43F0010363
:1017A000002BF2D1E4E703B010BC704700530700F0
:1017B00038B505460C46002210211E4802F086FE70
:1017C0001420FFF7BBFF1C4980230B704D7064236E
:1017D00002221A4804F092FE88B9642301222146AD
:1017E000164804F0EDFF05461420FFF7A7FF01227D
:1017F0001021104802F06AFEBDB900250EE001225A
:1018000010210C4802F062FE0D4807F079FE01201D
:101810000AE0615D0B4807F011FE0135002DF8D09C
:10182000094807F06DFE207838BD084807F068FECB
:10183000F9E700BF00000258F40900241C1B002433
:1018400010F5000828F5000830F5000834F5000808
:10185000F8B504460D4616460B4F002210213846B7
:1018600002F034FE1420FFF769FF32462946204675
:10187000FFF73AFF1420FFF761FF012210213846DD
:1018800002F024FEF8BD00BF0000025810B592B06F
:1018900018238DF80430012201A90020FFF7D8FF9A
:1018A00000248DF80840012202A91420FFF7D0FF80
:1018B0008DF80C40012203A91420FFF7C9FF102363
:1018C0008DF8103001220DEB03013020FFF7C0FF2F
:1018D0008DF81440012205A90D20FFF7B9FF8023E0
:1018E0008DF81830012206A90820FFF7B1FF022366
:1018F0008DF81C30012207A90520FFF7A9FF1C2342
:101900008DF82030012208A91720FFF7A1FF01223E
:101910008DF8242009A9FF20FFF79AFF0AE0182379
:101920008DF8283001220AA90020FFF791FF32200C
:1019300001F08EF847490020FFF73AFF1828EED152
:1019400002E0322001F084F842490120FFF730FF25
:101950003228F6D10AE000238DF82C3001220BA9A1
:101960001420FFF775FF322001F072F83949142076
:10197000FFF71EFF0028EED10AE010238DF830306B
:1019800001220CA93020FFF763FF322001F060F83C
:1019900030493020FFF70CFF1028EED10AE0002379
:1019A0008DF8343001220DA90D20FFF751FF3220B0
:1019B00001F04EF827490D20FFF7FAFE0028EED17E
:1019C0000AE080238DF8383001220EA90820FFF7A5
:1019D0003FFF322001F03CF81E490820FFF7E8FEE7
:1019E0008028EED10AE002238DF83C3001220FA9B5
:1019F0000520FFF72DFF322001F02AF815490520B8
:101A0000FFF7D6FE0228EED10AE01C238DF8403005
:101A1000012210A91720FFF71BFF322001F018F850
:101A20000C491720FFF7C4FE1C28EED109E0012263
:101A30008DF8442011A9FF20FFF70AFF322001F0A2
:101A400007F80449FF20FFF7B3FE0028EFD112B0DA
:101A500010BD00BFE409002408B5054B1860054B14
:101A60001868002302221946806807F051FD08BD5E
:101A7000F40A00241C000024022801D80120704729
:101A800008B507F05FFC09230360002008BD0000D3
:101A900010B5013801280AD814464FF0FF3392B22E
:101AA0000748006807F06CF940B9204610BD07F000
:101AB00049FC092303604FF0FF30F7E70520F5E705
:101AC000F40A0024022801D80020704708B507F066
:101AD00039FC092303604FF0FF3008BD08B507F05B
:101AE00031FC092303604FF0FF3008BD08B548B949
:101AF0004FF0FF3301220848006807F0A9F940B908
:101B0000012008BD07F01EFC092303604FF0FF30E1
:101B1000F7E70520F5E700BFF40A002408B502281E
:101B200004D84FF400534B60002008BD07F00AFCB6
:101B300009230360F8E7000000B583B00B4BD3F82E
:101B4000D82042F00102C3F8D820D3F8D83003F0EF
:101B500001030193019B002211460B2000F0A4FF1A
:101B60000B2000F0D7FF03B05DF804FB00440258DF
:101B700010B5484B1B68B3F5026F03DB72B6464BDA
:101B800001221A60454B1B68B3F5007F1CDB444BF8
:101B90001B68CBB172B6424B00221A60414B1A68E7
:101BA000414B1B689A421DD0404B1A68404B1B6842
:101BB0009A4250D03F4B01221A603A4B1A683A4B76
:101BC0001B689A4249D062B6364B1A68364B1B687E
:101BD0009A4202DD334B00221A602F4B1B68012B07
:101BE00040D010BD314B1B68012BDDD10023B3F574
:101BF000007FD9DA304A32F81300304951F82320F7
:101C0000024441F823200133F1E72C4850F8232007
:101C1000274909680139B2FBF1F2294921F813205B
:101C2000002240F823200133B3F5007FEDDB254C83
:101C3000FF23237063704FF480622149A01CFEF7DC
:101C40005FFF40F2024221461F4805F0A3FF174BF9
:101C500000221A60AEE70023E6E7144A1368013356
:101C60001360B0E7134B1B68012BBAD172B60D4A53
:101C70001368013313600023064A1360074A136098
:101C800062B6054A13600B4A1360054B01221A60C5
:101C9000A7E700BFF80A0024080B0024FC0A002470
:101CA0000800002410210024040B0024000B002451
:101CB0000000002404000024A81B00241C1300249E
:101CC0001C0F00240C0B00242423002470B58CB0BE
:101CD00000240794089409940A940B94374BD3F882
:101CE000E02042F08002C3F8E020D3F8E02002F0C8
:101CF00080020192019AD3F8E02042F00102C3F879
:101D0000E020D3F8E02002F001020292029AD3F818
:101D1000E02042F01002C3F8E020D3F8E02002F007
:101D200010020392039AD3F8E02042F00802C3F8AD
:101D3000E020D3F8E02002F008020492049AD3F8DD
:101D4000E02042F00402C3F8E020D3F8E02002F0E3
:101D500004020592059AD3F8E02042F00202C3F88B
:101D6000E020D3F8E03003F002030693069B144D05
:101D700022461421284602F0A9FB042307930126DA
:101D80000896099402230A9307A9284602F08AFAC2
:101D9000102307930896099403230A9307A928465A
:101DA00002F080FA4FF6FF7307930894099407A98D
:101DB000044802F077FA0CB070BD00BF004402582E
:101DC00000000258000C025872B6FEE700B59FB042
:101DD0004C2200210BA807F0DFFA2022002103A8E3
:101DE00007F0DAFA022002F077FB002300933A4B67
:101DF000DA6A22F00102DA62DB6A03F0010300937F
:101E0000364B9A6942F440429A619B6903F440431D
:101E10000093009B314B9B6913F4005FFAD0304B69
:101E2000D3F8F42042F00202C3F8F420D3F8F430DF
:101E300003F002030193019B00230293274B9A694D
:101E400042F440429A619B6903F440430293224B5F
:101E5000DA6A42F00102DA62DB6A03F001030293FC
:101E6000029B1E4B9B6913F4005FFAD003230B9374
:101E70004FF480330C9301230E9340230F930223DE
:101E8000149315931693F0221792189319931A939B
:101E900008231B9300231C931D930BA802F046FB01
:101EA000B0B93F230393032304930023059308232E
:101EB00006934023079308934FF4806209920A9394
:101EC000042103A802F098FF20B91FB05DF804FBBD
:101ED000FFF77AFFFFF778FF000400580048025828
:101EE0000044025800B5B1B0C0220021684607F096
:101EF00053FA4FF000420023CDE90023684603F077
:101F000017FA10B931B05DF804FBFFF75DFF000070
:101F100008B500F05DFDFFF759FFFFF7E3FFFFF79E
:101F2000D5FEFFF709FE00F08FF900F031FB00F05D
:101F3000E7F900F06DFB00F019F800F0FDFB084830
:101F4000FFF78AFD0021074805F000FC0021064844
:101F500005F0FCFBFFF79AFCFFF70AFEFCE700BF69
:101F6000242300242C200024C420002408B5144875
:101F7000144B03604FF4800343604FF4C02383602D
:101F80000723C3600023036143614FF080628261D5
:101F9000C361036243628362C3624FF08042426363
:101FA0008363C363036443648364C36403654365F9
:101FB000836504F0DBF900B908BDFFF705FFFBE717
:101FC0001C1B00240030014070B5BAB0044600214B
:101FD00035913691379138913991C02204A807F094
:101FE000DBF92268284B9A4201D03AB070BD4FF419
:101FF00080520023CDE904234FF480431C9304A8AE
:1020000003F096F900283CD1204BD3F8F02042F49D
:102010008052C3F8F020D3F8F02002F480520192ED
:10202000019AD3F8E02042F00102C3F8E020D3F88F
:10203000E02002F001020292029AD3F8E02042F07E
:102040000202C3F8E020D3F8E03003F00203039368
:10205000039B8023359302263696002437943894C8
:102060000525399535A90A4802F01CF9082335934E
:10207000369637943894399535A9064802F012F906
:10208000B3E7FFF7A1FEBFE700300140004402586C
:10209000000002580004025882B0074BD3F8F42025
:1020A00042F00202C3F8F420D3F8F43003F0020344
:1020B0000193019B02B0704700440258FEE7FEE71F
:1020C000FEE7FEE7FEE770477047704708B500F08F
:1020D000ADFC08BD08B5024801F048FD08BD00BFD1
:1020E000AC22002408B5024804F0D9FE08BD00BFA8
:1020F000E01F002408B5024804F0D1FE08BD00BF6F
:10210000E01F002408B5024804F0C9FE08BD00BF66
:102110007820002408B5024805F0FEFD08BD00BF88
:10212000242300240120704708B507F00BF916237B
:1021300003604FF0FF3008BD08B54FF0FF31FFF7E7
:10214000F3FFFEE710B503460C4A0D490D48006841
:1021500040B10C4800680344521A934206D8094A19
:10216000136010BD0748084C0460F2E707F0EAF876
:102170000C2303604FF0FF30F3E700BF000008249A
:1021800000040000A41B002408240024244B1B6826
:1021900003F00F03062B06D8214A136823F00F0320
:1021A00043F0070313601F4B1A6842F001021A60E4
:1021B00000221A6119681C4A0A401A60184B1B68F1
:1021C00013F0080F06D0164A136823F00F0343F0EC
:1021D00007031360134B00229A61DA611A621349F4
:1021E00099621349D962134919635A639963DA638F
:1021F00019645A64196821F4802119601A660E4B1B
:102200001A680E4B1340B3F1005F03D20C4B01224E
:10221000C3F808210B4B43F2D2021A60704700BF8B
:1022200000200052004402587FEDF6EA000202024C
:102230000000FF01800201010010005C0000FFFFB0
:10224000008000510040005200B58DB0002307937C
:10225000089309930A930B930493059306930093B1
:102260000193029303932448244A02601722426098
:1022700083604FF6FF72C26003614361836104F0C3
:1022800055FF50BB1C4804F0B1FF48BB0423079323
:1022900050230893002309930B9307A9164805F0D0
:1022A0001DFA00BB002304930593069304A912486A
:1022B00005F0D8FBD0B900220092012301930292CD
:1022C000039269460C4805F0F3F890B900210A48DA
:1022D00005F0F0FA0DB05DF804FBFFF775FDD1E7EE
:1022E000FFF772FDD2E7FFF76FFDDBE7FFF76CFD4D
:1022F000E1E7FFF769FDE9E7E01F00240000014086
:1023000000B58DB000230793089309930A930B93AC
:102310000493059306930093019302930393234838
:10232000234A02600922426083604FF6FF72C26056
:102330000361836104F0FAFE48BB1C4804F056FFB9
:1023400040BB0423079350230893002309930B9366
:1023500007A9164805F0C2F9F8B9002304930693BB
:1023600004A9124805F07EFBD0B900220092012397
:1023700001930292039269460C4805F099F890B9CE
:1023800000210A4805F096FA0DB05DF804FBFFF74E
:102390001BFDD2E7FFF718FDD3E7FFF715FDDCE7DC
:1023A000FFF712FDE1E7FFF70FFDE9E778200024D2
:1023B0000004004000B58BB00023059306930793FB
:1023C000089309930368344A934205D0334A9342F1
:1023D00037D00BB05DF804FB314BD3F8F02042F05E
:1023E0000102C3F8F020D3F8F02002F001020192BC
:1023F000019AD3F8E02042F01002C3F8E020D3F8AD
:10240000E03003F010030293029B4FF40073059336
:10241000022306930123099305A9224801F042FFF4
:10242000002211461A2000F03FFB1A2000F072FB38
:10243000002211461B2000F037FB1B2000F06AFB36
:10244000C7E7174BD3F8E82042F00202C3F8E820B0
:10245000D3F8E82002F002020392039AD3F8E020B6
:1024600042F00402C3F8E020D3F8E03003F00403A4
:102470000493049B4023059302230693099305A923
:10248000094801F00FFF002211461D2000F00CFB4F
:102490001D2000F03FFB9CE70000014000040040CD
:1024A00000440258001002580008025882B0036825
:1024B000B3F1804F04D0104A93420FD002B070475E
:1024C0000E4BD3F8E82042F00102C3F8E820D3F81D
:1024D000E83003F001030093009BEFE7074BD3F8CC
:1024E000E82042F00402C3F8E820D3F8E83003F013
:1024F00004030193019BE1E70008004000440258F7
:1025000000B589B0002303930493059306930793C2
:102510000368B3F1804F05D0194A934219D009B02E
:102520005DF804FB174BD3F8E02042F00102C3F83A
:10253000E020D3F8E03003F001030193019B012375
:10254000039302220492079303A90F4801F0AAFE05
:10255000E5E70C4BD3F8E02042F00202C3F8E0209C
:10256000D3F8E03003F002030293029B402303936D
:1025700002230493079303A9044801F093FECEE7D6
:1025800000080040004402580000025800040258AD
:1025900000B58BB000230793089309930093019330
:1025A0000293039304930593069318484FF08042D7
:1025B00002600922426083606322C260036183611A
:1025C00004F0E4FDC8B900230793099307A90F4855
:1025D00005F048FAA0B9602300933223019300224A
:1025E000029204926946094804F07AFE58B90748F5
:1025F000FFF786FF0BB05DF804FBFFF7E5FBE2E7B2
:10260000FFF7E2FBE7E7FFF7DFFBF0E72C20002412
:1026100000B58BB0002307930893099300930193AF
:10262000029303930493059306931848184A026093
:102630000222426083600122C2600361836104F070
:10264000A5FDC8B900230793099307A90F4805F012
:1026500009FAA0B96023009301230193002202929A
:1026600004926946094804F03BFE58B90748FFF751
:1026700047FF0BB05DF804FBFFF7A6FBE2E7FFF7AF
:10268000A3FBE7E7FFF7A0FBF0E700BFC4200024AF
:102690000008004010B504460268204B9A4204D05E
:1026A00022681F4B9A421BD010BD037F012BF7D12C
:1026B0001C4B1B6843B11B4B1B68012B0AD0194AEA
:1026C000136801331360EBE701220421164801F07F
:1026D000FDFEF0E700220421134801F0F7FEEEE7CB
:1026E000237F012BE0D1114B1869114A1168114B5E
:1026F00023F81100126833F812204EF660239A4234
:1027000006D90B4B1A680B4B4EF6602123F81210BA
:10271000074A136801331360C6E700BF0000014099
:1027200000040040F80A002400000258000C02587F
:10273000FC0A0024A81B002408B51A481A4B0360A1
:102740004FF4E133436000238360C36003610C22D4
:1027500042618361C36103624362836206F068FC85
:1027600098B900210F4806F0A3FD88B900210D4853
:1027700006F0C3FD78B90B4806F07BFD70B9012265
:102780000A49084806F026FD08BDFFF71DFBE8E7EB
:10279000FFF71AFBEAE7FFF717FBECE7FFF714FB7D
:1027A000EDE700BF24230024001001401421002481
:1027B00030B5B9B00446002133913491359136914A
:1027C0003791C02202A806F0E7FD22682F4B9A42FB
:1027D00001D039B030BD01220023CDE9022302A887
:1027E00002F0A6FD00284AD1294BD3F8F02042F090
:1027F0001002C3F8F020D3F8F02002F0100200928B
:10280000009AD3F8E02042F00102C3F8E020D3F8A8
:10281000E03003F001030193019B4FF4C063339355
:10282000022334930025359536930723379333A934
:10283000184801F037FD1848184B03602A234360FD
:1028400040238360C5604FF4806303614561856107
:10285000C5614FF480330362456200F091FB88B993
:102860000D4BE3679C6300221146252000F01CF904
:10287000252000F04FF9E06F00F082FBA9E7FFF799
:10288000A3FAB1E7FFF7A0FAEAE700BF00100140A2
:102890000044025800000258AC22002410000240FC
:1028A00008B502681B4B9A4200D008BD1A4A13882B
:1028B000B2F90020002A09DB13F4804F11D0174A27
:1028C00012780A2A08D0144B00221A8001221349D8
:1028D000134806F07FFCE8E7124A1A430E4B1A80B1
:1028E000F4E70E4A12780D2A0ED0C3F30D010E48FC
:1028F000425401339BB2084A1380B3F5C87FE5D335
:10290000134600221A80E1E743F48043024A138011
:10291000DCE700BF00100140A8220024142100249D
:10292000242300240080FFFF18210024DFF834D086
:10293000FFF72CFC0C480D490D4A002302E0D45847
:10294000C4500433C4188C42F9D30A4A0A4C0023F9
:1029500001E013600432A242FBD306F0F9FCFFF75A
:10296000D7FA70470000082400000024C80900249A
:102970009CF90008C809002404240024FEE7000094
:10298000104B1B780BB90120704710B504464FF46B
:102990007A70B0FBF3F30C4A1068B0FBF3F000F070
:1029A000C7F868B90F2C01D901200AE0002221469E
:1029B0004FF0FF3000F078F8044B1C60002000E07E
:1029C000012010BD140000240C0000241800002475
:1029D00010B5032000F056F802F002F90F498B6998
:1029E000C3F303230E4AD35C03F01F03D8408B6963
:1029F00003F00F03D35C03F01F0320FA03F3094A2B
:102A00001360094B18600F20FFF7BAFF10B10124C3
:102A1000204610BD0446FFF73FFBF9E7004402588B
:102A200048F50008100000240C000024034B1B781C
:102A3000034A11680B441360704700BF1400002460
:102A4000B8230024014B1868704700BFB823002446
:102A500038B50446FFF7F6FF0546B4F1FF3F02D054
:102A6000044B1B781C44FFF7EDFF401BA042FAD338
:102A700038BD00BF14000024014B1868000C7047DB
:102A80000010005C0649CB6823F4E0631B041B0CB8
:102A9000000200F4E0600343024A1A43CA60704730
:102AA00000ED00E00000FA0500B5174BDB68C3F34A
:102AB0000223C3F1070CBCF1040F28BF4FF0040C34
:102AC00003F1040EBEF1060F14D9033B4FF0FF3E95
:102AD0000EFA0CFC21EA0C0199400EFA03F322EAEB
:102AE00003031943002807DB0901C9B2074B195436
:102AF0005DF804FB0023E9E700F00F000901C9B20B
:102B0000034B1954F4E700BF00ED00E000E400E0DF
:102B100014ED00E0002807DB00F01F02400901234C
:102B20009340024A42F82030704700BF00E100E0C5
:102B30000138B0F1807F0BD24FF0E0235861054A95
:102B4000F02182F823100020986107221A61704753
:102B50000120704700ED00E0F0B4876D0468664E18
:102B6000664DAC4218BFB44242D01835AC423FD09B
:102B70001835AC423CD01835AC4239D01835AC428F
:102B800036D01835AC4233D01835AC4230D005F5CC
:102B90005675AC422CD01835AC4229D01835AC4211
:102BA00026D01835AC4223D01835AC4220D0183589
:102BB000AC421DD01835AC421AD01835AC4217D0F3
:102BC0004F4DAC4214D01435AC4211D01435AC4248
:102BD0000ED01435AC420BD01435AC4208D01435AD
:102BE000AC4205D01435AC4202D01435AC4207D10A
:102BF000446E856E6560C46E14B1046F456F656088
:102C000004683D4E3D4DAC4218BFB44252D0183519
:102C1000AC424FD01835AC424CD01835AC4249D0FC
:102C20001835AC4246D01835AC4243D01835AC42CA
:102C300040D005F55675AC423CD01835AC4239D081
:102C40001835AC4236D01835AC4233D01835AC42CA
:102C500030D01835AC422DD01835AC422AD01835BA
:102C6000AC4227D0264E274DAC4218BFB44211D0FB
:102C7000254DAC420ED01435AC420BD01435AC42CD
:102C800008D01435AC4205D01435AC4202D014350E
:102C9000AC4224D1C46D04F01F050124AC407C601B
:102CA000046863608368402B20D0036899600368E0
:102CB000DA6014E0C46D04F01F0C3F2404FA0CF435
:102CC000BC6005682C6824F480242C600468636070
:102CD0008368402B05D0036899600368DA60F0BC14
:102CE000704703689A600368D960F8E703689A60E0
:102CF0000368D960F3E700BF1000024028000240DB
:102D0000085402581C54025830540258036827498A
:102D1000274A934218BF8B422FD0183293422CD0AF
:102D20001832934229D01832934226D01832934257
:102D300023D01832934220D0183293421DD002F58E
:102D40005672934219D01832934216D018329342D9
:102D500013D01832934210D0183293420DD018324B
:102D600093420AD01832934207D01832934204D0CB
:102D700023F0FF038365806D704710B4D9B210391A
:102D80000C4AA2FB0142C2F302120B4CA25CC265C8
:102D90005F2906D9094A1A4004328265806D10BC49
:102DA0007047064A1A408265F8E700BF10000240EB
:102DB00028000240ABAAAAAA58F5000800FCFFFFB1
:102DC00083699BB9836A012B0AD0022B02D00BB115
:102DD00000207047C36A13F0807F2AD1002070471B
:102DE000C36AB3F1C07F26D000207047B3F5005FFF
:102DF0000AD0836A022B26D9032B26D1C36A13F08B
:102E0000807F24D100207047836A032B03D8DFE83A
:102E100003F01404140A00207047C36A13F0807F83
:102E20000DD100207047C36AB3F1C07F09D00020E4
:102E30007047012070470120704701207047012032
:102E40007047012070470120704700207047012023
:102E50007047000003682249224A934218BF8B4200
:102E600028D01432934225D01432934222D0143207
:102E700093421FD0143293421CD01432934219D083
:102E80001432934216D0DAB2103A1749A1FB02125B
:102E9000120916491944A8291FD9154B13449B0040
:102EA0000366144B436602F01F02012303FA02F289
:102EB00082667047DBB2083B0F4AA2FB03230F4A2E
:102EC00002EB1312920002660D4A4266C3F304132A
:102ED000012202FA03F3836670470832DDE700BF80
:102EE000085402581C540258ABAAAAAAF0FBFDBF12
:102EF0000082001080080240CDCCCCCC0096001699
:102F00008058025801794A1E072A2CD830B4036829
:102F1000154D164CA34218BFAB4218D01434A3422F
:102F200015D01434A34212D01434A3420FD0143459
:102F3000A3420CD01434A34209D01434A34206D0C7
:102F40000B4B0B449B00C3660A4B036705E00A4B1F
:102F50000B449B00C366094B0367012303FA02F28B
:102F6000426730BC70477047085402581C540258DE
:102F70003F820010400902403F9600164059025817
:102F800070B50446FFF75EFD002C00F0B6810546E3
:102F900023685349534A934218BF8B420CBF012206
:102FA000002250D030318B424DD018318B424AD064
:102FB00018318B4247D018318B4244D018318B42A4
:102FC00041D018318B423ED001F556718B423AD038
:102FD00018318B4237D018318B4234D018318B42A4
:102FE00031D018318B422ED018318B422BD0183172
:102FF0008B4228D018318B4225D03B493B4A934223
:1030000018BF8B4200F03181394A934200F02D8184
:103010001432934200F029811432934200F025814A
:103020001432934200F021811432934200F01D814A
:103030001432934200F0198140236365032384F81E
:10304000353001204AE0022184F83510002184F84F
:1030500034107ABB274A93422CD01832934229D09D
:103060001832934226D01832934223D0183293421A
:1030700020D0183293421DD002F55672934219D0D7
:103080001832934216D01832934213D0183293421A
:1030900010D0183293420DD0183293420AD0183211
:1030A000934207D01832934204D01A6822F00102EA
:1030B0001A6003E01A6822F001021A6023681A6895
:1030C00012F0010F18D0FFF7BDFC431B052BF5D9FB
:1030D00020236365032384F83530012070BD00BFD1
:1030E0001000024028000240085402581C540258A4
:1030F00030540258400002401A6881481040A168CC
:10310000E2680A4321690A4361690A43A1690A43E3
:10311000E1690A43216A0A430243616A042900F013
:1031200099807849086878490140B1F1005F11D36E
:103130006168A1F12905A1F13F00032888BF052D91
:1031400006D9A1F14700012802D94F39032901D836
:1031500042F480121A602668756925F00705636AD3
:103160001D43042B08D1A36A1D43E36A23B1204603
:10317000FFF726FE002872D175612046FFF7C6FDD5
:10318000E36D03F01F023F239340836023685F4990
:103190005F4A934218BF8B4242D0183293423FD0CD
:1031A000183293423CD01832934239D018329342AD
:1031B00036D01832934233D01832934230D002F5D1
:1031C000567293422CD01832934229D0183293422F
:1031D00026D01832934223D01832934220D018328E
:1031E00093421DD0183293421AD01832934217D00E
:1031F000484A934214D01432934211D0143293426D
:103200000ED0143293420BD01432934208D01432B1
:10321000934205D01432934202D01432934213D118
:103220002046FFF717FEA368802B59D0236E227922
:103230001A60636EA26E5A606368013B072B52D915
:103240000023E3662367636700206065012384F839
:10325000353043E7E16A206B01430A4361E74023CD
:103260006365012084F8350038E7022284F83520B0
:10327000002284F834201A6827491140A268402AA5
:103280002CD0802A27D00022E06842EAD0022069B0
:1032900042EAD002606942EAD002A06942EAD00262
:1032A000E06942EAD002206A42EA10120A431A6038
:1032B00022681A4B13441A4AA2FB03231B099B00E2
:1032C000E3652046FFF722FDE26D02F01F010122B7
:1032D0008A4042605AE74FF48042D5E71022D3E794
:1032E00000236360A2E72046FFF70CFEE36E002296
:1032F0001A60236F626F5A60A6E70120EEE600BFF6
:103300003F8010FE0010005C0000FFFF1000024034
:1033100028000240085402580F00FEFFF8ABFDA73A
:10332000CDCCCCCC002800F03E8170B5044690F89E
:103330003400012800F03981012084F8340094F829
:103340003500C0B2012807D04FF400636365002345
:1033500084F83430012070BD022084F8350000204C
:1033600060652068924E934DA84218BFB0422FD09E
:103370001835A8422CD01835A84229D01835A842B3
:1033800026D01835A84223D01835A84220D01835A9
:10339000A8421DD005F55675A84219D01835A84287
:1033A00016D01835A84213D01835A84210D01835B9
:1033B000A8420DD01835A8420AD01835A84207D027
:1033C0001835A84204D0056825F00105056003E022
:1033D000056825F0010505602046FFF7BDFB236861
:1033E0007349744A934218BF8B4238D018329342C3
:1033F00035D01832934232D0183293422FD018323F
:1034000093422CD01832934229D01832934226D0BE
:1034100002F55672934222D0183293421FD01832CE
:1034200093421CD01832934219D01832934216D0CE
:103430001832934213D01832934210D0183293426C
:103440000DD01A6822F00E0242F00A021A60236CB4
:1034500093B12268136843F0040313600CE01A6808
:1034600022F01E0242F016021A60236C23B1226879
:10347000136843F00803136023684D494D4A934293
:1034800018BF8B4242D0183293423FD01832934239
:103490003CD01832934239D01832934236D0183289
:1034A000934233D01832934230D002F55672934291
:1034B0002CD01832934229D01832934226D0183299
:1034C000934223D01832934220D0183293421DD019
:1034D000183293421AD01832934217D0364A934288
:1034E00014D01432934211D0143293420ED01432BD
:1034F00093420BD01432934208D01432934205D039
:103500001432934202D0143293420ED1236E1A68C1
:1035100012F4803F03D01A6842F480721A60E36E9E
:103520001BB11A6842F480721A6023682049214A4C
:10353000934218BF8B4230D0183293422DD01832AC
:1035400093422AD01832934227D01832934224D083
:103550001832934221D0183293421ED002F556728F
:1035600093421AD01832934217D01832934214D093
:103570001832934211D0183293420ED0183293422F
:103580000BD01832934208D01832934205D01A68F3
:1035900042F001021A600020DDE61A6842F00102E2
:1035A0001A600020D7E6012070470220D3E600BF52
:1035B00010000240280002400854025870B504462A
:1035C000FFF740FA002C00F09181054694F8353061
:1035D000DBB2022B06D080236365002384F83430ED
:1035E000012070BD23688C498C4A934218BF8B42DE
:1035F00030D0183293422DD0183293422AD018324C
:10360000934227D01832934224D01832934221D0CB
:10361000183293421ED002F5567293421AD01832D5
:10362000934217D01832934214D01832934211D0DB
:10363000183293420ED0183293420BD01832934274
:1036400008D01832934205D01A6822F00E021A6090
:10365000266809E01A6822F01E021A60226853697F
:1036600023F080035361266823686B496B4A9342B9
:1036700018BF8B4242D0183293423FD01832934247
:103680003CD01832934239D01832934236D0183297
:10369000934233D01832934230D002F5567293429F
:1036A0002CD01832934229D01832934226D01832A7
:1036B000934223D01832934220D0183293421DD027
:1036C000183293421AD01832934217D0544A934278
:1036D00014D01432934211D0143293420ED01432CB
:1036E00093420BD01432934208D01432934205D047
:1036F0001432934202D01432934204D1226E1368E2
:1037000023F48073136023684349444A934218BFEB
:103710008B422FD0183293422CD01832934229D0AA
:103720001832934226D01832934223D01832934253
:1037300020D0183293421DD002F55672934219D010
:103740001832934216D01832934213D01832934253
:1037500010D0183293420DD0183293420AD018324A
:10376000934207D01832934204D01A6822F0010223
:103770001A6003E01A6822F001021A60336813F03D
:10378000010F0ED0FFF75EF9431B052BF6D920235E
:103790006365032384F83530002384F83430012036
:1037A0001FE723681C491D4A934218BF8B4239D03A
:1037B0001832934236D01832934233D018329342A3
:1037C00030D0183293422DD0183293422AD018327A
:1037D000934227D002F55672934223D01832934277
:1037E00020D0183293421DD0183293421AD018328A
:1037F000934217D01832934214D01832934211D00A
:10380000183293420ED0A16DE36D03F01F02012325
:1038100093404B600DE000BF1000024028000240C2
:1038200008540258A16DE36D03F01F023F2393403B
:103830008B6023682E492F4A934218BF8B4242D097
:10384000183293423FD0183293423CD01832934200
:1038500039D01832934236D01832934233D01832CE
:10386000934230D002F5567293422CD018329342D4
:1038700029D01832934226D01832934223D01832DE
:10388000934220D0183293421DD0183293421AD05E
:103890001832934217D0184A934214D014329342EC
:1038A00011D0143293420ED0143293420BD0143202
:1038B000934208D01432934205D01432934202D07E
:1038C000143293420BD1636EA26E5A60E36E33B131
:1038D0001A6822F480721A60236F626F5A600123A3
:1038E00084F83530002084F834007AE6012078E648
:1038F000100002402800024008540258002800F03E
:10390000298108B5024690F83530DBB2022B03D08E
:1039100080234365012008BD0368904890498B428D
:1039200018BF83420CBF0121002166D03030834292
:1039300063D01830834260D0183083425DD0183095
:1039400083425AD01830834257D01830834254D023
:1039500000F55670834250D0183083424DD0183055
:1039600083424AD01830834247D01830834244D033
:103970001830834241D0183083423ED01830834201
:103980003BD0196821F00E0119601368A0F595600D
:1039900073498B4218BF83426AD072498B4267D009
:1039A00018318B4264D018318B4261D018318B4270
:1039B0005ED018318B425BD018318B4258D001F564
:1039C00056718B4254D018318B4251D018318B42F2
:1039D0004ED018318B424BD018318B4248D0183121
:1039E0008B4245D018318B4242D018318B423FD0A8
:1039F000196821F0010119603EE0042082F83500C9
:103A000081BB584A93422DD0183293422AD01832A3
:103A1000934227D01832934224D01832934221D0B7
:103A2000183293421ED002F5567293421AD01832C1
:103A3000934217D01832934214D01832934211D0C7
:103A4000183293420ED0183293420BD01832934260
:103A500008D01832934205D01A6822F001021A6089
:103A6000002058E71A6822F001021A60002052E78D
:103A7000196821F0010119601368384838498B42F0
:103A800018BF834242D018318B423FD018318B424D
:103A90003CD018318B4239D018318B4236D0183196
:103AA0008B4233D018318B4230D001F556718B42A6
:103AB0002CD018318B4229D018318B4226D01831A6
:103AC0008B4223D018318B4220D018318B421DD02D
:103AD00018318B421AD018318B4217D022498B42B1
:103AE00014D014318B4211D014318B420ED01431CA
:103AF0008B420BD014318B4208D014318B4205D04D
:103B000014318B4202D014318B4217D1116E0B68E5
:103B100023F480730B60906DD36D03F01F010123BC
:103B20008B404360536E916E5960D36E33B1196808
:103B300021F480711960136F516F5960012382F86D
:103B40003530002382F83430136D2BB1104698477E
:103B50000020E0E6012070470020DCE61000024073
:103B6000280002404000024008540258F0B583B0DB
:103B70000446002301937D4B1D687D4BA3FB053557
:103B8000AD0A876D3E68D7F800C0036879497A4866
:103B9000834218BF8B420CBF0120002061D0774ABE
:103BA00093425ED0183293425BD01832934258D081
:103BB0001832934255D01832934252D01832934261
:103BC0004FD002F5567293424BD01832934248D0F0
:103BD0001832934245D01832934242D01832934261
:103BE0003FD0183293423CD01832934239D0183229
:103BF000934236D06249634A934218BF8B4212D037
:103C0000614A93420FD0143293420CD01432934243
:103C100009D01432934206D01432934203D01432A6
:103C2000934240F061821A68E16D01F01F010420A7
:103C3000884010EA0C0F00F0A78212F0040F00F089
:103C4000A382786012F4004F00F05A8212F4803F91
:103C500040F05082A36C002B00F04682204698472B
:103C600042E2E26D02F01F0108228A40324241D056
:103C700070BB424A93422BD01832934228D018325C
:103C8000934225D01832934222D0183293421FD04B
:103C9000183293421CD002F55672934218D0183253
:103CA000934215D01832934212D0183293420FD05B
:103CB000183293420CD01832934209D018329342F2
:103CC00006D01832934203D01A68C2F3C00202E051
:103CD0001A68C2F380026AB11A6822F004021A60FC
:103CE000E36D03F01F0208239340BB60636D43F054
:103CF00001036365E26D02F01F0226FA02F313F07E
:103D0000010F47D023681B481B498B4218BF8342D1
:103D10003CD018318B4239D018318B4236D0183113
:103D20008B4233D018318B4230D018318B422DD09A
:103D300018318B422AD001F556718B4226D01831AA
:103D40008B4223D018318B4220D018318B421DD0AA
:103D500018318B421AD018318B4217D018318B4250
:103D600014D018318B4211D01B6813E00C000024D2
:103D7000B5814E1B10000240280002404000024066
:103D8000085402581C540258305402585B6913F00E
:103D9000800F3BD1E36D03F01F03042202FA03F30B
:103DA000334240D02268964896498A4218BF8242E0
:103DB00035D018318A4232D018318A422FD018318A
:103DC0008A422CD018318A4229D018318A4226D012
:103DD00018318A4223D001F556718A421FD018311A
:103DE0008A421CD018318A4219D018318A4216D022
:103DF00018318A4213D018318A4210D018318A42C1
:103E00000DD018318A420AD013680CE0012303FA5E
:103E100002F2BA60636D43F002036365BAE71268A9
:103E200012F0020F3DD1E36D03F01F03102202FADE
:103E300003F333425FD02268714872498A4218BF47
:103E4000824234D018318A4231D018318A422ED081
:103E500018318A422BD018318A4228D018318A4230
:103E600025D018318A4222D001F556718A421ED0DF
:103E700018318A421BD018318A4218D018318A4230
:103E800015D018318A4212D018318A420FD0183119
:103E90008A420CD018318A4209D01268C2F38002DB
:103EA00008E0BB60636D43F004036365BBE7126821
:103EB000C2F3C002FAB1BB6023681A6812F4802F03
:103EC0000DD01B6813F4002F04D1236C9BB1204646
:103ED000984710E0A36C73B1204698470BE01A682E
:103EE00012F4807F03D11A6822F008021A60236C52
:103EF0000BB120469847E36D03F01F03202202FA1E
:103F000003F3334200F0928022683D483D498A42E3
:103F100018BF82422ED018318A422BD018318A42E3
:103F200028D018318A4225D018318A4222D018313F
:103F30008A421FD018318A421CD001F556718A423C
:103F400018D018318A4215D018318A4212D018314F
:103F50008A420FD018318A420CD018318A4209D0D7
:103F600018318A4206D018318A4203D01268C2F34F
:103F7000400202E01268C2F30012002A56D0BB6071
:103F800094F83530DBB2042B0ED023681A6812F493
:103F9000802F39D01B6813F4002F2CD1636C002BB9
:103FA00044D02046984741E02268136823F0160366
:103FB00013602268536923F080035361236CB3B10B
:103FC0002268136823F008031360E36D03F01F02F7
:103FD0003F239340BB60012384F83530002384F8ED
:103FE0003430236D002B7FD0204698477CE0A36CB3
:103FF000002BE5D1E9E7E36BC3B12046984715E014
:1040000010000240280002401A6812F4807F09D193
:104010001A6822F010021A60012384F83530002358
:1040200084F83430E36B0BB120469847636D002B66
:104030005AD0636D13F0010F52D0042384F8353049
:1040400023689649964A934218BF8B422FD0183264
:1040500093422CD01832934229D01832934226D062
:104060001832934223D01832934220D01832934210
:104070001DD002F55672934219D01832934216D0D1
:104080001832934213D01832934210D01832934210
:104090000DD0183293420AD01832934207D018320A
:1040A000934204D01A6822F001021A6003E01A68F1
:1040B00022F001021A60019B01330193AB4204D844
:1040C00023681B6813F0010FF5D123681B6813F0F8
:1040D000010F0BD0032384F83530002384F83430EB
:1040E000E36C0BB12046984703B0F0BD012384F880
:1040F0003530F2E7236C002BF6D020469847F3E7E3
:1041000012F0200F3AD123686449654A934218BFE0
:104110008B422FD0183293422CD01832934229D0A0
:104120001832934226D01832934223D01832934249
:1041300020D0183293421DD002F55672934219D006
:104140001832934216D01832934213D01832934249
:1041500010D0183293420DD0183293420AD0183240
:10416000934207D01832934204D01A6822F0040216
:104170001A6003E01A6822F008021A60236C002B10
:10418000B2D020469847AFE70220884010EA0C0FD3
:1041900060D012F0020F5DD0786012F4004F0ED0A4
:1041A00012F4803F05D1636C002B9DD020469847C8
:1041B0009AE7E36B002B97D02046984794E712F0DC
:1041C000200F40D123683549354A934218BF8B42AE
:1041D0002FD0183293422CD01832934229D0183263
:1041E000934226D01832934223D01832934220D0E3
:1041F000183293421DD002F55672934219D01832EC
:10420000934216D01832934213D01832934210D0F2
:10421000183293420DD0183293420AD0183293428A
:1042200007D01832934204D01A6822F00A021A60AA
:1042300003E01A6822F014021A60012384F8353072
:10424000002384F83430E36B002B3FF44DAF20465D
:10425000984749E7082000FA01F111EA0C0F3FF4F2
:1042600043AF12F0080F3FF43FAF1A6822F00E027E
:104270001A60E36D03F01F03012202FA03F37B606F
:10428000626584F83520002384F83430E36C002B19
:104290003FF42AAF2046984726E700BF10000240AF
:1042A0002800024070B582B000236EE085685E0091
:1042B0000324B44025EA0405CC68B4402C43846050
:1042C000446824EA0C0C4C68C4F300149C4044EA93
:1042D0000C0444606CE0DD08083550F8256003F0FC
:1042E00007044FEA840C0F2404FA0CF426EA040EA7
:1042F0000C6904FA0CF444EA0E0440F825406FE01F
:10430000092400E0002404FA0EF42C430CF1020C02
:104310006B4D45F82C404FF0B0442568D44325EA56
:104320000206D1F804C01CF4801F01D042EA050641
:104330004FF0B0452E606D6804EA0506D1F804C060
:104340001CF4001F01D042EA05064FF0B0456E6034
:10435000D5F8845004EA0506D1F804C01CF4003FE7
:1043600001D042EA05064FF0B045C5F88460D5F8A3
:1043700080502C404E6816F4803F01D042EA05047C
:104380004FF0B042C2F8804001330A6832FA03F4B9
:1043900000F093804FF0010C0CFA03FC1CEA0202BF
:1043A000F2D04C6804F00304013C012C7FF67EAF90
:1043B0004C6804F00304032C0CD0C4685D004FF07B
:1043C000030C0CFA05FC24EA0C0C8C68AC4044EAA3
:1043D0000C04C4604C6804F00304022C3FF47BAF6F
:1043E00004684FEA430E4FF0030C0CFA0EFC24EA6B
:1043F0000C0C4C6804F0030404FA0EF444EA0C04B8
:1044000004604C6814F4403FBED02E4CD4F8F450F5
:1044100045F00205C4F8F450D4F8F44004F0020466
:104420000194019C4FEA930C0CF10205244C54F8C2
:10443000255003F003044FEA840E0F2404FA0EF40F
:1044400025EA0405204CA0423FF45CAF04F58064EB
:10445000A04222D004F58064A04220D004F58064FC
:10446000A0421ED004F58064A0421CD004F58064F4
:10447000A0421AD004F58064A04218D004F58064EC
:10448000A04216D004F58064A04214D004F58064E4
:10449000A0423FF435AF0A2435E7012433E7022474
:1044A00031E703242FE704242DE705242BE7062416
:1044B00029E7072427E7082425E702B070BD00BFDD
:1044C0000004005800440258000002580AB18161FB
:1044D0007047090481617047134BDB6813F0040FC8
:1044E00007D1114BDB6803F0070383421AD0012088
:1044F000704710B50C4AD36823F007031843D06007
:10450000FEF7A0FA0446084B5B6813F4005F07D17E
:10451000FEF798FA001BB0F57A7FF4D9012000E08D
:10452000002010BD0020704700480258002800F00D
:10453000398338B50446036813F0010F25D0944A37
:10454000136903F03803926A102B15D0182B0FD083
:104550006368B3F5803F3FD0002B53D18C4B1A6872
:1045600022F480321A601A6822F480221A6038E03D
:1045700002F00302022AEBD1854B1B6813F4003FC3
:1045800003D06368002B00F00F83236813F0020F41
:1045900000F0A1807E4A1369926A13F038035AD062
:1045A000182B55D0E368002B00F0DE8078490A68AC
:1045B00022F0190213430B60FEF744FA0546744BD0
:1045C0001B6813F0040F40F0AD80FEF73BFA401B70
:1045D0000228F4D90320EEE26D4A136843F48033D5
:1045E000136063682BB3FEF72DFA0546684B1B6812
:1045F00013F4003FC9D1FEF725FA401B6428F5D912
:104600000320D8E2B3F5A02F09D0614B1A6822F439
:1046100080321A601A6822F480221A60E1E75C4B4B
:104620001A6842F480221A601A6842F480321A60D2
:10463000D7E7FEF707FA0546554B1B6813F4003F12
:10464000A3D0FEF7FFF9401B6428F5D90320B2E29E
:1046500012F0030FA6D14E4B1B6813F0040F03D0CA
:10466000E368002B00F0A282494A136823F0190383
:10467000E1680B431360FEF7E5F90546444B1B6800
:1046800013F0040F06D1FEF7DDF9401B0228F5D91F
:10469000032090E2FEF7F0F941F20303984212D8AA
:1046A0002269402A07D03A494B6823F47C3343EA15
:1046B00002334B600FE0364A536823F47C3343F4F3
:1046C0000033536007E0324A536823F0FE43216908
:1046D00043EA01635360236813F0100F00F08880F1
:1046E0002B4A136903F03803926A082B56D0182B13
:1046F00050D0E369002B00F0B880254A136843F0DE
:1047000080031360FEF79EF90546214B1B6813F4E6
:10471000807F40F08880FEF795F9401B0228F4D98D
:10472000032048E2FEF7A8F941F20303984212D8A9
:104730002269402A07D016494B6823F47C3343EAA8
:1047400002334B60C7E7124A536823F47C3343F4C7
:1047500000335360BFE70E4A536823F0FE432169DC
:1047600043EA01635360B6E7094A136823F0010383
:104770001360FEF767F90546054B1B6813F0040F3D
:10478000A9D0FEF75FF9401B0228F5D9032012E2F9
:104790000044025802F00302012AAAD1A14B1B686F
:1047A00013F4807F03D0E369802B40F00182FEF791
:1047B00063F941F20303984212D8226A202A07D0F3
:1047C00098494B6823F0F84343EA82634B600FE05B
:1047D000944A536823F0F84343F08043536007E062
:1047E000904AD36823F07C53216A43EA0163D36083
:1047F000236813F0080F60D06369002B49D0894A01
:10480000536F43F001035367FEF71CF90546854BD0
:104810005B6F13F0020F50D1FEF714F9401B022812
:10482000F5D90320C7E1FEF727F941F203039842C7
:1048300012D8226A202A07D07A494B6823F0F8431D
:1048400043EA82634B60D3E7764A536823F0F84328
:1048500043F080435360CBE7724AD36823F07C5324
:10486000216A43EA0163D360C2E76E4A136823F00A
:1048700080031360FEF7E6F805466A4B1B6813F4E5
:10488000807FB5D0FEF7DEF8401B0228F5D9032063
:1048900091E1644A536F23F001035367FEF7D2F8A6
:1048A0000546604B5B6F13F0020F06D0FEF7CAF8A7
:1048B000401B0228F5D903207DE1236813F0200F67
:1048C00029D0A3699BB1574A136843F480531360FE
:1048D000FEF7B8F80546534B1B6813F4005F1AD176
:1048E000FEF7B0F8401B0228F5D9032063E14D4ADA
:1048F000136823F480531360FEF7A4F80546494B70
:104900001B6813F4005F06D0FEF79CF8401B0228DA
:10491000F5D903204FE1236813F0040F21D1636A16
:10492000002B00F047813F4A126902F03802182A32
:1049300000F0EE80022B79D03A4A136823F080739E
:104940001360FEF77FF80446364B1B6813F0007FB8
:1049500000F0DC80FEF776F8001B0228F4D9032073
:1049600029E1314A136843F480731360FEF76AF853
:1049700005462D4B1B6813F4807F06D1FEF762F8C5
:10498000401B6428F5D9032015E1A368012B0AD048
:104990000BBB244B1A6F22F001021A671A6F22F028
:1049A00004021A6704E01F4A136F43F00103136700
:1049B000A36833B3FEF746F805461A4B1B6F13F096
:1049C000020FACD1FEF73EF8401B41F2883398420B
:1049D000F3D90320EFE0052B09D0124B1A6F22F018
:1049E00001021A671A6F22F004021A67E0E70D4B02
:1049F0001A6F42F004021A671A6F42F001021A6736
:104A0000D6E7FEF71FF80546064B1B6F13F0020FA3
:104A100085D0FEF717F8401B41F288339842F3D94E
:104A20000320C8E00044025800480258694A13684D
:104A300023F080731360FEF705F80546654B1B688D
:104A400013F0007F06D0FDF7FDFF401B0228F5D9CB
:104A50000320B0E05F4B996A5F4A0A40A16AE06AAE
:104A600041EA00110A439A62226B013AC2F308023A
:104A7000616B0139490289B20A43A16B013909040A
:104A800001F4FE010A43E16B0139090601F0FE4120
:104A90000A431A63DA6A22F00102DA62596B4F4A5A
:104AA0000A40A16C42EAC1025A63DA6A22F00C029F
:104AB000216C0A43DA62DA6A22F00202616C0A436C
:104AC000DA62DA6A42F48032DA62DA6A42F4003296
:104AD000DA62DA6A42F48022DA62DA6A42F00102C9
:104AE000DA621A6842F080721A60FDF7ABFF044682
:104AF000384B1B6813F0007F06D1FDF7A3FF001BA6
:104B00000228F5D9032056E0002054E0002052E0AE
:104B1000304A916A106B012B4ED001F00303A26A58
:104B200093424BD1C1F30511E36A994248D1C0F3D6
:104B30000802236B013B9A4244D1C0F34622636BC7
:104B4000013B9A4240D1C0F30642A36B013B9A421B
:104B50003CD1C0F30660E36B013B984238D11D4B5A
:104B60005B6BC3F3CC03A26C9A4201D1002022E01C
:104B7000184AD36A23F00103D362FDF763FF0546A9
:104B8000FDF760FFA842FBD0124A516B134B0B405C
:104B9000A16C43EAC1035363D36A43F00103D362B8
:104BA000002008E001207047012004E0012002E01D
:104BB000012000E0002038BD0120FCE70120FAE7D9
:104BC0000120F8E70120F6E70120F4E70120F2E7F1
:104BD0000120F0E7004402580CFCFFFF0700FFFF34
:104BE000F8B57E4B1B6903F03803102B00F0F28000
:104BF000182B10D013B17A4C2046F8BD774B1B68A8
:104C000013F0200F00F0E880744B1868C0F3C10067
:104C1000744CC440F0E7714B9D6A05F003059C6A33
:104C2000C4F30514D86A00F001005B6BC3F3CC0336
:104C300003FB00F0FBF71AFC0646002CDCD0012D2C
:104C400076D0022D00F0A4800DB32046FBF70EFCB9
:104C500001466548FBF716FD0446604B186BC0F330
:104C60000800FBF703FC05464FF064513046FBF7A4
:104C700055FC01462846FBF749FB4FF07E51FBF7F8
:104C800045FB01462046FBF749FC044671E0534BC7
:104C90001B6813F0200F29D0504F3B68C3F3C103AA
:104CA0005048D840FBF7E2FB05462046FBF7DEFB09
:104CB00001462846FBF7E6FC0446386BC0F30800C3
:104CC000FBF7D4FB05464FF064513046FBF726FC5A
:104CD00001462846FBF71AFB4FF07E51FBF716FB07
:104CE00001462046FBF71AFC044642E02046FBF74B
:104CF000BDFB01463D48FBF7C5FC0446374B186B2E
:104D0000C0F30800FBF7B2FB05464FF06451304694
:104D1000FBF704FC01462846FBF7F8FA4FF07E51FA
:104D2000FBF7F4FA01462046FBF7F8FB044620E0C7
:104D30002046FBF79BFB01462B48FBF7A3FC0446F0
:104D4000264B186BC0F30800FBF790FB05464FF0AD
:104D500064513046FBF7E2FB01462846FBF7D6FAE2
:104D60004FF07E51FBF7D2FA01462046FBF7D6FB07
:104D700004461A4B1B6BC3F34623581CFBF776FB08
:104D800001462046FBF77EFCFBF718FD044633E79F
:104D90002046FBF76BFB01461548FBF773FC044606
:104DA0000E4B186BC0F30800FBF760FB05464FF095
:104DB00064513046FBF7B2FB01462846FBF7A6FAE2
:104DC0004FF07E51FBF7A2FA01462046FBF7A6FB07
:104DD0000446CEE7074C0FE7024C0DE700440258AB
:104DE00000093D000090D0030024744A0024744C54
:104DF0000024F44A00127A00002800F0328170B5D5
:104E00000D4604469B4B1B6803F00F038B420BD2ED
:104E1000984A136823F00F030B431360136803F0E1
:104E20000F038B4240F01F81236813F0040F0CD056
:104E30002269914B9B6903F070039A4205D98E4910
:104E40008B6923F070031A438A61236813F0080FFB
:104E50000CD06269884BDB6903F070039A4205D974
:104E60008549CB6923F070031A43CA61236813F0A4
:104E7000100F0CD0A269804BDB6903F4E0639A4207
:104E800005D97D49CB6923F4E0631A43CA612368DD
:104E900013F0200F0CD0E269774B1B6A03F070030C
:104EA0009A4205D974490B6A23F070031A430A62C7
:104EB000236813F0020F0CD0E2686F4B9B6903F07C
:104EC0000F039A4205D96C498B6923F00F031A43EB
:104ED0008A61236813F0010F41D0674A936923F474
:104EE0007063A1680B4393616368022B0AD0032BA4
:104EF00027D0012B2CD0604A126812F0040F06D183
:104F00000120ADE0126812F4003F00F0AE805A4973
:104F10000A6922F0070213430B61FDF793FD064671
:104F2000554B1B6903F038036268B3EBC20F16D010
:104F3000FDF788FD801B41F288339842F0D90320A9
:104F40008EE04D4A126812F0007FE0D1012087E028
:104F5000494A126812F4807FD9D1012080E0236889
:104F600013F0020F0CD0E268434B9B6903F00F0370
:104F70009A4205D240498B6923F00F031A438A6194
:104F80003C4B1B6803F00F03AB420AD9394A136844
:104F900023F00F032B431360136803F00F03AB429E
:104FA00065D1236813F0040F0CD02269324B9B6942
:104FB00003F070039A4205D22F498B6923F07003E6
:104FC0001A438A61236813F0080F0CD062692A4BD8
:104FD000DB6903F070039A4205D22749CB6923F0BD
:104FE00070031A43CA61236813F0100F0CD0A26932
:104FF000214BDB6903F4E0639A4205D21E49CB6979
:1050000023F4E0631A43CA61236813F0200F0CD025
:10501000E269194B1B6A03F070039A4205D21649E4
:105020000B6A23F070031A430A62FFF7D9FD124995
:105030008B69C3F30323114AD35C03F01F03D840E9
:105040008B6903F00F03D35C03F01F0320FA03F313
:105050000B4A13600B4B18600B4B1868FDF790FC64
:1050600070BD012070470120FAE70120F8E7012018
:10507000F6E700BF002000520044025848F500083F
:10508000100000240C0000241800002408B5FFF7CD
:10509000A7FD0B4A9369C3F303230A49CB5C03F0D2
:1050A0001F0320FA03F3926902F00F02885C00F0FC
:1050B0001F0023FA00F0044A1060044A136008BD80
:1050C0000044025848F50008100000240C00002499
:1050D00008B5FFF7DBFF054BDB69C3F30213044A96
:1050E000D35C03F01F03D84008BD00BF0044025842
:1050F00048F5000808B5FFF7C9FF054BDB69C3F3A6
:105100000223044AD35C03F01F03D84008BD00BF4C
:105110000044025848F50008404B9B6A03F0030323
:10512000032B79D070B505460E463C4A136823F030
:1051300080631360FDF786FC0446384B1B6813F050
:10514000006F06D0FDF77EFC031B022BF5D9032070
:1051500070BD324B9A6A22F47C32296842EA0132ED
:105160009A626A68013AC2F30802A96801394902E1
:1051700089B20A43E9680139090401F4FE010A43CE
:1051800029690139090601F0FE410A439A63DA6A86
:1051900022F0C00269690A43DA62DA6A22F0200268
:1051A000A9690A43DA62DA6A22F01002DA62D96B7C
:1051B0001B4A0A40E96942EAC102DA63DA6A42F04C
:1051C0001002DA62C6B91A46DB6A43F40023D362DE
:1051D000124A136843F080631360FDF733FC044602
:1051E0000E4B1B6813F0006F14D1FDF72BFC001B56
:1051F0000228F5D90320ABE7012E05D0074AD36A70
:1052000043F40013D362E3E7044AD36A43F4801300
:10521000D362DDE700209BE701207047004402587D
:105220000700FFFF404B9B6A03F00303032B79D079
:1052300070B505460E463C4A136823F08053136050
:10524000FDF700FC0446384B1B6813F0005F06D0E6
:10525000FDF7F8FB031B022BF5D9032070BD324B81
:105260009A6A22F07C72296842EA01529A626A685C
:10527000013AC2F30802A9680139490289B20A4316
:10528000E9680139090401F4FE010A432969013979
:10529000090601F0FE410A431A64DA6A22F4406208
:1052A00069690A43DA62DA6A22F40072A9690A4378
:1052B000DA62DA6A22F48072DA62596C1B4A0A40B6
:1052C000E96942EAC1025A64DA6A42F48072DA6237
:1052D000C6B91A46DB6A43F48003D362124A1368E4
:1052E00043F080531360FDF7ADFB04460E4B1B6883
:1052F00013F0005F14D1FDF7A5FB001B0228F5D9C0
:105300000320ABE7012E05D0074AD36A43F0807330
:10531000D362E3E7044AD36A43F40003D362DDE7D0
:1053200000209BE701207047004402580700FFFF60
:10533000F8B50446036813F0006F30D0836EB3F500
:10534000001F26D00ED8EBB1B3F5801F07D1022184
:105350000830FFF7E1FE054645B12E4621E0012663
:1053600035461EE0B3F5401F09D10025984A136D5C
:1053700023F44013A16E0B431365002611E00126B0
:1053800035460EE0924AD36A43F40033D3620025D7
:10539000ECE702212830FFF745FF0546DCE7002651
:1053A0003546236813F4807F14D0A36D042B32D8C4
:1053B000DFE803F003232A080800854AD36A43F490
:1053C0000033D36255BB824A136D23F00703A16DEE
:1053D0000B431365236813F4007F31D0E36D802BFA
:1053E0004CD020D8002B43D0402B19D1002104F100
:1053F0000800FFF791FE05461AE0002104F10800BD
:10540000FFF78AFE0546DDE7002104F12800FFF7DB
:1054100009FF0546D6E701263546DBE72E46D9E7E4
:10542000012635460CE0C02B02D0B3F5807F1CD19D
:105430005DBB674A136D23F4E073E16D0B431365A5
:10544000236813F4806F46D0D4F8A830B3F5800FEA
:1054500039D01FD88BB3B3F5001F18D1002104F148
:105460000800FFF759FE05461AE001263546E7E732
:10547000574AD36A43F40033D362D9E7002104F1D9
:105480002800FFF7CFFE0546D2E72E46D8E70126D3
:10549000354620E0B3F5C00F02D0B3F5000F09D1B7
:1054A000C5B94B4A936D23F46003D4F8A8100B439D
:1054B000936510E0012635460DE0454AD36A43F472
:1054C0000033D362ECE7002104F12800FFF7AAFEC5
:1054D0000546E5E72E46236813F4006F24D0D4F880
:1054E000AC30B3F1007F42D00ED8002B39D0B3F1ED
:1054F000807F06D1002104F10800FFF70DFE05466C
:1055000008E0012635460FE0B3F1407F02D0B3F149
:10551000806F23D1002D31D12D4A936D23F0E063AC
:10552000D4F8AC100B439365236813F0007F2ED0A2
:10553000E36C202B40D026D833B1102B20D1244A45
:10554000D36A43F40033D362002D3CD1204AD36C9C
:1055500023F03003E16C0B43D36418E00126354699
:10556000E2E71B4AD36A43F40033D362D2E7002157
:1055700004F12800FFF756FE0546CBE72E46D3E799
:105580000126354603E0302BDED001263546236860
:1055900013F4805F2DD0236EB3F5005F4FD019D880
:1055A000002B46D0B3F5805F0FD1002104F1080035
:1055B000FFF7B2FD054613E0022104F10800FFF7F2
:1055C000ABFD0546C0E72E46E1E70126354610E073
:1055D00000440258B3F5405F02D0B3F5804F25D1A7
:1055E000002D33D1774A136D23F4E043216E0B4332
:1055F0001365236813F4005F38D0636EB3F5003F82
:1056000053D028D843B1B3F5803F21D1012104F113
:105610000800FFF781FD0546002D4DD1694A136D45
:1056200023F4E023616E0B4313651FE0012635462A
:10563000DFE7644AD36A43F40033D362D0E7002142
:1056400004F12800FFF7EEFD0546C9E72E46D0E736
:10565000012635460AE0B3F5802FDDD0B3F5A02F43
:10566000DAD0B3F5403FD7D001263546236813F48E
:10567000804F31D0D4F8B030B3F1005F45D020D89E
:1056800043B1B3F1805F19D1012104F10800FFF7A4
:1056900043FD0546002D3FD14A4A936D23F0E04378
:1056A000D4F8B0100B43936516E0012104F12800F3
:1056B000FFF7B8FD0546AFE72E46D7E7012635468A
:1056C0000AE0B3F1804FE5D0B3F1A04FE2D0B3F1DF
:1056D000405FDFD001263546236813F4004F09D020
:1056E000236FB3F1805F19D0B3F1005F24D0D3B141
:1056F00001263546236813F0807F33D0A36C032B3B
:105700005BD8DFE803F027225327012104F12800AA
:10571000FFF788FD0546BDE72E46DDE7294AD36A37
:1057200043F40033D36275B9264A136D23F0405316
:10573000216F0B431365DDE7012104F10800FFF73A
:10574000EBFC0546EFE72E46D4E71E4AD36A43F446
:105750000033D362A5BB1B4AD36C23F00303A16CB7
:105760000B43D364236813F4800F2DD1236813F007
:10577000010F00F0A580E36F282B00F29F80DFE887
:1057800003F08D9D9D9D9D9D9D9D879D9D9D9D9DB6
:105790009D9D969D9D9D9D9D9D9D8D9D9D9D9D9D50
:1057A0009D9D8D9D9D9D9D9D9D9D8D00022104F142
:1057B0000800FFF7B1FC0546CCE701263546D1E7E6
:1057C0002E46CFE700440258914A136843F4807391
:1057D0001360FDF737F907468D4B1B6813F4807F84
:1057E00005D1FDF72FF9C01B6428F5D90325002D3D
:1057F0004AD1884B1B6FD4F8B420534013F4407F38
:105800000CD0844B1A6F22F44072196F41F480312E
:105810001967196F21F4803119671A67D4F8B43009
:10582000B3F5807F15D08DBBD4F8B43003F440724B
:10583000B2F5407F1ED0774A136923F47C5313617D
:1058400074490B6FD4F8B420C2F30B0213430B67F7
:105850008CE7FDF7F7F807466E4B1B6F13F0020F4E
:10586000E1D1FDF7EFF8C01B41F288339842F3D93C
:105870000325D8E76748026922F47C52664901EAA9
:10588000131313430361DBE72E466FE72E466DE7E4
:10589000012104F10800FFF73FFC0546E5B95D4A28
:1058A000536D23F03803E16F0B43536508E001218A
:1058B00004F12800FFF7B6FC0546EFE70126354660
:1058C000236813F0020F17D0A36F052B28D8DFE849
:1058D00003F00B05200B0B0B2E46F1E7012104F121
:1058E0000800FFF719FC0546EDB94A4A536D23F04D
:1058F0000703A16F0B435365236813F0040F23D0F4
:10590000D4F89430052B45D8DFE803F0150F3D158A
:105910001515012104F12800FFF784FC0546E3E793
:1059200001263546E8E72E46E6E7012104F10800A6
:10593000FFF7F2FB054685BB364A936D23F007035C
:10594000D4F894100B439365236813F0200F34D0E0
:10595000D4F89030B3F1005F4ED023D843B1B3F107
:10596000805F1CD1002104F10800FFF7D5FB05463C
:10597000002D48D1274A536D23F0E043D4F890100E
:105980000B43536519E0012104F12800FFF74AFC9D
:105990000546D0E701263546D6E72E46D4E7012650
:1059A00035460AE0B3F1804FE2D0B3F1A04FDFD02B
:1059B000B3F1405FDCD001263546236813F0400F79
:1059C00037D0D4F89C30B3F5006F53D026D843B10C
:1059D000B3F5806F19D1002104F10800FFF79CFB9B
:1059E0000546002D4DD10B4A936D23F4E053D4F8B6
:1059F0009C100B4393651CE0022104F12800FFF783
:105A000011FC0546B4E72E46D7E70126354610E0DF
:105A10000048025800440258CFFFFF00B3F5805FF2
:105A2000DFD0B3F5A05FDCD0B3F5406FD9D001264D
:105A30003546236813F0800F33D0D4F8A030B3F587
:105A4000804F00F0A38021D843B1B3F5005F1AD195
:105A5000002104F10800FFF75FFB0546002D40F030
:105A60009C80814A936D23F46043D4F8A0100B43CB
:105A7000936516E0022104F12800FFF7D3FB0546E9
:105A8000AFE72E46D5E7012635460AE0B3F5004FCD
:105A9000E4D0B3F5204FE1D0B3F5C04FDED00126FE
:105AA0003546236813F0080F0CD0D4F88430B3F5D2
:105AB000805F74D06C4A536D23F44053D4F8841043
:105AC0000B435365236813F0100F0CD0D4F89830B3
:105AD000B3F5807F6CD0644A936D23F44073D4F89F
:105AE00098100B439365236813F4002F0BD0D4F860
:105AF000A430B3F5803F74D0B3F5003F67D0002BDE
