:020000040800F2
:10000000000008242D190008E5120008E712000876
:10001000E9120008EB120008ED12000800000000D1
:10002000000000000000000000000000EF120008C7
:10003000F112000800000000F3120008F512000899
:100040007D1900087D1900087D1900087D19000838
:100050007D1900087D1900087D1900087D19000828
:100060007D1900087D1900087D1900087D19000818
:100070007D1900087D1900087D1900087D19000808
:100080007D1900087D1900087D1900087D190008F8
:100090007D1900087D1900087D1900087D190008E8
:1000A0007D1900087D1900087D1900087D190008D8
:1000B0007D1900087D1900087D1900087D190008C8
:1000C0007D1900087D1900087D1900087D190008B8
:1000D0007D190008FD1200087D1900087D1900082F
:1000E0007D1900087D190008000000007D19000836
:1000F0007D1900087D1900087D1900087D19000888
:100100007D1900087D1900087D1900087D19000877
:100110007D1900087D1900087D1900087D19000867
:100120007D1900087D1900087D1900087D19000857
:100130007D1900087D1900087D1900087D19000847
:1001400000000000000000000000000000000000AF
:100150007D1900087D1900087D1900087D19000827
:100160007D1900087D1900087D1900087D19000817
:100170007D1900087D1900087D1900087D19000807
:100180007D1900087D1900087D1900087D190008F7
:100190007D1900087D1900087D1900087D190008E7
:1001A0007D1900087D1900087D1900087D190008D7
:1001B0007D1900087D1900087D1900087D190008C7
:1001C0007D1900087D1900087D1900087D190008B7
:1001D0007D1900087D1900087D1900087D190008A7
:1001E0007D1900087D1900087D1900087D19000897
:1001F0007D1900087D1900087D1900087D19000887
:100200007D1900087D1900087D1900087D19000876
:100210007D1900087D1900087D1900087D19000866
:100220007D1900087D1900087D19000800000000F4
:100230007D1900087D190008000000007D190008E4
:100240007D1900087D1900087D1900087D19000836
:100250007D1900087D1900087D1900087D19000826
:100260007D1900087D1900087D1900087D19000816
:100270007D1900087D1900087D19000800000000A4
:100280007D1900087D1900087D1900080000000094
:08029000000000007D190008C8
:1002C00010B5054C237833B9044B13B10448AFF390
:1002D00000800123237010BD54080024000000009A
:1002E000FC78000808B5034B1BB103490348AFF382
:1002F000008008BD0000000058080024FC780008B9
:1003000080F0004002E000BF81F0004142001FBFCA
:100310005FEA410392EA030F7FEA226C7FEA236CD3
:100320006AD04FEA1262D2EB1363C1BFD2184140C8
:1003300048404140B8BF5B42192B88BF704710F05E
:10034000004F40F4000020F07F4018BF404211F001
:10035000004F41F4000121F07F4118BF494292EA69
:10036000030F3FD0A2F1010241FA03FC10EB0C0095
:10037000C3F1200301FA03F100F0004302D5494222
:1003800060EB4000B0F5000F13D3B0F1807F06D3CF
:1003900040084FEA310102F10102FE2A51D2B1F1C7
:1003A000004F40EBC25008BF20F0010040EA0300BC
:1003B0007047490040EB0000013A28BFB0F5000F3C
:1003C000EDD2B0FA80FCACF1080CB2EB0C0200FAF2
:1003D0000CF0AABF00EBC25052421843BCBFD04041
:1003E0001843704792F0000F81F4000106BF80F4BB
:1003F00000000132013BB5E74FEA41037FEA226C7E
:1004000018BF7FEA236C21D092EA030F04D092F048
:10041000000F08BF0846704790EA010F1CBF00207C
:10042000704712F07F4F04D1400028BF40F00040D9
:10043000704712F100723CBF00F50000704700F0F9
:10044000004343F0FE4040F4000070477FEA226220
:1004500016BF08467FEA23630146420206BF5FEAF1
:10046000412390EA010F40F4800070474FF00003F1
:1004700004E000BF10F0004348BF40425FEA000CB8
:1004800008BF704743F0964301464FF000001CE060
:1004900050EA010208BF70474FF000030AE000BFB6
:1004A00050EA010208BF704711F0004302D54042F4
:1004B00061EB41015FEA010C02BF84460146002066
:1004C00043F0B64308BFA3F18053A3F50003BCFA81
:1004D0008CF2083AA3EBC25310DB01FA02FC63442E
:1004E00000FA02FCC2F12002BCF1004F20FA02F235
:1004F00043EB020008BF20F00100704702F1200228
:1005000001FA02FCC2F1200250EA4C0021FA02F288
:1005100043EB020008BF20EADC7070474FF0FF0C8D
:100520001CEAD0521EBF1CEAD15392EA0C0F93EA88
:100530000C0F6FD01A4480EA010C400218BF5FEA2A
:1005400041211ED04FF0006343EA501043EA51119D
:10055000A0FB01310CF00040B1F5000F3EBF490097
:1005600041EAD3715B0040EA010062F17F02FD2A9B
:100570001DD8B3F1004F40EBC25008BF20F001007E
:10058000704790F0000F0CF0004C08BF49024CEA95
:10059000502040EA51207F3AC2BFD2F1FF0340EA27
:1005A000C250704740F400004FF00003013A5DDC98
:1005B00012F1190FDCBF00F000407047C2F10002D9
:1005C000410021FA02F1C2F1200200FA02FC5FEAC6
:1005D000310040F1000053EA4C0308BF20EADC7010
:1005E000704792F0000F00F0004C02BF400010F482
:1005F000000F013AF9D040EA0C0093F0000F01F02F
:10060000004C02BF490011F4000F013BF9D041EA50
:100610000C018FE70CEAD15392EA0C0F18BF93EA52
:100620000C0F0AD030F0004C18BF31F0004CD8D17C
:1006300080EA010000F00040704790F0000F17BF03
:1006400090F0004F084691F0000F91F0004F14D049
:1006500092EA0C0F01D142020FD193EA0C0F03D1A1
:100660004B0218BF084608D180EA010000F00040A4
:1006700040F0FE4040F40000704740F0FE4040F47F
:10068000400070474FF0FF0C1CEAD0521EBF1CEA1E
:10069000D15392EA0C0F93EA0C0F69D0A2EB03023C
:1006A00080EA010C49024FEA402037D04FF08053D6
:1006B00043EA111143EA10130CF000408B4238BF9B
:1006C0005B0042F17D024FF4000C8B4224BF5B1AA9
:1006D00040EA0C00B3EB510F24BFA3EB510340EAF7
:1006E0005C00B3EB910F24BFA3EB910340EA9C00A5
:1006F000B3EBD10F24BFA3EBD10340EADC001B0115
:1007000018BF5FEA1C1CE0D1FD2A3FF650AF8B42B8
:1007100040EBC25008BF20F0010070470CF0004CC5
:100720004CEA50207F32C2BFD2F1FF0340EAC250F0
:10073000704740F400004FF00003013A37E792F0B1
:10074000000F00F0004C02BF400010F4000F013A0F
:10075000F9D040EA0C0093F0000F01F0004C02BF0A
:10076000490011F4000F013BF9D041EA0C0195E773
:100770000CEAD15392EA0C0F08D142027FF47DAF0C
:1007800093EA0C0F7FF470AF084676E793EA0C0FFC
:1007900004D14B023FF44CAF08466EE730F0004CFA
:1007A00018BF31F0004CCAD130F000427FF45CAF8A
:1007B00031F000437FF43CAF5FE700BF42000ED250
:1007C000B2F1FE4F0BD34FF09E03B3EB126209D48C
:1007D0004FEA002343F0004323FA02F070474FF042
:1007E0000000704712F1610F01D1420202D14FF0B7
:1007F000FF3070474FF00000704700BF53B94AB94F
:10080000002908BF00281CBF4FF0FF314FF0FF3018
:1008100000F074B9ADF1080C6DE904CE00F006F8F3
:10082000DDF804E0DDE9022304B070472DE9F0476C
:10083000089E0D4604468846002B4DD18A429446B8
:1008400068D9B2FA82F252B101FA02F3C2F1200180
:1008500020FA01F10CFA02FC41EA030894404FEA45
:100860001C45210CB8FBF5FE1FFA8CF705FB1E8317
:1008700041EA03430EFB07F199420BD91CEB03033A
:100880000EF1FF3080F01E81994240F21B81AEF1E3
:10089000020E63445B1AA4B2B3FBF5F005FB103300
:1008A00044EA034400FB07F7A7420AD91CEB0404FF
:1008B00000F1FF3380F00881A74240F205816444D3
:1008C0000238E41B40EA0E4000211EB1D440002350
:1008D000C6E90043BDE8F0878B4208D9002E00F03E
:1008E000EE800021C6E900050846BDE8F087B3FAAE
:1008F00083F100294AD1AB4202D3824200F2F9804F
:10090000841A65EB030301209846002EE2D0C6E965
:100910000048DFE702B9FFDEB2FA82F2002A40F0B7
:100920009180A1EB0C054FEA1C471FFA8CFE0121B8
:10093000B5FBF7F307FB1350250C45EA00450EFB0A
:1009400003F0A84208D91CEB050503F1FF3802D2D9
:10095000A84200F2CB8043462D1AA4B2B5FBF7F0B3
:1009600007FB105544EA05440EFB00FEA64508D9D6
:100970001CEB040400F1FF3502D2A64500F2BB8057
:100980002846A4EB0E0440EA03409EE7C1F120078D
:100990008B4022FA07FC4CEA030C20FA07F405FA14
:1009A00001F31C43FD404FEA1C4900FA01F3B5FB7B
:1009B000F9F8200C1FFA8CFE09FB185540EA054592
:1009C00008FB0EF0A84202FA01F20BD91CEB050558
:1009D00008F1FF3A80F08880A84240F28580A8F1B3
:1009E000020865442D1AA4B2B5FBF9F009FB1055B5
:1009F00044EA054500FB0EFEAE4508D91CEB050593
:100A000000F1FF346CD2AE456AD90238654440EA41
:100A10000840A0FB0294A5EB0E05A542C846A646D9
:100A200056D353D05EB1B3EB080265EB0E0505FA61
:100A300007F722FA01F3CD401F43C6E900750021F4
:100A4000BDE8F087C2F1200320FA03F10CFA02FCA2
:100A500025FA03F395400D434FEA1C471FFA8CFE1D
:100A6000B3FBF7F107FB11302B0C43EA004301FB0A
:100A70000EF0984204FA02F408D91CEB030301F1CA
:100A8000FF382FD298422DD9023963441B1AADB2D8
:100A9000B3FBF7F007FB103345EA034500FB0EF309
:100AA000AB4208D91CEB050500F1FF3816D2AB426A
:100AB00014D902386544ED1A40EA014138E731465D
:100AC000304607E78646E5E61846FAE64B45A9D2E2
:100AD000B9EB020864EB0C0E0138A3E74046EAE7E5
:100AE000204694E74146D1E7D0467BE7023B654488
:100AF00032E7084609E76444023842E7704700BF1E
:100B000090F800F06DE9024520F007016FF0000C4D
:100B100010F0070491F820F040F049804FF00004F5
:100B20006FF00700D1E9002391F840F000F10800D0
:100B300082FA4CF2A4FA8CF283FA4CF3A2FA8CF308
:100B40004BBBD1E9022382FA4CF200F10800A4FA6F
:100B50008CF283FA4CF3A2FA8CF3E3B9D1E90423C3
:100B600082FA4CF200F10800A4FA8CF283FA4CF3FA
:100B7000A2FA8CF37BB9D1E9062301F1200182FAB4
:100B80004CF200F10800A4FA8CF283FA4CF3A2FABA
:100B90008CF3002BC6D0002A04BF04301A4612BAC8
:100BA000B2FA82F2FDE8024500EBD2007047D1E9CB
:100BB000002304F00305C4F100004FEAC50514F05A
:100BC000040F91F840F00CFA05F562EA05021CBF2B
:100BD00063EA050362464FF00004A9E70000000045
:100BE00001F0FF01102A2BDB10F0070F08D010F8DE
:100BF000013B013A8B422DD010F0070F42B3F6D1E2
:100C0000F0B441EA012141EA014122F007047FF0FA
:100C100000070023F0E80256083C85EA010586EA51
:100C2000010685FA47F5A3FA87F586FA47F6A5FA8D
:100C300087F68EB9EED1F0BC01F0FF0102F0070299
:100C400032B110F8013B013A83EA010313B1F8D144
:100C50000020704701387047002D06BF3546033825
:100C6000073815F0010F07D1013015F4807F02BF5E
:100C7000013015F4C03F0130F0BC0138704700BFAF
:100C8000844641EA000313F003036DD1403A41D397
:100C900051F8043B40F8043B51F8043B40F8043B56
:100CA00051F8043B40F8043B51F8043B40F8043B46
:100CB00051F8043B40F8043B51F8043B40F8043B36
:100CC00051F8043B40F8043B51F8043B40F8043B26
:100CD00051F8043B40F8043B51F8043B40F8043B16
:100CE00051F8043B40F8043B51F8043B40F8043B06
:100CF00051F8043B40F8043B51F8043B40F8043BF6
:100D000051F8043B40F8043B51F8043B40F8043BE5
:100D1000403ABDD2303211D351F8043B40F8043B85
:100D200051F8043B40F8043B51F8043B40F8043BC5
:100D300051F8043B40F8043B103AEDD20C3205D395
:100D400051F8043B40F8043B043AF9D2043208D08D
:100D5000D2071CBF11F8013B00F8013B01D30B88FF
:100D600003806046704700BF082A13D38B078DD0DD
:100D700010F003038AD0C3F10403D21ADB071CBFAF
:100D800011F8013B00F8013B80D331F8023B20F819
:100D9000023B7BE7043AD9D3013A11F8013B00F852
:100DA000013BF9D20B7803704B7843708B788370DA
:100DB0006046704708B5054B1860054B186800235E
:100DC00002221946806805F099F808BD70080024D1
:100DD00010000024022801D80120704708B504F053
:100DE000BBFF09230360002008BD000010B50138D7
:100DF00001280AD814464FF0FF3392B20748006822
:100E000004F08CFD40B9204610BD04F0A5FF092375
:100E100003604FF0FF30F7E70520F5E77008002486
:100E2000022801D80020704708B504F095FF092377
:100E300003604FF0FF3008BD08B504F08DFF0923B3
:100E400003604FF0FF3008BD08B548B94FF0FF33DD
:100E500001220848006804F0C9FD40B9012008BD1E
:100E600004F07AFF092303604FF0FF30F7E7052015
:100E7000F5E700BF7008002408B5022804D84FF435
:100E800000534B60002008BD04F066FF0923036097
:100E9000F8E7000030B58DB0002407940894099459
:100EA0000A940B94324BD3F8E02042F08002C3F84E
:100EB000E020D3F8E02002F080020192019AD3F8FA
:100EC000E02042F00102C3F8E020D3F8E02002F075
:100ED00001020292029AD3F8E02042F01002C3F815
:100EE000E020D3F8E02002F010020392039AD3F836
:100EF000E02042F00802C3F8E020D3F8E02002F03E
:100F000008020492049AD3F8E02042F00402C3F8E5
:100F1000E020D3F8E02002F004020592059AD3F80D
:100F2000E02042F00202C3F8E020D3F8E03003F002
:100F300002030693069B0F4D22460421284601F02A
:100F4000E3F90423079301230893099402230A93E6
:100F500007A9284601F0C4F84FF6FF7307930894D9
:100F6000099407A9044801F0BBF80DB030BD00BFDB
:100F70000044025800000258000C025872B6FEE706
:100F800000B59FB04C2200210BA804F00FFF2022D7
:100F9000002103A804F00AFF022001F0BBF900239E
:100FA00000933A4BDA6A22F00102DA62DB6A03F05C
:100FB00001030093364B9A6942F440429A619B695F
:100FC00003F440430093009B314B9B6913F4005F93
:100FD000FAD0304BD3F8F42042F00202C3F8F420E8
:100FE000D3F8F43003F002030193019B0023029332
:100FF000274B9A6942F440429A619B6903F440434B
:101000000293224BDA6A42F00102DA62DB6A03F0F1
:1010100001030293029B1E4B9B6913F4005FFAD0FD
:1010200003230B934FF480330C9301230E9340233F
:101030000F930223149315931693F022179218938B
:1010400019931A9308231B9300231C931D930BA839
:1010500001F08AF9B0B93F230393032304930023DB
:101060000593082306934023079308934FF4806267
:1010700009920A93042103A801F0DCFD20B91FB0F6
:101080005DF804FBFFF77AFFFFF778FF00040058D4
:10109000004802580044025800B5B1B0C0220021F7
:1010A000684604F083FE4FF000420023CDE90023A0
:1010B000684602F05BF810B931B05DF804FBFFF749
:1010C0005DFF000008B5304B5B6913F4003F13D19E
:1010D000BFF34F8FBFF36F8F2B4B0022C3F850220B
:1010E000BFF34F8FBFF36F8F5A6942F400325A61DA
:1010F000BFF34F8FBFF36F8F234B5B6913F4803FB8
:1011000027D1214B0022C3F88420BFF34F8FD3F89F
:101110008040C4F34E3000E01846C4F3C90243F6E1
:10112000E07303EA401343EA82731749C1F860325F
:101130001346013A002BF2D1431E0028ECD1BFF335
:101140004F8F4B6943F480334B61BFF34F8FBFF335
:101150006F8F00F03DFCFFF713FFFFF79DFFFFF7D8
:1011600099FE00F017F800F053F900F0D5FA00F0FE
:10117000A7F900F011FB00F051FB0448FFF71AFE3D
:10118000034804F0B3FEFBE700ED00E0300A002462
:101190001479000808B51448144B03604FF4800319
:1011A00043604FF4C02383600723C36000230361BF
:1011B00043614FF080628261C36103624362836274
:1011C000C3624FF0804242638363C363036443643A
:1011D0008364C36403654365836502F05BFF00B904
:1011E00008BDFFF7CBFEFBE7740800240030014088
:1011F00070B5BAB0044600213591369137913891D7
:101200003991C02204A804F0D1FD2268284B9A42EB
:1012100001D03AB070BD4FF480520023CDE90423D1
:101220004FF480431C9304A801F0A0FF00283CD198
:10123000204BD3F8F02042F48052C3F8F020D3F8CA
:10124000F02002F480520192019AD3F8E02042F09B
:101250000102C3F8E020D3F8E02002F0010202927C
:10126000029AD3F8E02042F00202C3F8E020D3F85B
:10127000E03003F002030393039B8023359302269F
:1012800036960024379438940525399535A90A48AF
:1012900000F026FF08233593369637943894399515
:1012A00035A9064800F01CFFB3E7FFF767FEBFE76C
:1012B0000030014000440258000002580004025867
:1012C00082B0074BD3F8F42042F00202C3F8F420B6
:1012D000D3F8F43003F002030193019B02B070478E
:1012E00000440258FEE7FEE7FEE7FEE7FEE7704730
:1012F0007047704708B500F099FB08BD08B5024873
:1013000003F07CFD08BD00BF300A002410B5034681
:101310000C4A0D490D48006840B10C480068034470
:10132000521A934206D8094A136010BD0748084C68
:101330000460F2E704F010FD0C2303604FF0FF306F
:10134000F3E700BF0000082400040000FC080024AC
:10135000100B0024244B1B6803F00F03062B06D848
:10136000214A136823F00F0343F0070313601F4B58
:101370001A6842F001021A6000221A6119681C4AB8
:101380000A401A60184B1B6813F0080F06D0164A63
:10139000136823F00F0343F007031360134B00227D
:1013A0009A61DA611A62134999621349D962134941
:1013B00019635A639963DA6319645A64196821F4EA
:1013C000802119601A660E4B1A680E4B1340B3F158
:1013D000005F03D20C4B0122C3F808210B4B43F2F0
:1013E000D2021A60704700BF002000520044025829
:1013F0007FEDF6EA000202020000FF018002010117
:101400000010005C0000FFFF00800051004000520F
:1014100000B58DB000230793089309930A930B93AB
:101420000493059306930093019302930393224838
:10143000224A02601722426083604FF6FF72C26048
:1014400003614361836103F03BF930BB1A4803F049
:1014500097F928BB0423079350230893002309938B
:101460000B9307A9144803F003FCE0B9002304938D
:101470000593069304A9104803F024FCB0B9002298
:101480000092012301930292039269460A4803F0F5
:10149000D9FA70B90DB05DF804FBFFF76FFDD5E721
:1014A000FFF76CFDD6E7FFF769FDDFE7FFF766FDA5
:1014B000E5E7FFF763FDEDE70009002400000140C8
:1014C00000B58DB000230793089309930A930B93FB
:1014D0000493059306930093019302930393214889
:1014E000214A02600922426083604FF6FF72C260A7
:1014F0000361836103F0E4F828BB1A4803F040F964
:1015000020BB0423079350230893002309930B93D4
:1015100007A9144803F0ACFBD8B900230493069341
:1015200004A9104803F0CEFBB0B9002200920123B9
:1015300001930292039269460A4803F083FA70B954
:101540000DB05DF804FBFFF719FDD6E7FFF716FDB8
:10155000D7E7FFF713FDE0E7FFF710FDE5E7FFF73B
:101560000DFDEDE7980900240004004000B58BB0A4
:101570000023059306930793089309930368284A69
:10158000934205D0274A934227D00BB05DF804FB65
:10159000254BD3F8F02042F00102C3F8F020D3F835
:1015A000F02002F001020192019AD3F8E02042F00B
:1015B0001002C3F8E020D3F8E03003F010030293E8
:1015C000029B4FF4007305930223069301230993B2
:1015D00005A9164800F084FDD7E7134BD3F8E8209F
:1015E00042F00202C3F8E820D3F8E82002F0020239
:1015F0000392039AD3F8E02042F00402C3F8E020FB
:10160000D3F8E03003F004030493049B40230593D4
:1016100002230693099305A9054800F061FDB4E78C
:10162000000001400004004000440258001002582D
:101630000008025882B00368B3F1804F04D0104A0A
:1016400093420FD002B070470E4BD3F8E82042F01F
:101650000102C3F8E820D3F8E83003F00103009357
:10166000009BEFE7074BD3F8E82042F00402C3F8F1
:10167000E820D3F8E83003F004030193019BE1E78D
:10168000000800400044025800B589B000230393CD
:1016900004930593069307930368B3F1804F05D035
:1016A000194A934219D009B05DF804FB174BD3F8DF
:1016B000E02042F00102C3F8E020D3F8E03003F06C
:1016C00001030193019B01230393022204920793D8
:1016D00003A90F4800F004FDE5E70C4BD3F8E02028
:1016E00042F00202C3F8E020D3F8E03003F0020336
:1016F0000293029B4023039302230493079303A9BD
:10170000044800F0EDFCCEE7000800400044025819
:10171000000002580004025800B58BB00023079364
:101720000893099300930193029303930493059301
:10173000069318484FF0804202600922426083609D
:101740006322C2600361836102F0EAFFC8B900232B
:101750000793099307A90F4803F0B4FAA0B96023CF
:1017600000933223019300220292049269460948B1
:1017700003F080F858B90748FFF786FF0BB05DF813
:1017800004FBFFF7FBFBE2E7FFF7F8FBE7E7FFF7F8
:10179000F5FBF0E74C09002400B58BB0002307935C
:1017A0000893099300930193029303930493059381
:1017B00006931848184A02600222426083600122A0
:1017C000C2600361836102F0ABFFC8B900230793D5
:1017D000099307A90F4803F075FAA0B96023009395
:1017E000012301930022029204926946094803F002
:1017F00041F858B90748FFF747FF0BB05DF804FB05
:10180000FFF7BCFBE2E7FFF7B9FBE7E7FFF7B6FB43
:10181000F0E700BFE40900240008004008B51748BD
:10182000174B03604FF4E133436000238360C360D0
:1018300003610C2242618361C3610362436283627C
:1018400004F0C4F970B900210C4804F03BFA60B907
:1018500000210A4804F05BFA50B9084804F013FA72
:1018600048B908BDFFF78AFBEDE7FFF787FBEFE715
:10187000FFF784FBF1E7FFF781FBF2E7300A002472
:101880000010014010B5B8B00446002133913491E6
:10189000359136913791C02202A804F087FA226868
:1018A0001F4B9A4201D038B010BD01220023CDE970
:1018B000022302A801F05AFC78BB1A4BD3F8F0209F
:1018C00042F01002C3F8F020D3F8F02002F010022A
:1018D0000092009AD3F8E02042F00102C3F8E02021
:1018E000D3F8E03003F001030193019B4FF4C06390
:1018F000339302233493002435943694072337938B
:1019000033A9094800F0ECFB22462146252000F0CF
:10191000B7F8252000F0EAF8C5E7FFF72FFBCCE782
:10192000001001400044025800000258DFF834D093
:10193000FFF710FD0C480D490D4A002302E0D45872
:10194000C4500433C4188C42F9D30A4A0A4C002309
:1019500001E013600432A242FBD304F003FAFFF764
:10196000B1FB704700000824000000245408002444
:101970007079000854080024100B0024FEE70000D2
:10198000104B1B780BB90120704710B504464FF47B
:101990007A70B0FBF3F30C4A1068B0FBF3F000F080
:1019A000B3F868B90F2C01D901200AE000222146C2
:1019B0004FF0FF3000F064F8044B1C60002000E0A2
:1019C000012010BD08000024000000240C000024A9
:1019D00010B5032000F042F801F020F80F498B69A0
:1019E000C3F303230E4AD35C03F01F03D8408B6973
:1019F00003F00F03D35C03F01F0320FA03F3094A3B
:101A00001360094B18600F20FFF7BAFF10B10124D3
:101A1000204610BD0446FFF753FCF9E70044025886
:101A20001C7900080400002400000024034B1B78EC
:101A3000034A11680B441360704700BF080000247C
:101A4000C40A0024014B1868704700BFC40A002470
:101A5000014B1868000C70470010005C0649CB6809
:101A600023F4E0631B041B0C000200F4E06003435A
:101A7000024A1A43CA60704700ED00E00000FA0510
:101A800000B5174BDB68C3F30223C3F1070CBCF1AD
:101A9000040F28BF4FF0040C03F1040EBEF1060F33
:101AA00014D9033B4FF0FF3E0EFA0CFC21EA0C0167
:101AB00099400EFA03F322EA03031943002807DBD7
:101AC0000901C9B2074B19545DF804FB0023E9E78B
:101AD00000F00F000901C9B2034B1954F4E700BF2D
:101AE00000ED00E000E400E014ED00E0002807DB7A
:101AF00000F01F02400901239340024A42F82030BF
:101B0000704700BF00E100E00138B0F1807F0BD2E8
:101B10004FF0E0235861054AF02182F8231000209D
:101B2000986107221A6170470120704700ED00E0BC
:101B300070B50446FFF786FF002C00F09181054642
:101B400094F83530DBB2022B06D080236365002386
:101B500084F83430012070BD23688C498C4A93424C
:101B600018BF8B4230D0183293422DD01832934296
:101B70002AD01832934227D01832934224D01832F8
:101B8000934221D0183293421ED002F556729342EE
:101B90001AD01832934217D01832934214D0183208
:101BA000934211D0183293420ED0183293420BD088
:101BB0001832934208D01832934205D01A6822F0A6
:101BC0000E021A60266809E01A6822F01E021A60E6
:101BD0002268536923F080035361266823686B49A8
:101BE0006B4A934218BF8B4242D0183293423FD087
:101BF000183293423CD01832934239D01832934273
:101C000036D01832934233D01832934230D002F596
:101C1000567293422CD01832934229D018329342F4
:101C200026D01832934223D01832934220D0183253
:101C300093421DD0183293421AD01832934217D0D3
:101C4000544A934214D01432934211D01432934226
:101C50000ED0143293420BD01432934208D0143277
:101C6000934205D01432934202D01432934204D1ED
:101C7000226E136823F48073136023684349444A37
:101C8000934218BF8B422FD0183293422CD0183277
:101C9000934229D01832934226D01832934223D04F
:101CA0001832934220D0183293421DD002F556725A
:101CB000934219D01832934216D01832934213D05F
:101CC0001832934210D0183293420DD018329342FA
:101CD0000AD01832934207D01832934204D01A68BF
:101CE00022F001021A6003E01A6822F001021A6071
:101CF000336813F0010F0ED0FFF7A4FE431B052B32
:101D0000F6D920236365032384F83530002384F853
:101D1000343001201FE723681C491D4A934218BF35
:101D20008B4239D01832934236D01832934233D096
:101D30001832934230D0183293422DD01832934249
:101D40002AD01832934227D002F55672934223D0FC
:101D50001832934220D0183293421DD01832934249
:101D60001AD01832934217D01832934214D0183236
:101D7000934211D0183293420ED0A16DE36D03F05F
:101D80001F02012393404B600DE000BF1000024092
:101D90002800024008540258A16DE36D03F01F02B1
:101DA0003F2393408B6023682E492F4A934218BFEC
:101DB0008B4242D0183293423FD0183293423CD0EB
:101DC0001832934239D01832934236D018329342A7
:101DD00033D01832934230D002F5567293422CD051
:101DE0001832934229D01832934226D018329342A7
:101DF00023D01832934220D0183293421DD018328B
:101E000093421AD01832934217D0184A934214D0F2
:101E10001432934211D0143293420ED014329342B2
:101E20000BD01432934208D01432934205D01432AE
:101E3000934202D0143293420BD1636EA26E5A6069
:101E4000E36E33B11A6822F480721A60236F626FF6
:101E50005A60012384F83530002084F834007AE693
:101E6000012078E610000240280002400854025881
:101E7000002800F0298108B5024690F83530DBB221
:101E8000022B03D080234365012008BD03689048DE
:101E900090498B4218BF83420CBF0121002166D0BC
:101EA0003030834263D01830834260D01830834290
:101EB0005DD0183083425AD01830834257D0183042
:101EC000834254D000F55670834250D0183083427C
:101ED0004DD0183083424AD01830834247D0183052
:101EE000834244D01830834241D0183083423ED0E0
:101EF000183083423BD0196821F00E011960136835
:101F0000A0F5956073498B4218BF83426AD072492D
:101F10008B4267D018318B4264D018318B4261D02C
:101F200018318B425ED018318B425BD018318B4216
:101F300058D001F556718B4254D018318B4251D094
:101F400018318B424ED018318B424BD018318B4216
:101F500048D018318B4245D018318B4242D01831CD
:101F60008B423FD0196821F0010119603EE0042046
:101F700082F8350081BB584A93422DD018329342E3
:101F80002AD01832934227D01832934224D01832E4
:101F9000934221D0183293421ED002F556729342DA
:101FA0001AD01832934217D01832934214D01832F4
:101FB000934211D0183293420ED0183293420BD074
:101FC0001832934208D01832934205D01A6822F092
:101FD00001021A60002058E71A6822F001021A6014
:101FE000002052E7196821F0010119601368384890
:101FF00038498B4218BF834242D018318B423FD0C0
:1020000018318B423CD018318B4239D018318B4279
:1020100036D018318B4233D018318B4230D001F595
:1020200056718B422CD018318B4229D018318B42FB
:1020300026D018318B4223D018318B4220D0183152
:102040008B421DD018318B421AD018318B4217D0D9
:1020500022498B4214D014318B4211D014318B425F
:102060000ED014318B420BD014318B4208D0143176
:102070008B4205D014318B4202D014318B4217D1E0
:10208000116E0B6823F480730B60906DD36D03F0B9
:102090001F0101238B404360536E916E5960D36ED4
:1020A00033B1196821F480711960136F516F596051
:1020B000012382F83530002382F83430136D2BB1C0
:1020C000104698470020E0E6012070470020DCE63B
:1020D000100002402800024040000240085402580C
:1020E00070B582B000236EE085685E000324B440C2
:1020F00025EA0405CC68B4402C438460446824EA93
:102100000C0C4C68C4F300149C4044EA0C0444607A
:102110006CE0DD08083550F8256003F007044FEA4D
:10212000840C0F2404FA0CF426EA040E0C6904FA59
:102130000CF444EA0E0440F825406FE0092400E066
:10214000002404FA0EF42C430CF1020C6B4D45F8FC
:102150002C404FF0B0442568D44325EA0206D1F85C
:1021600004C01CF4801F01D042EA05064FF0B045C0
:102170002E606D6804EA0506D1F804C01CF4001F47
:1021800001D042EA05064FF0B0456E60D5F88450A4
:1021900004EA0506D1F804C01CF4003F01D042EA6D
:1021A00005064FF0B045C5F88460D5F880502C4046
:1021B0004E6816F4803F01D042EA05044FF0B04269
:1021C000C2F8804001330A6832FA03F400F09380C9
:1021D0004FF0010C0CFA03FC1CEA0202F2D04C682E
:1021E00004F00304013C012C7FF67EAF4C6804F040
:1021F0000304032C0CD0C4685D004FF0030C0CFAF0
:1022000005FC24EA0C0C8C68AC4044EA0C04C46065
:102210004C6804F00304022C3FF47BAF04684FEADF
:10222000430E4FF0030C0CFA0EFC24EA0C0C4C6825
:1022300004F0030404FA0EF444EA0C0404604C684D
:1022400014F4403FBED02E4CD4F8F45045F00205B3
:10225000C4F8F450D4F8F44004F002040194019C52
:102260004FEA930C0CF10205244C54F8255003F06E
:1022700003044FEA840E0F2404FA0EF425EA040541
:10228000204CA0423FF45CAF04F58064A04222D011
:1022900004F58064A04220D004F58064A0421ED0E2
:1022A00004F58064A0421CD004F58064A0421AD0DA
:1022B00004F58064A04218D004F58064A04216D0D2
:1022C00004F58064A04214D004F58064A0423FF479
:1022D00035AF0A2435E7012433E7022431E703242C
:1022E0002FE704242DE705242BE7062429E70724FC
:1022F00027E7082425E702B070BD00BF000400589E
:1023000000440258000002580AB181617047090474
:1023100081617047134BDB6813F0040F07D1114B39
:10232000DB6803F0070383421AD00120704710B521
:102330000C4AD36823F007031843D060FFF782FBF1
:102340000446084B5B6813F4005F07D1FFF77AFB84
:10235000001BB0F57A7FF4D9012000E0002010BD09
:102360000020704700480258002800F0398338B533
:102370000446036813F0010F25D0944A136903F053
:102380003803926A102B15D0182B0FD06368B3F561
:10239000803F3FD0002B53D18C4B1A6822F48032FF
:1023A0001A601A6822F480221A6038E002F00302F0
:1023B000022AEBD1854B1B6813F4003F03D06368FE
:1023C000002B00F00F83236813F0020F00F0A180B0
:1023D0007E4A1369926A13F038035AD0182B55D0ED
:1023E000E368002B00F0DE8078490A6822F01902C9
:1023F00013430B60FFF726FB0546744B1B6813F075
:10240000040F40F0AD80FFF71DFB401B0228F4D9FC
:102410000320EEE26D4A136843F48033136063686F
:102420002BB3FFF70FFB0546684B1B6813F4003F07
:10243000C9D1FFF707FB401B6428F5D90320D8E278
:10244000B3F5A02F09D0614B1A6822F480321A60CC
:102450001A6822F480221A60E1E75C4B1A6842F4A1
:1024600080221A601A6842F480321A60D7E7FFF7B8
:10247000E9FA0546554B1B6813F4003FA3D0FFF75C
:10248000E1FA401B6428F5D90320B2E212F0030FF1
:10249000A6D14E4B1B6813F0040F03D0E368002B4A
:1024A00000F0A282494A136823F01903E1680B4344
:1024B0001360FFF7C7FA0546444B1B6813F0040F7F
:1024C00006D1FFF7BFFA401B0228F5D9032090E29E
:1024D000FFF7BEFA41F20303984212D82269402A5C
:1024E00007D03A494B6823F47C3343EA02334B600C
:1024F0000FE0364A536823F47C3343F400335360CF
:1025000007E0324A536823F0FE43216943EA01633E
:102510005360236813F0100F00F088802B4A136972
:1025200003F03803926A082B56D0182B50D0E36979
:10253000002B00F0B880254A136843F08003136035
:10254000FFF780FA0546214B1B6813F4807F40F0AB
:102550008880FFF777FA401B0228F4D9032048E26D
:10256000FFF776FA41F20303984212D82269402A13
:1025700007D016494B6823F47C3343EA02334B609F
:10258000C7E7124A536823F47C3343F400335360A3
:10259000BFE70E4A536823F0FE43216943EA016313
:1025A0005360B6E7094A136823F001031360FFF78D
:1025B00049FA0546054B1B6813F0040FA9D0FFF735
:1025C00041FA401B0228F5D9032012E200440258C8
:1025D00002F00302012AAAD1A14B1B6813F4807FE9
:1025E00003D0E369802B40F00182FFF731FA41F21A
:1025F0000303984212D8226A202A07D098494B68D0
:1026000023F0F84343EA82634B600FE0944A536837
:1026100023F0F84343F08043536007E0904AD368C7
:1026200023F07C53216A43EA0163D360236813F0EB
:10263000080F60D06369002B49D0894A536F43F07B
:1026400001035367FFF7FEF90546854B5B6F13F0F7
:10265000020F50D1FFF7F6F9401B0228F5D90320ED
:10266000C7E1FFF7F5F941F20303984212D8226A55
:10267000202A07D07A494B6823F0F84343EA826363
:102680004B60D3E7764A536823F0F84343F0804326
:102690005360CBE7724AD36823F07C53216A43EA44
:1026A0000163D360C2E76E4A136823F080031360AE
:1026B000FFF7C8F905466A4B1B6813F4807FB5D055
:1026C000FFF7C0F9401B0228F5D9032091E1644AC5
:1026D000536F23F001035367FFF7B4F90546604BCE
:1026E0005B6F13F0020F06D0FFF7ACF9401B022816
:1026F000F5D903207DE1236813F0200F29D0A369C9
:102700009BB1574A136843F480531360FFF79AF95B
:102710000546534B1B6813F4005F1AD1FFF792F97B
:10272000401B0228F5D9032063E14D4A136823F4C6
:1027300080531360FFF786F90546494B1B6813F475
:10274000005F06D0FFF77EF9401B0228F5D9032071
:102750004FE1236813F0040F21D1636A002B00F0CE
:1027600047813F4A126902F03802182A00F0EE80D1
:10277000022B79D03A4A136823F080731360FFF775
:1027800061F90446364B1B6813F0007F00F0DC80D3
:10279000FFF758F9001B0228F4D9032029E1314A38
:1027A000136843F480731360FFF74CF905462D4B13
:1027B0001B6813F4807F06D1FFF744F9401B64289F
:1027C000F5D9032015E1A368012B0AD00BBB244BDC
:1027D0001A6F22F001021A671A6F22F004021A67B8
:1027E00004E01F4A136F43F001031367A36833B378
:1027F000FFF728F905461A4B1B6F13F0020FACD1F7
:10280000FFF720F9401B41F288339842F3D90320A7
:10281000EFE0052B09D0124B1A6F22F001021A6764
:102820001A6F22F004021A67E0E70D4B1A6F42F0AC
:1028300004021A671A6F42F001021A67D6E7FFF71F
:1028400001F90546064B1B6F13F0020F85D0FFF709
:10285000F9F8401B41F288339842F3D90320C8E0CD
:102860000044025800480258694A136823F08073F4
:102870001360FFF7E7F80546654B1B6813F0007F10
:1028800006D0FFF7DFF8401B0228F5D90320B0E09F
:102890005F4B996A5F4A0A40A16AE06A41EA001107
:1028A0000A439A62226B013AC2F30802616B013952
:1028B000490289B20A43A16B0139090401F4FE01FE
:1028C0000A43E16B0139090601F0FE410A431A632C
:1028D000DA6A22F00102DA62596B4F4A0A40A16CAF
:1028E00042EAC1025A63DA6A22F00C02216C0A43FE
:1028F000DA62DA6A22F00202616C0A43DA62DA6AA8
:1029000042F48032DA62DA6A42F40032DA62DA6A77
:1029100042F48022DA62DA6A42F00102DA621A686C
:1029200042F080721A60FFF78DF80446384B1B683E
:1029300013F0007F06D1FFF785F8001B0228F5D9B8
:10294000032056E0002054E0002052E0304A916A13
:10295000106B012B4ED001F00303A26A93424BD1BE
:10296000C1F30511E36A994248D1C0F30802236B11
:10297000013B9A4244D1C0F34622636B013B9A4229
:1029800040D1C0F30642A36B013B9A423CD1C0F355
:102990000660E36B013B984238D11D4B5B6BC3F380
:1029A000CC03A26C9A4201D1002022E0184AD36ADB
:1029B00023F00103D362FFF745F80546FFF742F81D
:1029C000A842FBD0124A516B134B0B40A16C43EA57
:1029D000C1035363D36A43F00103D362002008E0CC
:1029E00001207047012004E0012002E0012000E006
:1029F000002038BD0120FCE70120FAE70120F8E7BC
:102A00000120F6E70120F4E70120F2E70120F0E7DA
:102A1000004402580CFCFFFF0700FFFFF8B57E4B97
:102A20001B6903F03803102B00F0F280182B10D034
:102A300013B17A4C2046F8BD774B1B6813F0200F7A
:102A400000F0E880744B1868C0F3C100744CC440B7
:102A5000F0E7714B9D6A05F003059C6AC4F3051409
:102A6000D86A00F001005B6BC3F3CC0303FB00F0FA
:102A7000FDF7FCFC0646002CDCD0012D76D0022DA3
:102A800000F0A4800DB32046FDF7F0FC0146654838
:102A9000FDF7F8FD0446604B186BC0F30800FDF726
:102AA000E5FC05464FF064513046FDF737FD014621
:102AB0002846FDF72BFC4FF07E51FDF727FC014621
:102AC0002046FDF72BFD044671E0534B1B6813F0C5
:102AD000200F29D0504F3B68C3F3C1035048D84062
:102AE000FDF7C4FC05462046FDF7C0FC014628461C
:102AF000FDF7C8FD0446386BC0F30800FDF7B6FCCF
:102B000005464FF064513046FDF708FD0146284662
:102B1000FDF7FCFB4FF07E51FDF7F8FB0146204628
:102B2000FDF7FCFC044642E02046FDF79FFC014611
:102B30003D48FDF7A7FD0446374B186BC0F308006E
:102B4000FDF794FC05464FF064513046FDF7E6FC76
:102B500001462846FDF7DAFB4FF07E51FDF7D6FB24
:102B600001462046FDF7DAFC044620E02046FDF74A
:102B70007DFC01462B48FDF785FD0446264B186B6E
:102B8000C0F30800FDF772FC05464FF06451304673
:102B9000FDF7C4FC01462846FDF7B8FB4FF07E5117
:102BA000FDF7B4FB01462046FDF7B8FC04461A4B7E
:102BB0001B6BC3F34623581CFDF758FC0146204607
:102BC000FDF760FDFDF7FAFD044633E72046FDF70B
:102BD0004DFC01461548FDF755FD04460E4B186B9C
:102BE000C0F30800FDF742FC05464FF06451304643
:102BF000FDF794FC01462846FDF788FB4FF07E5117
:102C0000FDF784FB01462046FDF788FC0446CEE72D
:102C1000074C0FE7024C0DE70044025800093D0045
:102C20000090D0030024744A0024744C0024F44A19
:102C300000127A00002800F0328170B50D4604467B
:102C40009B4B1B6803F00F038B420BD2984A13680F
:102C500023F00F030B431360136803F00F038B4241
:102C600040F01F81236813F0040F0CD02269914BB0
:102C70009B6903F070039A4205D98E498B6923F052
:102C800070031A438A61236813F0080F0CD062693D
:102C9000884BDB6903F070039A4205D98549CB69FB
:102CA00023F070031A43CA61236813F0100F0CD08D
:102CB000A269804BDB6903F4E0639A4205D97D4940
:102CC000CB6923F4E0631A43CA61236813F0200F31
:102CD0000CD0E269774B1B6A03F070039A4205D966
:102CE00074490B6A23F070031A430A62236813F0D5
:102CF000020F0CD0E2686F4B9B6903F00F039A42FE
:102D000005D96C498B6923F00F031A438A61236844
:102D100013F0010F41D0674A936923F47063A168EF
:102D20000B4393616368022B0AD0032B27D0012B3E
:102D30002CD0604A126812F0040F06D10120ADE0D9
:102D4000126812F4003F00F0AE805A490A6922F07E
:102D5000070213430B61FEF775FE0646554B1B69D0
:102D600003F038036268B3EBC20F16D0FEF76AFEB9
:102D7000801B41F288339842F0D903208EE04D4AFF
:102D8000126812F0007FE0D1012087E0494A126802
:102D900012F4807FD9D1012080E0236813F0020F64
:102DA0000CD0E268434B9B6903F00F039A4205D2B3
:102DB00040498B6923F00F031A438A613C4B1B681F
:102DC00003F00F03AB420AD9394A136823F00F030B
:102DD0002B431360136803F00F03AB4265D12368E4
:102DE00013F0040F0CD02269324B9B6903F070037F
:102DF0009A4205D22F498B6923F070031A438A61E6
:102E0000236813F0080F0CD062692A4BDB6903F0CA
:102E100070039A4205D22749CB6923F070031A4305
:102E2000CA61236813F0100F0CD0A269214BDB6933
:102E300003F4E0639A4205D21E49CB6923F4E063B0
:102E40001A43CA61236813F0200F0CD0E269194BB2
:102E50001B6A03F070039A4205D216490B6A23F0ED
:102E600070031A430A62FFF7D9FD12498B69C3F355
:102E70000323114AD35C03F01F03D8408B6903F08E
:102E80000F03D35C03F01F0320FA03F30B4A136014
:102E90000B4B18600B4B1868FEF772FD70BD0120DC
:102EA00070470120FAE70120F8E70120F6E700BFAC
:102EB00000200052004402581C790008040000243D
:102EC000000000240C00002408B5FFF7A7FD0B4A02
:102ED0009369C3F303230A49CB5C03F01F0320FA71
:102EE00003F3926902F00F02885C00F01F0023FADE
:102EF00000F0044A1060044A136008BD0044025800
:102F00001C790008040000240000002408B5FFF725
:102F1000DBFF054BDB69C3F30213044AD35C03F008
:102F20001F03D84008BD00BF004402581C790008A8
:102F300008B5FFF7C9FF054BDB69C3F30223044A59
:102F4000D35C03F01F03D84008BD00BF0044025803
:102F50001C790008404B9B6A03F00303032B79D0D4
:102F600070B505460E463C4A136823F08063136033
:102F7000FEF768FD0446384B1B6813F0006F06D05F
:102F8000FEF760FD031B022BF5D9032070BD324B09
:102F90009A6A22F47C32296842EA01329A626A68AB
:102FA000013AC2F30802A9680139490289B20A4309
:102FB000E9680139090401F4FE010A43296901396C
:102FC000090601F0FE410A439A63DA6A22F0C00260
:102FD00069690A43DA62DA6A22F02002A9690A43BF
:102FE000DA62DA6A22F01002DA62D96B1B4A0A400E
:102FF000E96942EAC102DA63DA6A42F01002DA628F
:10300000C6B91A46DB6A43F40023D362124A136836
:1030100043F080631360FEF715FD04460E4B1B68FA
:1030200013F0006F14D1FEF70DFD001B0228F5D937
:103030000320ABE7012E05D0074AD36A43F40013FF
:10304000D362E3E7044AD36A43F48013D362DDE733
:1030500000209BE701207047004402580700FFFF53
:10306000404B9B6A03F00303032B79D070B50546F0
:103070000E463C4A136823F080531360FEF7E2FCCF
:103080000446384B1B6813F0005F06D0FEF7DAFCED
:10309000031B022BF5D9032070BD324B9A6A22F034
:1030A0007C72296842EA01529A626A68013AC2F364
:1030B0000802A9680139490289B20A43E96801395D
:1030C000090401F4FE010A4329690139090601F0E6
:1030D000FE410A431A64DA6A22F4406269690A43CB
:1030E000DA62DA6A22F40072A9690A43DA62DA6AF9
:1030F00022F48072DA62596C1B4A0A40E96942EA9A
:10310000C1025A64DA6A42F48072DA62C6B91A46B7
:10311000DB6A43F48003D362124A136843F080539E
:103120001360FEF78FFC04460E4B1B6813F0005F24
:1031300014D1FEF787FC001B0228F5D90320ABE76A
:10314000012E05D0074AD36A43F08073D362E3E7C8
:10315000044AD36A43F40003D362DDE700209BE70F
:1031600001207047004402580700FFFFF8B50446ED
:10317000036813F0006F30D0836EB3F5001F26D0C4
:103180000ED8EBB1B3F5801F07D102210830FFF74D
:10319000E1FE054645B12E4621E0012635461EE0FA
:1031A000B3F5401F09D10025984A136D23F440134D
:1031B000A16E0B431365002611E0012635460EE093
:1031C000924AD36A43F40033D3620025ECE702212C
:1031D0002830FFF745FF0546DCE700263546236823
:1031E00013F4807F14D0A36D042B32D8DFE803F0F2
:1031F00003232A080800854AD36A43F40033D362C4
:1032000055BB824A136D23F00703A16D0B43136571
:10321000236813F4007F31D0E36D802B4CD020D88D
:10322000002B43D0402B19D1002104F10800FFF7F7
:1032300091FE05461AE0002104F10800FFF78AFE1E
:103240000546DDE7002104F12800FFF709FF0546E8
:10325000D6E701263546DBE72E46D9E70126354677
:103260000CE0C02B02D0B3F5807F1CD15DBB674A58
:10327000136D23F4E073E16D0B431365236813F4BE
:10328000806F46D0D4F8A830B3F5800F39D01FD85E
:103290008BB3B3F5001F18D1002104F10800FFF72C
:1032A00059FE05461AE001263546E7E7574AD36A34
:1032B00043F40033D362D9E7002104F12800FFF77B
:1032C000CFFE0546D2E72E46D8E70126354620E058
:1032D000B3F5C00F02D0B3F5000F09D1C5B94B4A01
:1032E000936D23F46003D4F8A8100B43936510E0AA
:1032F000012635460DE0454AD36A43F40033D362D4
:10330000ECE7002104F12800FFF7AAFE0546E5E7F7
:103310002E46236813F4006F24D0D4F8AC30B3F1F8
:10332000007F42D00ED8002B39D0B3F1807F06D178
:10333000002104F10800FFF70DFE054608E0012614
:1033400035460FE0B3F1407F02D0B3F1806F23D157
:10335000002D31D12D4A936D23F0E063D4F8AC10E9
:103360000B439365236813F0007F2ED0E36C202B72
:1033700040D026D833B1102B20D1244AD36A43F44D
:103380000033D362002D3CD1204AD36C23F03003AC
:10339000E16C0B43D36418E001263546E2E71B4A93
:1033A000D36A43F40033D362D2E7002104F128004A
:1033B000FFF756FE0546CBE72E46D3E701263546F6
:1033C00003E0302BDED001263546236813F4805FFE
:1033D0002DD0236EB3F5005F4FD019D8002B46D007
:1033E000B3F5805F0FD1002104F10800FFF7B2FDB3
:1033F000054613E0022104F10800FFF7ABFD054686
:10340000C0E72E46E1E70126354610E000440258A9
:10341000B3F5405F02D0B3F5804F25D1002D33D1F5
:10342000774A136D23F4E043216E0B431365236841
:1034300013F4005F38D0636EB3F5003F53D028D843
:1034400043B1B3F5803F21D1012104F10800FFF71A
:1034500081FD0546002D4DD1694A136D23F4E0230B
:10346000616E0B4313651FE001263546DFE7644AB2
:10347000D36A43F40033D362D0E7002104F128007B
:10348000FFF7EEFD0546C9E72E46D0E70126354693
:103490000AE0B3F5802FDDD0B3F5A02FDAD0B3F575
:1034A000403FD7D001263546236813F4804F31D0F2
:1034B000D4F8B030B3F1005F45D020D843B1B3F1B8
:1034C000805F19D1012104F10800FFF743FD054693
:1034D000002D3FD14A4A936D23F0E043D4F8B01059
:1034E0000B43936516E0012104F12800FFF7B8FDB6
:1034F0000546AFE72E46D7E7012635460AE0B3F189
:10350000804FE5D0B3F1A04FE2D0B3F1405FDFD000
:1035100001263546236813F4004F09D0236FB3F119
:10352000805F19D0B3F1005F24D0D3B101263546B6
:10353000236813F0807F33D0A36C032B5BD8DFE8C4
:1035400003F027225327012104F12800FFF788FD0B
:103550000546BDE72E46DDE7294AD36A43F400332A
:10356000D36275B9264A136D23F04053216F0B4384
:103570001365DDE7012104F10800FFF7EBFC0546C8
:10358000EFE72E46D4E71E4AD36A43F40033D362F2
:10359000A5BB1B4AD36C23F00303A16C0B43D3647C
:1035A000236813F4800F2DD1236813F0010F00F06E
:1035B000A580E36F282B00F29F80DFE803F08D9D4C
:1035C0009D9D9D9D9D9D879D9D9D9D9D9D9D969D48
:1035D0009D9D9D9D9D9D8D9D9D9D9D9D9D9D8D9D3B
:1035E0009D9D9D9D9D9D8D00022104F10800FFF78A
:1035F000B1FC0546CCE701263546D1E72E46CFE79C
:1036000000440258914A136843F480731360FEF734
:1036100019FA07468D4B1B6813F4807F05D1FEF71E
:1036200011FAC01B6428F5D90325002D4AD1884B17
:103630001B6FD4F8B420534013F4407F0CD0844B5C
:103640001A6F22F44072196F41F480311967196FB3
:1036500021F4803119671A67D4F8B430B3F5807F4C
:1036600015D08DBBD4F8B43003F44072B2F5407F6E
:103670001ED0774A136923F47C53136174490B6F8E
:10368000D4F8B420C2F30B0213430B678CE7FEF7A8
:10369000D9F907466E4B1B6F13F0020FE1D1FEF70D
:1036A000D1F9C01B41F288339842F3D90325D8E7FA
:1036B0006748026922F47C52664901EA13131343F6
:1036C0000361DBE72E466FE72E466DE7012104F12B
:1036D0000800FFF73FFC0546E5B95D4A536D23F04E
:1036E0003803E16F0B43536508E0012104F1280022
:1036F000FFF7B6FC0546EFE701263546236813F0D1
:10370000020F17D0A36F052B28D8DFE803F00B05B5
:10371000200B0B0B2E46F1E7012104F10800FFF707
:1037200019FC0546EDB94A4A536D23F00703A16F12
:103730000B435365236813F0040F23D0D4F894305F
:10374000052B45D8DFE803F0150F3D1515150121B0
:1037500004F12800FFF784FC0546E3E7012635461F
:10376000E8E72E46E6E7012104F10800FFF7F2FB47
:10377000054685BB364A936D23F00703D4F89410B1
:103780000B439365236813F0200F34D0D4F89030A6
:10379000B3F1005F4ED023D843B1B3F1805F1CD1A9
:1037A000002104F10800FFF7D5FB0546002D48D1A4
:1037B000274A536D23F0E043D4F890100B43536530
:1037C00019E0012104F12800FFF74AFC0546D0E783
:1037D00001263546D6E72E46D4E7012635460AE0CF
:1037E000B3F1804FE2D0B3F1A04FDFD0B3F1405F2F
:1037F000DCD001263546236813F0400F37D0D4F8CB
:103800009C30B3F5006F53D026D843B1B3F5806F29
:1038100019D1002104F10800FFF79CFB0546002D9B
:103820004DD10B4A936D23F4E053D4F89C100B4315
:1038300093651CE0022104F12800FFF711FC054606
:10384000B4E72E46D7E70126354610E00048025877
:1038500000440258CFFFFF00B3F5805FDFD0B3F51F
:10386000A05FDCD0B3F5406FD9D001263546236880
:1038700013F0800F33D0D4F8A030B3F5804F00F0B0
:10388000A38021D843B1B3F5005F1AD1002104F120
:103890000800FFF75FFB0546002D40F09C80814A41
:1038A000936D23F46043D4F8A0100B43936516E0A6
:1038B000022104F12800FFF7D3FB0546AFE72E46AF
:1038C000D5E7012635460AE0B3F5004FE4D0B3F55D
:1038D000204FE1D0B3F5C04FDED001263546236836
:1038E00013F0080F0CD0D4F88430B3F5805F74D097
:1038F0006C4A536D23F44053D4F884100B43536542
:10390000236813F0100F0CD0D4F89830B3F5807FF3
:103910006CD0644A936D23F44073D4F898100B4331
:103920009365236813F4002F0BD0D4F8A430B3F5BB
:10393000803F74D0B3F5003F67D0002B5FD00126E5
:103940003546236813F4802F0CD0D4F88830B3F5B3
:10395000001F7CD0B3F5401F6FD0B3F5801F67D038
:1039600001263546236813F4803F08D0236D002BD1
:1039700076D0B3F5803F00F081800126354623687C
:1039800013F0005F40F08380236813F4003F00F0E1
:103990008E80D4F88030B3F5807F00F0EC8040F268
:1039A0008380B3F5007F03D0B3F5407F40F0E18022
:1039B000002D40F0E6803B4A536D23F44073D4F869
:1039C00080100B43536572E0022104F12800FFF7D9
:1039D00047FB054660E72E4681E7022104F12800F7
:1039E000FFF73EFB002883D0012681E7022104F186
:1039F0002800FFF735FB00288BD0012689E700213E
:103A000004F10800FFF7A6FA05467DB9254A936D33
:103A100023F44033D4F8A4100B43936591E70221BB
:103A200004F12800FFF71CFB0546EEE72E4688E769
:103A30001C4AD36A43F40033D3627DB9194A536DEB
:103A400023F44013D4F888100B4353658AE701210F
:103A500004F12800FFF704FB0546EEE72E4681E758
:103A6000104AD36A43F40033D36275B90D4AD36C5C
:103A700023F48033216D0B43D36480E7022104F1EA
:103A80000800FFF767FA0546EFE72E4677E70221C1
:103A900004F12800FFF7E4FA00283FF475AF01268F
:103AA00072E700BF00440258002B81D00126236832
:103AB00013F4801F06D04F4A136D23F00043616F4B
:103AC0000B431365236813F0805F07D0494A1369DD
:103AD00023F48043D4F8B8100B431361236813F424
:103AE000001F06D0434A136D23F08073E16E0B4331
:103AF0001365236813F0804F09D03E4B1A6922F4F6
:103B000000421A611A69D4F8BC100A431A6123688A
:103B1000002B06DA374AD36C23F04053616D0B4318
:103B2000D364236813F4000F07D0324A536D23F493
:103B30004003D4F88C100B435365636813F0010FF6
:103B400021D1636813F0020F26D1636813F0040FCC
:103B50002BD1636813F0080F30D1636813F0100F96
:103B600035D1636813F0200F3AD106B101263046F3
:103B7000F8BD01269BE71F4AD36A43F40033D362A2
:103B800016E72E4693E7002104F10800FFF7E2F95B
:103B90000028D6D00646D4E7012104F10800FFF73B
:103BA000D9F90028D1D00646CFE7022104F1080058
:103BB000FFF7D0F90028CCD00646CAE7002104F16F
:103BC0002800FFF74DFA0028C7D00646C5E70121B7
:103BD00004F12800FFF744FA0028C2D00646C0E7E7
:103BE000022104F12800FFF73BFA0028BDD0064669
:103BF000BBE700BF0044025808B5FFF765F9054B65
:103C00001B6AC3F30213044AD35C03F01F03D840BA
:103C100008BD00BF004402581C7900082DE9F0419E
:103C20000446864B9D6A9E6AC6F30536D86AC0F381
:103C30000010DB6BC3F3CC0303FB00F0FCF716FCB6
:103C4000002E00F0F58005F003050746012D79D020
:103C5000022D00F0CB800DB33046FCF707FC014687
:103C60007748FCF70FFD0546744B986BC0F30800CE
:103C7000FCF7FCFB06464FF064513846FCF74EFC5F
:103C800001463046FCF742FB4FF07E51FCF73EFB0D
:103C900001462846FCF742FC054674E0674B1B686A
:103CA00013F0200F2CD0DFF89481D8F80030C3F344
:103CB000C1036448D840FCF7D9FB05463046FCF701
:103CC000D5FB01462846FCF7DDFC0546D8F8380050
:103CD000C0F30800FCF7CAFB06464FF064513846B3
:103CE000FCF71CFC01463046FCF710FB4FF07E5100
:103CF000FCF70CFB01462846FCF710FC054642E0A9
:103D00003046FCF7B3FB01464F48FCF7BBFC0546C9
:103D10004A4B986BC0F30800FCF7A8FB06464FF02F
:103D200064513846FCF7FAFB01463046FCF7EEFAE0
:103D30004FF07E51FCF7EAFA01462846FCF7EEFB0D
:103D4000054620E03046FCF791FB01463C48FCF775
:103D500099FC0546394B986BC0F30800FCF786FBCD
:103D600006464FF064513846FCF7D8FB0146304612
:103D7000FCF7CCFA4FF07E51FCF7C8FA0146284612
:103D8000FCF7CCFB05462D4EB06BC0F34620FCF78C
:103D90006DFB4FF07E51FCF7B9FA01462846FCF75F
:103DA00071FCFCF70BFD2060B06BC0F30640FCF724
:103DB0005DFB4FF07E51FCF7A9FA01462846FCF75F
:103DC00061FCFCF7FBFC6060B06BC0F30660FCF7C5
:103DD0004DFB4FF07E51FCF799FA01462846FCF75F
:103DE00051FCFCF7EBFCA060BDE8F0813046FCF72D
:103DF0003DFB01461548FCF745FC05460F4B986B0B
:103E0000C0F30800FCF732FB06464FF06451384619
:103E1000FCF784FB01463046FCF778FA4FF07E5100
:103E2000FCF774FA01462846FCF778FB0546AAE73A
:103E3000002323606360A360D6E700BF00440258FC
:103E40000024744A0090D0030024744C0024F44AE7
:103E50002DE9F0410446864B9D6A9E6AC6F30556DD
:103E6000D86AC0F300205B6CC3F3CC0303FB00F003
:103E7000FCF7FCFA002E00F0F58005F0030507467C
:103E8000012D79D0022D00F0CB800DB33046FCF728
:103E9000EDFA01467748FCF7F5FB0546744B186CC4
:103EA000C0F30800FCF7E2FA06464FF064513846CA
:103EB000FCF734FB01463046FCF728FA4FF07E5100
:103EC000FCF724FA01462846FCF728FB054674E077
:103ED000674B1B6813F0200F2CD0DFF89481D8F8C3
:103EE0000030C3F3C1036448D840FCF7BFFA05466D
:103EF0003046FCF7BBFA01462846FCF7C3FB0546F3
:103F0000D8F84000C0F30800FCF7B0FA06464FF0BE
:103F100064513846FCF702FB01463046FCF7F6F9DF
:103F20004FF07E51FCF7F2F901462846FCF7F6FA0D
:103F3000054642E03046FCF799FA01464F48FCF747
:103F4000A1FB05464A4B186CC0F30800FCF78EFA3B
:103F500006464FF064513846FCF7E0FA0146304619
:103F6000FCF7D4F94FF07E51FCF7D0F90146284612
:103F7000FCF7D4FA054620E03046FCF777FA014614
:103F80003C48FCF77FFB0546394B186CC0F3080032
:103F9000FCF76CFA06464FF064513846FCF7BEFA5F
:103FA00001463046FCF7B2F94FF07E51FCF7AEF90E
:103FB00001462846FCF7B2FA05462D4E306CC0F398
:103FC0004620FCF753FA4FF07E51FCF79FF901466B
:103FD0002846FCF757FBFCF7F1FB2060306CC0F380
:103FE0000640FCF743FA4FF07E51FCF78FF901468B
:103FF0002846FCF747FBFCF7E1FB6060306CC0F340
:104000000660FCF733FA4FF07E51FCF77FF901466A
:104010002846FCF737FBFCF7D1FBA060BDE8F08138
:104020003046FCF723FA01461548FCF72BFB054602
:104030000F4B186CC0F30800FCF718FA06464FF057
:1040400064513846FCF76AFA01463046FCF75EF9DF
:104050004FF07E51FCF75AF901462846FCF75EFA0C
:104060000546AAE7002323606360A360D6E700BF8C
:10407000004402580024744A0090D0030024744C79
:104080000024F44AC36B5B09C0680830C00803FB16
:1040900000007047002800F0B78070B50446002388
:1040A000836205685C4B5D4E9D4218BFB54214BFEC
:1040B0000126002607D0A3F574439D4203D0C368B0
:1040C0000F2B00F2A3802046FFF7DCFF2EB1544BEC
:1040D0009D4202D0082800F29B804F4A4F4B9D42E0
:1040E00018BF954203D003F580639D4202D110288A
:1040F00000F2908094F88130F3B1022384F881308B
:104100002268136823F00103136021688A6802F4AF
:10411000F812A369B3F1806F14D0636813F4800FB1
:1041200023D0E368062B20D921680B6823F4807321
:10413000206D03430B601DE084F880302046FDF7BE
:1041400057F8DAE76368B3F5800F06D0002BE4D1A7
:10415000A36BB3F1805FE0D102E0A06B0028F5D142
:104160000B6843F480530B60D7E721680B6823F496
:1041700080730B60E369A16A0B431343E26B134343
:10418000E16822680B439360636B626A1343A26B1E
:104190001343A26913432269134362691343226ADA
:1041A000134362681343E26C1343A2681343A26C87
:1041B0001343A16D22680B43D36063686BB9226817
:1041C000936823F4C05343F40063936022689368B8
:1041D00023F4C06343F4806393602268136D23F07B
:1041E00001031365636813F4800F06D02268D36857
:1041F00023F00043616D0B43D3600020C4F88400BA
:10420000012384F8813070BD012070470120FAE756
:104210000120F8E70120F6E70030014000380040B7
:10422000003C0040F0B4036A026A22F0010202621C
:10423000466884691F4A22400D68154323F0020333
:104240008C6823431C4A1D4CA04218BF90420CBFEF
:10425000012200220CD004F58044A04214BF0024A7
:104260000124174FB84203D014B9164CA04205D10F
:1042700023F00803CC68234323F004035AB9124AFD
:10428000904214BF002201220D4CA04203D012B96B
:104290000C4A904207D126F4407C4A6942EA0C0C51
:1042A0008E6946EA0C06466085614A68426303628D
:1042B000F0BC70478CFFFEFF00000140000401408D
:1042C00000400140004801400044014070B4036ACE
:1042D000026A22F4807202624568C4691A4A224066
:1042E0000E68164323F400738A6843EA0223174AD0
:1042F000174CA04218BF90420CBF0122002206D1E9
:1043000023F40063CC6843EA042323F480635AB99E
:10431000104A904214BF002201220F4CA04203D049
:1043200012B90E4A904207D125F4405C4A694CEA22
:10433000021C8D694CEA05154560C6614A68C26376
:10434000036270BC704700BF8CFFFEFF000001409D
:104350000004014000440140004001400048014089
:1043600070B4036A026A22F4805202624468C5692A
:10437000144A2A400D6842EA052223F400538D684E
:1043800043EA0533104E114DA84218BFB0420DD07C
:1043900005F58045A84214BF0025012506F5804695
:1043A000B04203D015B90A4DA84204D124F4804488
:1043B0004D6944EA85144460C2614A68026403623C
:1043C00070BC7047FF8CFFFE0000014000040140FC
:1043D0000048014070B4036A026A22F4803202622B
:1043E0004268456D144C2C400D682C4323F4003377
:1043F0008D6843EA0543114E114DA84218BFB042E3
:104400000DD005F58045A84214BF0025012506F50D
:104410008046B04203D015B90A4DA84204D122F417
:1044200080324D6942EA0522426044654A688265ED
:10443000036270BC704700BF8FFFFEFF00000140A9
:10444000000401400048014070B4036A026A22F48B
:10445000801202624468456D144A2A400D6842EA9F
:10446000052223F400138D6843EA0553104E114DC5
:10447000A84218BFB0420DD005F58045A84214BF30
:104480000025012506F58046B04203D015B90A4D36
:10449000A84204D124F480244D6944EA8524446070
:1044A00042654A68C265036270BC7047FF8FFFFEB9
:1044B00000000140000401400048014010B4036ABC
:1044C000046A24F001040462846924F0F00C4CEACC
:1044D000021223F00A030B438261036210BC70478F
:1044E00030B4056A046A24F010040462846924F478
:1044F000407C4CEA022C2CF4704C1B039BB243EA28
:104500000C0325F0A005090101F0A00129438361F6
:10451000016230BC704710B4036A046A24F01004CE
:104520000462846924F4704C4CEA023223F0A00344
:1045300043EA01138261036210BC704730B4056A1C
:10454000046A24F480740462C46924F0030C4CEA05
:10455000020C2CF0F00C1B01DBB243EA0C0325F437
:104560002065090201F420612943C361016230BC66
:10457000704730B4056A046A24F480540462C46944
:1045800024F4407C4CEA022C2CF4704C1B039BB2AC
:1045900043EA0C0325F42045090301F42041294393
:1045A000C361016230BC70477047000030B50368DA
:1045B0003D4A904214BF4FF0000E4FF0010EB0F193
:1045C000804F14BF72464EF00102AAB9374CA04288
:1045D00014BF00240124364DA8420DD064B904F163
:1045E000804404F58234A04214BF0024012405F560
:1045F0000065A84200D01CB123F070034C6823432F
:1046000012BB2A4A904214BF00220122284CA04229
:104610001AD0CAB902F1804202F58232904214BF28
:104620000022012204F50064A0420DD062B9214AA3
:10463000904214BF0022012204F59A34A04203D014
:1046400012B91D4A904204D123F4407CCB6843EA5E
:104650000C0323F080034A69134303608A68C26233
:104660000A688262154A904214BF73464EF00103F5
:1046700063B9104B984214BF0023012302F5705216
:10468000904203D013B90C4B984201D10B690363DC
:1046900001234361036913F0010F03D0036923F081
:1046A0000103036130BD00BF00000140000800406D
:1046B0000004004000440140004801400004014063
:1046C00060B310B5044690F83D3013B3022384F86C
:1046D0003D30214651F8040BFFF768FF012384F8B1
:1046E000483084F83E3084F83F3084F8403084F815
:1046F000413084F8423084F8433084F8443084F800
:10470000453084F8463084F8473084F83D30002046
:1047100010BD80F83C30FCF729FFD7E70120704737
:1047200060B310B5044690F83D3013B3022384F80B
:104730003D30214651F8040BFFF738FF012384F880
:10474000483084F83E3084F83F3084F8403084F8B4
:10475000413084F8423084F8433084F8443084F89F
:10476000453084F8463084F8473084F83D300020E6
:1047700010BD80F83C30FCF75DFFD7E701207047A3
:1047800060B310B5044690F83D3013B3022384F8AB
:104790003D30214651F8040BFFF708FF012384F850
:1047A000483084F83E3084F83F3084F8403084F854
:1047B000413084F8423084F8433084F8443084F83F
:1047C000453084F8463084F8473084F83D30002086
:1047D00010BD80F83C30FFF7E7FED7E701207047B7
:1047E00070B4036A026A22F01002026245688469AA
:1047F0001A4A22400E6842EA062623F020038A68FD
:1048000043EA0213164A174CA04218BF90420CBF4D
:104810000122002206D123F08003CC6843EA04136E
:1048200023F040035AB9104A904214BF00220122DB
:104830000E4CA04203D012B90D4A904207D125F484
:10484000406C4A694CEA820C8D694CEA85054560EA
:1048500086614A688263036270BC7047FF8CFFFE0A
:1048600000000140000401400044014000400140BC
:104870000048014038B590F83C30012B00F095809D
:1048800004460D46012380F83C30142A00F288804B
:10489000DFE802F00B8686861F868686348686864B
:1048A000488686865D86868671000068FFF7BAFCBA
:1048B0002268936943F0080393612268936923F0A7
:1048C000040393612268936929690B439361002073
:1048D00067E00068FFF784FF2268936943F4006390
:1048E00093612268936923F48063936122689369DA
:1048F000296943EA01239361002052E00068FFF731
:10490000E5FC2268D36943F00803D3612268D369C8
:1049100023F00403D3612268D36929690B43D3616F
:1049200000203EE00068FFF71BFD2268D36943F4D6
:104930000063D3612268D36923F48063D361226862
:10494000D369296943EA0123D361002029E0006883
:10495000FFF740FD2268536D43F00803536522685A
:10496000536D23F0040353652268536D29690B438B
:104970005365002015E00068FFF766FD2268536D5F
:1049800043F4006353652268536D23F480635365D9
:104990002268536D296943EA01235365002000E032
:1049A0000120002384F83C3038BD0220FCE70000E1
:1049B00070B49446066A046A24F0010404628469AF
:1049C0001D4DB0F1804F18BFA84223D01B4A904222
:1049D00014BF00220122A5F57C45A8421AD0CAB90D
:1049E00002F1804202F58232904214BF002201227D
:1049F00005F50065A8420DD062B9114A904214BF76
:104A00000022012205F54065A84203D012B944F006
:104A1000010203E024F0030242EA0C0222F0F00259
:104A20001B01DBB2134326F00A0201F00A01114315
:104A30008361016270BC70470000014000080040C3
:104A40000040014038B590F83C30012B5AD0044664
:104A50000D46012380F83C3052B1042A1AD0082AAE
:104A60002BD00C2A3BD00120002384F83C3038BDE9
:104A7000CB684A6809680068FFF79AFF2268936963
:104A800023F00C03936122689369A9680B43936137
:104A90000020E9E7CB684A6809680068FFF720FD55
:104AA0002268936923F44063936122689369A9683B
:104AB00043EA012393610020D6E7CB684A6809687E
:104AC0000068FFF73BFD2268D36923F00C03D36134
:104AD0002268D369A9680B43D3610020C4E7CB687F
:104AE0004A6809680068FFF744FD2268D36923F427
:104AF0004063D3612268D369A96843EA0123D36183
:104B00000020B1E70220B2E710B4846824F47F4C9F
:104B100042EA03220A4342EA0C02826010BC704758
:104B200010B50468A3684C4A1A404B6813434B4ABB
:104B30001A400B681343A3604B68602B68D01CD8E5
:104B4000402B50D008D9502B15D10A6989680068CC
:104B5000FFF7B4FC002035E0202B60D003D9302BC8
:104B600007D001202EE0002B5BD0102B5BD1002062
:104B700028E0002026E0012024E0702B2BD001D279
:104B800001201FE0364A93424FD008D9B3F5001FE9
:104B900057D018D9334A934259D1002012E0303A05
:104BA000934244D007D9304A934246D010329342C0
:104BB00045D1002006E0B3F5801F3AD0B3F1101FB5
:104BC00039D1002010BD294A93423CD01032934283
:104BD0003BD10020F6E70B698A68C9680068FFF7D7
:104BE00093FF0020EEE70B68052B32D003681C6AA8
:104BF0001A6A22F001021A620268936923F0F00334
:104C0000096943EA0113936103681C620020D9E734
:104C10000A6989680068FFF77EFC0020D2E700205F
:104C2000D0E70020CEE70120CCE70020CAE7002033
:104C3000C8E70020C6E70120C4E70020C2E7012042
:104C4000C0E70020BEE70020BCE70120BAE7012052
:104C5000B8E70120B6E700BF8FFFCFFFF8FFFEFFE8
:104C60005000100010002000300010006000100004
:104C700090F83C30012B22D010B50446012380F877
:104C80003C30022380F83D30FFF74AFF80B92268AC
:104C9000D36823F04003D3602268D36823F48043B1
:104CA000D360012384F83D30002384F83C3010BDEC
:104CB000012084F83D00002384F83C30F7E702200F
:104CC0007047000090F83C30012B45D070B40123B0
:104CD00080F83C30022380F83D3003685A689C68B5
:104CE0001E4E1F4DAB4218BFB34203D122F47002D7
:104CF0004D682A4322F070020D682A435A60036807
:104D0000164AB3F1804F18BF934217D0A2F57C42E8
:104D1000934213D002F5806293420FD002F5806275
:104D200093420BD002F57842934207D0A2F56C4231
:104D3000934203D002F59432934204D124F08004CC
:104D40008A6814439C60012380F83D30002380F87A
:104D50003C30184670BC704702207047000001408C
:104D600000040140026852E8003F23F4907342E8D7
:104D700000310029F6D1026802F1080353E8001F50
:104D80000D4B0B40083242E800310029F3D1C36ECD
:104D9000012B06D02023C0F88C300023C366436764
:104DA0007047026852E8003F23F0100342E80031E8
:104DB0000029F6D1EEE700BFFEFFFFEF704708B510
:104DC000026852E8003F23F0400342E80031002926
:104DD000F6D12023C0F8883000238367FFF7EEFF69
:104DE00008BD704708B5806B0023A0F85E30A0F8BE
:104DF0005630FFF7F6FF08BD7047000070B5044657
:104E00000168CB6908688D6840F60F021A4008D126
:104E100013F0200F05D010F0200F34D115F0805F73
:104E200031D12AB18B4A2A4033D18B4E304230D116
:104E3000E26E012A00F0C68013F4801F03D015F43F
:104E4000800F40F09B8113F0800F07D010F0800F8F
:104E500040F09B8115F4000F40F0978113F0400F54
:104E600003D010F0400F40F0978113F4000F03D0EF
:104E700010F0804F40F0948113F0807F02D0002822
:104E8000C0F2928170BD636F002BFBD02046984723
:104E9000F8E713F0010F09D010F4807F06D0012647
:104EA0000E62D4F890103143C4F8901013F0020F42
:104EB0000BD015F0010F08D0216802260E62D4F83D
:104EC000901041F00401C4F8901013F0040F0BD0BF
:104ED00015F0010F08D0216804260E62D4F8901056
:104EE00041F00201C4F8901013F0080F0BD010F03D
:104EF000200F00D13AB1226808211162D4F8902025
:104F00000A43C4F8902013F4006F0CD010F0806FA7
:104F100009D022684FF400611162D4F8902042F069
:104F20002002C4F89020D4F89020002AAAD013F0D0
:104F3000200F09D010F0200F02D115F0805F03D0B0
:104F4000636F0BB120469847D4F8902023689B6884
:104F500013F0400F02D112F0280F2CD02046FFF79B
:104F600001FF23689B6813F0400F20D0226802F1F4
:104F7000080353E8003F23F04003083242E80031C1
:104F80000029F3D1D4F880306BB1344A1A65D4F8D3
:104F90008000FCF76DFF00283FF474AFD4F8800068
:104FA000036D98476EE72046FFF71BFF6AE7204630
:104FB000FFF717FF66E72046FFF713FF0023C4F84B
:104FC00090305FE713F0100F3FF436AF10F0100F82
:104FD0003FF432AF10230B6223689B6813F0400F3D
:104FE00000F09280D4F8802013681D481D498B4240
:104FF00018BF834238D018318B4235D018318B42DC
:1050000032D018318B422FD018318B422CD018312E
:105010008B4229D018318B4226D001F556718B4234
:1050200022D018318B421FD018318B421CD018313E
:105030008B4219D018318B4216D018318B4213D0C5
:1050400018318B4210D018318B420DD05B689BB267
:105050000CE000BF0100001020010004E54D000835
:1050600010000240280002405B689BB2002B3FF416
:1050700009AFB4F85C1099427FF604AFA4F85E3033
:10508000D369B3F5807F32D0226852E8003F23F421
:10509000807342E800310029F6D1226802F108034A
:1050A00053E8003F23F00103083242E800310029B1
:1050B000F3D1226802F1080353E8003F23F04003D4
:1050C000083242E800310029F3D12023C4F88C30A3
:1050D0000023E366226852E8003F23F0100342E811
:1050E00000310029F6D1D4F88000FCF721FD02231D
:1050F0002367B4F85C10B4F85E309BB2C91A89B269
:105100002046FFF779FEBDE6B4F85C10B4F85E30D7
:105110009BB2C91A89B2B4F85E309BB2002B3FF43F
:10512000B1AE00293FF4AEAE226852E8003F23F44E
:10513000907342E800300028F6D1226802F108039B
:1051400053E8000F1A4B0340083242E800300028B1
:10515000F3D12023C4F88C300023E3666367226810
:1051600052E8003F23F0100342E800300028F6D157
:10517000022323672046FFF73FFE83E64FF48013A8
:105180000B62204600F07CFD7CE6A36F002B3FF411
:1051900079AE2046984775E62046FFF710FE71E687
:1051A000204600F06FFD6DE6204600F06AFD69E6DE
:1051B000FEFFFFEF70B586B00446016883680269A0
:1051C000134342691343C26913430868884A024083
:1051D00013430B602268536823F44053E1680B4388
:1051E0005360A1692268834B9A4201D0236A194314
:1051F0009068814B03400B4393602268D36A23F08D
:105200000F03616A0B43D36222687C4B9A4221D020
:105210007B4B9A4200F08C807A4B9A4200F0A2803D
:10522000794B9A4200F0B580784B9A4200F0C880E2
:10523000774B9A4200F0F480764B9A4200F0198145
:10524000754B9A4200F02C816A4B9A4200F03F81E4
:10525000802333E0714B5B6D03F03803282B65D856
:10526000DFE813F029006400640064006400640057
:10527000640064004D016400640064006400640024
:10528000640064002B006400640064006400640037
:10529000640064005E0064006400640064006400F4
:1052A00064006400600064006400640064006400E2
:1052B000640064006200012300E008234D498A4233
:1052C00000F02F81E069B0F5004F00F0AF81202B96
:1052D00000F20782202B00F25182DFE813F01E0259
:1052E00024024F024F0227024F024F024F022C02AC
:1052F0004F024F024F024F024F024F024F02310244
:105300004F024F024F024F024F024F024F024F0215
:105310004F024F024F024F024F024F024F023D0217
:105320001023CBE72023C9E74023C7E78023C5E745
:105330003A4B5B6D03F00703052B11D8DFE813F040
:105340000600E10008000A000C000E000023B5E78B
:105350000823B3E71023B1E72023AFE74023ADE7ED
:105360008023ABE72D4B5B6D03F00703052B0ED8B5
:10537000DFE803F003C90507090B00239EE70823B4
:105380009CE710239AE7202398E7402396E78023A1
:1053900094E7224B5B6D03F00703052B0ED8DFE883
:1053A00003F003B40507090B002387E7082385E70B
:1053B000102383E7202381E740237FE780237DE7D5
:1053C000164B5B6D03F00703052B0ED8DFE803F0E7
:1053D000039F0507090B002370E708236EE71023DE
:1053E0006CE720236AE7402368E7802366E700BF75
:1053F000F369FFCF000C0058FFF4FF1100100140CB
:105400000044004000480040004C00400050004074
:105410000014014000780040007C00400044025825
:105420007D4B5B6D03F03803282B20D8DFE803F0B9
:10543000151F1F1F1F1F1F1F711F1F1F1F1F1F1F34
:10544000171F1F1F1F1F1F1F191F1F1F1F1F1F1F7A
:105450001B1F1F1F1F1F1F1F1D0001232EE70823D7
:105460002CE710232AE7202328E7402326E7802380
:1054700024E7694B5B6D03F00703052B0ED8DFE8CB
:1054800003F0034A0507090B002317E7082315E774
:10549000102313E7202311E740230FE780230DE7B4
:1054A0005D4B5B6D03F00703052B0ED8DFE803F0BF
:1054B00003350507090B002300E70823FEE6102348
:1054C000FCE62023FAE64023F8E68023F6E603F51F
:1054D0000E339B6D03F00703052B0ED8DFE803F0B6
:1054E000031F0507090B0223E8E60823E6E610235D
:1054F000E4E62023E2E64023E0E68023DEE6042320
:10550000DCE60423DAE60423D8E60423D6E6042303
:10551000D4E60423D2E60423D0E60423CEE6042313
:10552000CCE6202B27D8022BC0F01A81023B1E2B81
:1055300000F21881DFE813F0500016015600160142
:10554000160116015B00160116011601160116015F
:10555000160116016000160116011601160116014A
:105560001601160116011601160116011601160183
:10557000160116016C00402B2CD14FF40040626ADA
:10558000264B33F81220B0FBF2F3656805EB4501BA
:10559000994200F2E980B3EB053F00F2E780002674
:1055A00033463146FBF72AF9090241EA106100024D
:1055B0006B08C0182A46334641F10001FBF71EF97B
:1055C000A0F54072164B9A4200F2D2802368D86050
:1055D0003046D4E00120D2E0FEF70EFB0028CED109
:1055E0000020CCE003A8FEF719FB0498F6E7684614
:1055F000FEF72EFC0198F1E7074B1B6813F0200F14
:1056000008D0054B1B68C3F3C1030648D840E5E743
:105610000548B4E70348B2E7004402582C79000873
:10562000FFFC0F000090D00300093D00202B15D88F
:10563000202B00F29F80DFE803F031379D9D3A9DDB
:105640009D9D3F9D9D9D9D9D9D9D449D9D9D9D9D41
:105650009D9D9D9D9D9D9D9D9D9D5000402B1BD181
:10566000626A4D4B33F81230B0FBF3F062685308B6
:1056700003EB4000B0FBF2F0A0F110024FF6EF7325
:105680009A4279D883B223F00F03C0F34200184343
:105690002368D860002072E0012070E0FDF736FC3E
:1056A0000028DDD100206AE0FDF742FCF8E703A8FE
:1056B000FEF7B4FA0498F3E76846FEF7C9FB0198D1
:1056C000EEE7364B1B6813F0200F08D0334B1B68F6
:1056D000C3F3C1033248D840E2E73248C0E730485C
:1056E000BEE7402B17D14FF40040626A2A4B33F8D3
:1056F0001230B0FBF3F0636800EB5300B0FBF3F043
:10570000A0F110024FF6EF739A4242D8236880B29C
:10571000D860002033E0012031E0FDF7F7FB0028DE
:10572000E3D100202BE0FDF703FCF8E703A8FEF728
:1057300075FA0498F3E76846FEF78AFB0198EEE7EE
:10574000164B1B6813F0200F08D0144B1B68C3F3D3
:10575000C1031348D840E2E71248C6E71048C4E73F
:1057600001200CE001200AE0012008E0012006E011
:10577000012004E0012002E0012000E001200123DB
:10578000A4F86A30A4F8683000236367A36706B002
:1057900070BD0120F3E700BF2C79000800440258D7
:1057A0000090D00300093D00836A13F0080F06D073
:1057B0000268536823F40043816B0B435360836A90
:1057C00013F0010F06D00268536823F40033C16A56
:1057D0000B435360836A13F0020F06D002685368CC
:1057E00023F48033016B0B435360836A13F0040F7F
:1057F00006D00268536823F48023416B0B43536047
:10580000836A13F0100F06D00268936823F4805364
:10581000C16B0B439360836A13F0200F06D00268BC
:10582000936823F40053016C0B439360836A13F075
:10583000400F0AD00268536823F48013416C0B4375
:105840005360436CB3F5801F0BD0836A13F0800F55
:1058500006D00268536823F40023C16C0B435360E5
:1058600070470268536823F4C003816C0B43536094
:10587000EBE72DE9F84305460E4617469946DDF855
:1058800020802C68E46936EA04030CBF4FF0010C59
:105890004FF0000CBC453AD1B8F1FF3FF1D0FCF716
:1058A000D1F8A0EB0900404534D8B8F1000F33D04F
:1058B0002B681A6812F0040FE3D0B6F1400218BF4B
:1058C0000122802EDDD0002ADBD0DA6912F0080F29
:1058D00011D1DA6912F4006FD3D04FF400621A626A
:1058E0002846FFF73FFA2023C5F89030002385F8BB
:1058F000843003200CE008241C622846FFF732FAAB
:10590000C5F89040002385F88430012000E0002095
:10591000BDE8F8830320FBE70320F9E72DE9F04118
:1059200082B01E46D0F88830202B5BD104460D464D
:105930009046002A18BF002901D1012053E000231E
:10594000C0F890302123C0F88830FCF77BF8074678
:10595000A4F85480A4F85680A368B3F5805F02D001
:105960004FF0000816E0236943B34FF0000811E040
:105970002023C4F88830032035E038F8023B226841
:10598000C3F308039362B4F8562092B2013A92B27C
:10599000A4F85620B4F856309BB293B100963B461B
:1059A000002280212046FFF764FF0028E0D1002D6F
:1059B000E3D015F8012B23689A62E4E7A846002596
:1059C000E8E700963B46002240212046FFF751FFC2
:1059D00018B92023C4F8883005E02023C4F88830A3
:1059E000032000E0022002B0BDE8F0812DE9F04381
:1059F00083B01E46D0F88C30202B7ED104460D4655
:105A00009046002A18BF002901D1012076E000232A
:105A1000C0F890302222C0F88C20C366FCF712F840
:105A20000746A4F85C80A4F85E80A368B3F5805FA5
:105A300006D0A3B9226972B9FF22A4F8602014E04D
:105A4000226922B940F2FF12A4F860200DE0FF2283
:105A5000A4F8602009E07F22A4F8602005E0B3F1FB
:105A6000805F0AD00022A4F86020B4F86080B3F50B
:105A7000805F0CD04FF0000924E022691AB97F2220
:105A8000A4F86020F1E73F22A4F86020EDE7236945
:105A900013B14FF0000915E0A946002512E02023BC
:105AA000C4F88C30032029E023685A6A5FFA88F32F
:105AB000134005F8013BB4F85E2092B2013A92B26D
:105AC000A4F85E20B4F85E309BB28BB100963B46E2
:105AD000002220212046FFF7CCFE0028DFD1002D38
:105AE000E2D123685B6A08EA030329F8023BE2E794
:105AF0002023C4F88C30002000E0022003B0BDE871
